{
  "address": "0xA54CB13A91fcc2765514Fd188CeFe995cEf41D5A",
  "abi": [
    {
      "inputs": [
        {
          "internalType": "contract IERC20",
          "name": "token",
          "type": "address"
        },
        {
          "internalType": "contract IERC20",
          "name": "stakingToken",
          "type": "address"
        }
      ],
      "stateMutability": "nonpayable",
      "type": "constructor"
    },
    {
      "anonymous": false,
      "inputs": [
        {
          "indexed": true,
          "internalType": "address",
          "name": "user",
          "type": "address"
        },
        {
          "indexed": false,
          "internalType": "uint256",
          "name": "reward",
          "type": "uint256"
        }
      ],
      "name": "RewardAdded",
      "type": "event"
    },
    {
      "anonymous": false,
      "inputs": [
        {
          "indexed": true,
          "internalType": "address",
          "name": "user",
          "type": "address"
        },
        {
          "indexed": false,
          "internalType": "uint256",
          "name": "reward",
          "type": "uint256"
        }
      ],
      "name": "RewardPaid",
      "type": "event"
    },
    {
      "anonymous": false,
      "inputs": [
        {
          "indexed": true,
          "internalType": "bytes32",
          "name": "role",
          "type": "bytes32"
        },
        {
          "indexed": true,
          "internalType": "bytes32",
          "name": "previousAdminRole",
          "type": "bytes32"
        },
        {
          "indexed": true,
          "internalType": "bytes32",
          "name": "newAdminRole",
          "type": "bytes32"
        }
      ],
      "name": "RoleAdminChanged",
      "type": "event"
    },
    {
      "anonymous": false,
      "inputs": [
        {
          "indexed": true,
          "internalType": "bytes32",
          "name": "role",
          "type": "bytes32"
        },
        {
          "indexed": true,
          "internalType": "address",
          "name": "account",
          "type": "address"
        },
        {
          "indexed": true,
          "internalType": "address",
          "name": "sender",
          "type": "address"
        }
      ],
      "name": "RoleGranted",
      "type": "event"
    },
    {
      "anonymous": false,
      "inputs": [
        {
          "indexed": true,
          "internalType": "bytes32",
          "name": "role",
          "type": "bytes32"
        },
        {
          "indexed": true,
          "internalType": "address",
          "name": "account",
          "type": "address"
        },
        {
          "indexed": true,
          "internalType": "address",
          "name": "sender",
          "type": "address"
        }
      ],
      "name": "RoleRevoked",
      "type": "event"
    },
    {
      "anonymous": false,
      "inputs": [
        {
          "indexed": true,
          "internalType": "address",
          "name": "user",
          "type": "address"
        },
        {
          "indexed": false,
          "internalType": "uint256",
          "name": "amount",
          "type": "uint256"
        }
      ],
      "name": "Staked",
      "type": "event"
    },
    {
      "anonymous": false,
      "inputs": [
        {
          "indexed": true,
          "internalType": "address",
          "name": "user",
          "type": "address"
        },
        {
          "indexed": false,
          "internalType": "uint256",
          "name": "amount",
          "type": "uint256"
        }
      ],
      "name": "Withdrawn",
      "type": "event"
    },
    {
      "inputs": [],
      "name": "ADMIN_ROLE",
      "outputs": [
        {
          "internalType": "bytes32",
          "name": "",
          "type": "bytes32"
        }
      ],
      "stateMutability": "view",
      "type": "function"
    },
    {
      "inputs": [],
      "name": "DEFAULT_ADMIN_ROLE",
      "outputs": [
        {
          "internalType": "bytes32",
          "name": "",
          "type": "bytes32"
        }
      ],
      "stateMutability": "view",
      "type": "function"
    },
    {
      "inputs": [],
      "name": "OPERATOR_ROLE",
      "outputs": [
        {
          "internalType": "bytes32",
          "name": "",
          "type": "bytes32"
        }
      ],
      "stateMutability": "view",
      "type": "function"
    },
    {
      "inputs": [],
      "name": "adminAccessRole",
      "outputs": [
        {
          "internalType": "bytes32",
          "name": "",
          "type": "bytes32"
        }
      ],
      "stateMutability": "view",
      "type": "function"
    },
    {
      "inputs": [
        {
          "internalType": "uint256",
          "name": "amount",
          "type": "uint256"
        }
      ],
      "name": "allocateSeigniorage",
      "outputs": [],
      "stateMutability": "nonpayable",
      "type": "function"
    },
    {
      "inputs": [
        {
          "internalType": "address",
          "name": "account",
          "type": "address"
        }
      ],
      "name": "balanceOf",
      "outputs": [
        {
          "internalType": "uint256",
          "name": "",
          "type": "uint256"
        }
      ],
      "stateMutability": "view",
      "type": "function"
    },
    {
      "inputs": [],
      "name": "claimReward",
      "outputs": [],
      "stateMutability": "nonpayable",
      "type": "function"
    },
    {
      "inputs": [
        {
          "internalType": "address",
          "name": "director",
          "type": "address"
        }
      ],
      "name": "earned",
      "outputs": [
        {
          "internalType": "uint256",
          "name": "",
          "type": "uint256"
        }
      ],
      "stateMutability": "view",
      "type": "function"
    },
    {
      "inputs": [],
      "name": "exit",
      "outputs": [
        {
          "internalType": "uint256",
          "name": "",
          "type": "uint256"
        }
      ],
      "stateMutability": "nonpayable",
      "type": "function"
    },
    {
      "inputs": [
        {
          "internalType": "address",
          "name": "director",
          "type": "address"
        }
      ],
      "name": "getLastSnapshotIndexOf",
      "outputs": [
        {
          "internalType": "uint256",
          "name": "",
          "type": "uint256"
        }
      ],
      "stateMutability": "view",
      "type": "function"
    },
    {
      "inputs": [
        {
          "internalType": "bytes32",
          "name": "role",
          "type": "bytes32"
        }
      ],
      "name": "getRoleAdmin",
      "outputs": [
        {
          "internalType": "bytes32",
          "name": "",
          "type": "bytes32"
        }
      ],
      "stateMutability": "view",
      "type": "function"
    },
    {
      "inputs": [
        {
          "internalType": "bytes32",
          "name": "role",
          "type": "bytes32"
        },
        {
          "internalType": "uint256",
          "name": "index",
          "type": "uint256"
        }
      ],
      "name": "getRoleMember",
      "outputs": [
        {
          "internalType": "address",
          "name": "",
          "type": "address"
        }
      ],
      "stateMutability": "view",
      "type": "function"
    },
    {
      "inputs": [
        {
          "internalType": "bytes32",
          "name": "role",
          "type": "bytes32"
        }
      ],
      "name": "getRoleMemberCount",
      "outputs": [
        {
          "internalType": "uint256",
          "name": "",
          "type": "uint256"
        }
      ],
      "stateMutability": "view",
      "type": "function"
    },
    {
      "inputs": [
        {
          "internalType": "bytes32",
          "name": "role",
          "type": "bytes32"
        },
        {
          "internalType": "address",
          "name": "account",
          "type": "address"
        }
      ],
      "name": "grantRole",
      "outputs": [],
      "stateMutability": "nonpayable",
      "type": "function"
    },
    {
      "inputs": [
        {
          "internalType": "bytes32",
          "name": "role",
          "type": "bytes32"
        },
        {
          "internalType": "address",
          "name": "account",
          "type": "address"
        }
      ],
      "name": "hasRole",
      "outputs": [
        {
          "internalType": "bool",
          "name": "",
          "type": "bool"
        }
      ],
      "stateMutability": "view",
      "type": "function"
    },
    {
      "inputs": [
        {
          "internalType": "address",
          "name": "account",
          "type": "address"
        }
      ],
      "name": "isAdmin",
      "outputs": [
        {
          "internalType": "bool",
          "name": "",
          "type": "bool"
        }
      ],
      "stateMutability": "view",
      "type": "function"
    },
    {
      "inputs": [
        {
          "internalType": "address",
          "name": "account",
          "type": "address"
        }
      ],
      "name": "isOperator",
      "outputs": [
        {
          "internalType": "bool",
          "name": "",
          "type": "bool"
        }
      ],
      "stateMutability": "view",
      "type": "function"
    },
    {
      "inputs": [],
      "name": "latestSnapshotIndex",
      "outputs": [
        {
          "internalType": "uint256",
          "name": "",
          "type": "uint256"
        }
      ],
      "stateMutability": "view",
      "type": "function"
    },
    {
      "inputs": [
        {
          "internalType": "bytes32",
          "name": "role",
          "type": "bytes32"
        },
        {
          "internalType": "address",
          "name": "account",
          "type": "address"
        }
      ],
      "name": "renounceRole",
      "outputs": [],
      "stateMutability": "nonpayable",
      "type": "function"
    },
    {
      "inputs": [
        {
          "internalType": "bytes32",
          "name": "role",
          "type": "bytes32"
        },
        {
          "internalType": "address",
          "name": "account",
          "type": "address"
        }
      ],
      "name": "revokeRole",
      "outputs": [],
      "stateMutability": "nonpayable",
      "type": "function"
    },
    {
      "inputs": [],
      "name": "rewardPerShare",
      "outputs": [
        {
          "internalType": "uint256",
          "name": "",
          "type": "uint256"
        }
      ],
      "stateMutability": "view",
      "type": "function"
    },
    {
      "inputs": [
        {
          "internalType": "uint256",
          "name": "amount",
          "type": "uint256"
        }
      ],
      "name": "stake",
      "outputs": [],
      "stateMutability": "nonpayable",
      "type": "function"
    },
    {
      "inputs": [],
      "name": "token",
      "outputs": [
        {
          "internalType": "contract IERC20",
          "name": "",
          "type": "address"
        }
      ],
      "stateMutability": "view",
      "type": "function"
    },
    {
      "inputs": [],
      "name": "totalSupply",
      "outputs": [
        {
          "internalType": "uint256",
          "name": "",
          "type": "uint256"
        }
      ],
      "stateMutability": "view",
      "type": "function"
    },
    {
      "inputs": [
        {
          "internalType": "address",
          "name": "newAdmin",
          "type": "address"
        }
      ],
      "name": "transferAdmin",
      "outputs": [],
      "stateMutability": "nonpayable",
      "type": "function"
    },
    {
      "inputs": [
        {
          "internalType": "address",
          "name": "newOperator",
          "type": "address"
        }
      ],
      "name": "transferOperator",
      "outputs": [],
      "stateMutability": "nonpayable",
      "type": "function"
    },
    {
      "inputs": [
        {
          "internalType": "uint256",
          "name": "amount",
          "type": "uint256"
        }
      ],
      "name": "withdraw",
      "outputs": [],
      "stateMutability": "nonpayable",
      "type": "function"
    }
  ],
  "transactionHash": "0x342e55d57db783a6576ab3487a8e8c1b6908655d45fea3a88f5da9ee38b92b25",
  "args": [
    "0x95Cdc9577C2cf59a87c6050cFcafFDa9eB55c4c1",
    "0x98A629aE103687a3c2C1c16c5C63Ed64Ab3a877c"
  ],
  "solcInputHash": "c6a017f0d032251aba4881a80aaffb4a",
  "bytecode": "0x60a06040523480156200001157600080fd5b50604051620024d6380380620024d6833981810160405260408110156200003757600080fd5b508051602090910151600080516020620024b68339815191526200005a62000203565b600080546001600160a01b038086166001600160a01b031992831617909255608093909352600480549290911691909216179055620000a9600080516020620024b68339815191528062000207565b620000cd600080516020620024b6833981519152620000c762000203565b62000259565b620000f760008051602062002496833981519152600080516020620024b683398151915262000207565b6200010162000203565b600580546001600160a01b0319166001600160a01b0392831617908190556200013c9160008051602062002496833981519152911662000259565b50600780546001600160a01b0319166001600160a01b03929092169190911790556040805160608101825243815260006020820181815292820181815260098054600181018255925291517f6e1540171b6c0c960b71a7020d9f60077f6af931a8bbf590da0223dacf75c7af60039092029182015591517f6e1540171b6c0c960b71a7020d9f60077f6af931a8bbf590da0223dacf75c7b0830155517f6e1540171b6c0c960b71a7020d9f60077f6af931a8bbf590da0223dacf75c7b1909101556200036b565b3390565b600082815260036020526040808220600201549051839285917fbd79b86ffe0ab8e8776151514217cd7cacd52c909f66475c3af44e129f0b00ff9190a460009182526003602052604090912060020155565b62000265828262000269565b5050565b600082815260036020908152604090912062000290918390620014cb620002e4821b17901c565b156200026557620002a062000203565b6001600160a01b0316816001600160a01b0316837f2f8788117e7eff1d82e926ec794901d17c78024a50270940304540a733656f0d60405160405180910390a45050565b6000620002fb836001600160a01b03841662000304565b90505b92915050565b600062000312838362000353565b6200034a57508154600181810184556000848152602080822090930184905584548482528286019093526040902091909155620002fe565b506000620002fe565b60009081526001919091016020526040902054151590565b6080516120f76200039f60003980610548528061058652806105b65280610a895280610b355280610b6352506120f76000f3fe608060405234801561001057600080fd5b50600436106101b85760003560e01c8063714b4658116100f9578063a694fc3a11610097578063d547741f11610071578063d547741f1461047b578063e9fad8ee146104a7578063f5b541a6146104af578063fc0c546a146104b7576101b8565b8063a694fc3a14610439578063b88a802f14610456578063ca15c8731461045e576101b8565b80639010d07c116100d35780639010d07c146103a957806391d14854146103e857806397ffe1d714610414578063a217fddf14610431576101b8565b8063714b46581461035557806375829def1461037b57806375b238fc146103a1576101b8565b80632e1a7d4d116101665780633f9e3f04116101405780633f9e3f04146102f9578063446a2ec8146103015780636d70f7ae1461030957806370a082311461032f576101b8565b80632e1a7d4d146102845780632f2ff15d146102a157806336568abe146102cd576101b8565b8063248a9ca311610197578063248a9ca31461020557806324d7806c1461022257806329605e771461025c576101b8565b80628cc262146101bd57806318160ddd146101f55780632140dcf1146101fd575b600080fd5b6101e3600480360360208110156101d357600080fd5b50356001600160a01b03166104bf565b60408051918252519081900360200190f35b6101e3610540565b6101e3610546565b6101e36004803603602081101561021b57600080fd5b503561056a565b6102486004803603602081101561023857600080fd5b50356001600160a01b031661057f565b604080519115158252519081900360200190f35b6102826004803603602081101561027257600080fd5b50356001600160a01b03166105b1565b005b6102826004803603602081101561029a57600080fd5b50356106ee565b610282600480360360408110156102b757600080fd5b50803590602001356001600160a01b0316610931565b610282600480360360408110156102e357600080fd5b50803590602001356001600160a01b0316610998565b6101e36109f9565b6101e3610a0f565b6102486004803603602081101561031f57600080fd5b50356001600160a01b0316610a22565b6101e36004803603602081101561034557600080fd5b50356001600160a01b0316610a4e565b6101e36004803603602081101561036b57600080fd5b50356001600160a01b0316610a69565b6102826004803603602081101561039157600080fd5b50356001600160a01b0316610a84565b6101e3610bc0565b6103cc600480360360408110156103bf57600080fd5b5080359060200135610be4565b604080516001600160a01b039092168252519081900360200190f35b610248600480360360408110156103fe57600080fd5b50803590602001356001600160a01b0316610c03565b6102826004803603602081101561042a57600080fd5b5035610c1b565b6101e3610f2e565b6102826004803603602081101561044f57600080fd5b5035610f33565b610282611128565b6101e36004803603602081101561047457600080fd5b5035611278565b6102826004803603604081101561049157600080fd5b50803590602001356001600160a01b031661128f565b6101e36112e8565b6101e3611498565b6103cc6114bc565b6000806104ca6114e0565b60400151905060006104db84611538565b6040908101516001600160a01b03861660009081526008602052919091206001015490915061053890610532670de0b6b3a764000061052c61051d8787611593565b6105268a610a4e565b906115f0565b90611649565b906116b0565b949350505050565b60015490565b7f000000000000000000000000000000000000000000000000000000000000000081565b60009081526003602052604090206002015490565b60006105ab7f000000000000000000000000000000000000000000000000000000000000000083610c03565b92915050565b6105e27f00000000000000000000000000000000000000000000000000000000000000006105dd61170a565b610c03565b61061d5760405162461bcd60e51b8152600401808060200182810382526034815260200180611f576034913960400191505060405180910390fd5b6001600160a01b0381166106625760405162461bcd60e51b815260040180806020018281038252603a81526020018061200c603a913960400191505060405180910390fd5b600554610699907f97667070c54ef182b0f5858b034beac1b6f3089aa2d3188bb1e8929f4fa9b929906001600160a01b031661128f565b6005805473ffffffffffffffffffffffffffffffffffffffff19166001600160a01b0383161790556106eb7f97667070c54ef182b0f5858b034beac1b6f3089aa2d3188bb1e8929f4fa9b92982610931565b50565b6106f661170e565b156107325760405162461bcd60e51b81526004018080602001828103825260268152602001806120966026913960400191505060405180910390fd5b61073a61172f565b156107765760405162461bcd60e51b81526004018080602001828103825260268152602001806120966026913960400191505060405180910390fd5b600061078861078361170a565b610a4e565b116107c45760405162461bcd60e51b81526004018080602001828103825260268152602001806120466026913960400191505060405180910390fd5b6107cc61170a565b6001600160a01b0381161561084c576001600160a01b0381166000908152600860209081526040918290208251808401909352805483526001015490820152610814826104bf565b60208201526108216109f9565b81526001600160a01b0382166000908152600860209081526040909120825181559101516001909101555b600082116108a1576040805162461bcd60e51b815260206004820152601c60248201527f426f617264726f6f6d3a2043616e6e6f74207769746864726177203000000000604482015290519081900360640190fd5b6108aa82611750565b6108b261170a565b6001600160a01b03167f7084f5476618d8e60b11ef0d7d3f06914655adb8793e28ff7f018d4c76d505d5836040518082815260200191505060405180910390a250504360009081526006602090815260408083203284529091528082208054600160ff1991821681179092553384529190922080549091169091179055565b60008281526003602052604090206002015461094f906105dd61170a565b61098a5760405162461bcd60e51b815260040180806020018281038252602f815260200180611eba602f913960400191505060405180910390fd5b61099482826117d4565b5050565b6109a061170a565b6001600160a01b0316816001600160a01b0316146109ef5760405162461bcd60e51b815260040180806020018281038252602f8152602001806120bc602f913960400191505060405180910390fd5b610994828261183d565b600954600090610a0a906001611593565b905090565b6000610a196114e0565b60400151905090565b60006105ab7f97667070c54ef182b0f5858b034beac1b6f3089aa2d3188bb1e8929f4fa9b92983610c03565b6001600160a01b031660009081526002602052604090205490565b6001600160a01b031660009081526008602052604090205490565b610ab07f00000000000000000000000000000000000000000000000000000000000000006105dd61170a565b610aeb5760405162461bcd60e51b8152600401808060200182810382526034815260200180611f576034913960400191505060405180910390fd5b6001600160a01b038116610b305760405162461bcd60e51b815260040180806020018281038252603d815260200180611f1a603d913960400191505060405180910390fd5b610b5a7f000000000000000000000000000000000000000000000000000000000000000082610931565b600454610b91907f0000000000000000000000000000000000000000000000000000000000000000906001600160a01b031661128f565b6004805473ffffffffffffffffffffffffffffffffffffffff19166001600160a01b0392909216919091179055565b7fa49807205ce4d355092ef5a8a18f56e8913cf4a201fbe287825b095693c2177581565b6000828152600360205260408120610bfc90836118a6565b9392505050565b6000828152600360205260408120610bfc90836118b2565b610c2361170e565b15610c5f5760405162461bcd60e51b81526004018080602001828103825260268152602001806120966026913960400191505060405180910390fd5b610c6761172f565b15610ca35760405162461bcd60e51b81526004018080602001828103825260268152602001806120966026913960400191505060405180910390fd5b610ccf7f97667070c54ef182b0f5858b034beac1b6f3089aa2d3188bb1e8929f4fa9b9296105dd61170a565b610d0a5760405162461bcd60e51b8152600401808060200182810382526031815260200180611ee96031913960400191505060405180910390fd5b60008111610d5f576040805162461bcd60e51b815260206004820152601c60248201527f426f617264726f6f6d3a2043616e6e6f7420616c6c6f63617465203000000000604482015290519081900360640190fd5b6000610d69610540565b11610da55760405162461bcd60e51b8152600401808060200182810382526030815260200180611fbb6030913960400191505060405180910390fd5b6000610daf6114e0565b6040015190506000610dde610dd7610dc5610540565b61052c86670de0b6b3a76400006115f0565b83906116b0565b60408051606081018252438152602081018681529181018381526009805460018101825560009190915282517f6e1540171b6c0c960b71a7020d9f60077f6af931a8bbf590da0223dacf75c7af60039092029182015592517f6e1540171b6c0c960b71a7020d9f60077f6af931a8bbf590da0223dacf75c7b0840155517f6e1540171b6c0c960b71a7020d9f60077f6af931a8bbf590da0223dacf75c7b190920191909155909150610ea5610e9161170a565b6007546001600160a01b03169030876118c7565b610ead61170a565b6001600160a01b03167fac24935fd910bc682b5ccb1a07b718cadf8cf2f6d1404c4f3ddc3662dae40e29856040518082815260200191505060405180910390a250504360009081526006602090815260408083203284529091528082208054600160ff19918216811790925533845291909220805490911690911790555050565b600081565b610f3b61170e565b15610f775760405162461bcd60e51b81526004018080602001828103825260268152602001806120966026913960400191505060405180910390fd5b610f7f61172f565b15610fbb5760405162461bcd60e51b81526004018080602001828103825260268152602001806120966026913960400191505060405180910390fd5b610fc361170a565b6001600160a01b03811615611043576001600160a01b038116600090815260086020908152604091829020825180840190935280548352600101549082015261100b826104bf565b60208201526110186109f9565b81526001600160a01b0382166000908152600860209081526040909120825181559101516001909101555b60008211611098576040805162461bcd60e51b815260206004820152601960248201527f426f617264726f6f6d3a2043616e6e6f74207374616b65203000000000000000604482015290519081900360640190fd5b6110a18261193c565b6110a961170a565b6001600160a01b03167f9e71bc8eea02a63969f509818f2dafb9254532904319f9dbda79b67bd34a5f3d836040518082815260200191505060405180910390a250504360009081526006602090815260408083203284529091528082208054600160ff1991821681179092553384529190922080549091169091179055565b61113061170a565b6001600160a01b038116156111b0576001600160a01b0381166000908152600860209081526040918290208251808401909352805483526001015490820152611178826104bf565b60208201526111856109f9565b81526001600160a01b0382166000908152600860209081526040909120825181559101516001909101555b6000600860006111be61170a565b6001600160a01b0316815260208101919091526040016000206001015490508015610994576000600860006111f161170a565b6001600160a01b0316815260208101919091526040016000206001015561122c61121961170a565b6007546001600160a01b031690836119c1565b61123461170a565b6001600160a01b03167fe2403640ba68fed3a2f88b7557551d1993f84b99bb10ff833f0cf8db0c5e0486826040518082815260200191505060405180910390a25050565b60008181526003602052604081206105ab90611a2d565b6000828152600360205260409020600201546112ad906105dd61170a565b6109ef5760405162461bcd60e51b8152600401808060200182810382526030815260200180611f8b6030913960400191505060405180910390fd5b60006112f261170e565b1561132e5760405162461bcd60e51b81526004018080602001828103825260268152602001806120966026913960400191505060405180910390fd5b61133661172f565b156113725760405162461bcd60e51b81526004018080602001828103825260268152602001806120966026913960400191505060405180910390fd5b600061137f61078361170a565b116113bb5760405162461bcd60e51b81526004018080602001828103825260268152602001806120466026913960400191505060405180910390fd5b6113c361170a565b6001600160a01b03811615611443576001600160a01b038116600090815260086020908152604091829020825180840190935280548352600101549082015261140b826104bf565b60208201526114186109f9565b81526001600160a01b0382166000908152600860209081526040909120825181559101516001909101555b600061144d611a38565b9050611457611128565b4360009081526006602090815260408083203284529091528082208054600160ff199182168117909255338452919092208054909116909117905592915050565b7f97667070c54ef182b0f5858b034beac1b6f3089aa2d3188bb1e8929f4fa9b92981565b6000546001600160a01b031681565b6000610bfc836001600160a01b038416611a51565b6114e8611e76565b60096114f26109f9565b815481106114fc57fe5b90600052602060002090600302016040518060600160405290816000820154815260200160018201548152602001600282015481525050905090565b611540611e76565b600961154b83610a69565b8154811061155557fe5b906000526020600020906003020160405180606001604052908160008201548152602001600182015481526020016002820154815250509050919050565b6000828211156115ea576040805162461bcd60e51b815260206004820152601e60248201527f536166654d6174683a207375627472616374696f6e206f766572666c6f770000604482015290519081900360640190fd5b50900390565b6000826115ff575060006105ab565b8282028284828161160c57fe5b0414610bfc5760405162461bcd60e51b8152600401808060200182810382526021815260200180611feb6021913960400191505060405180910390fd5b600080821161169f576040805162461bcd60e51b815260206004820152601a60248201527f536166654d6174683a206469766973696f6e206279207a65726f000000000000604482015290519081900360640190fd5b8183816116a857fe5b049392505050565b600082820183811015610bfc576040805162461bcd60e51b815260206004820152601b60248201527f536166654d6174683a206164646974696f6e206f766572666c6f770000000000604482015290519081900360640190fd5b3390565b43600090815260066020908152604080832032845290915290205460ff1690565b43600090815260066020908152604080832033845290915290205460ff1690565b60015461175d9082611593565b600155611790816002600061177061170a565b6001600160a01b0316815260208101919091526040016000205490611593565b6002600061179c61170a565b6001600160a01b031681526020810191909152604001600020556106eb6117c161170a565b6000546001600160a01b031690836119c1565b60008281526003602052604090206117ec90826114cb565b15610994576117f961170a565b6001600160a01b0316816001600160a01b0316837f2f8788117e7eff1d82e926ec794901d17c78024a50270940304540a733656f0d60405160405180910390a45050565b60008281526003602052604090206118559082611a9b565b156109945761186261170a565b6001600160a01b0316816001600160a01b0316837ff6391f5c32d9c69d2a47ea670b442974b53935d1edc7fd64eb21e047a839171b60405160405180910390a45050565b6000610bfc8383611ab0565b6000610bfc836001600160a01b038416611b14565b604080516001600160a01b0380861660248301528416604482015260648082018490528251808303909101815260849091019091526020810180517bffffffffffffffffffffffffffffffffffffffffffffffffffffffff166323b872dd60e01b179052611936908590611b2c565b50505050565b60015461194990826116b0565b60015561197c816002600061195c61170a565b6001600160a01b03168152602081019190915260400160002054906116b0565b6002600061198861170a565b6001600160a01b031681526020810191909152604001600020556106eb6119ad61170a565b6000546001600160a01b03169030846118c7565b604080516001600160a01b038416602482015260448082018490528251808303909101815260649091019091526020810180517bffffffffffffffffffffffffffffffffffffffffffffffffffffffff1663a9059cbb60e01b179052611a28908490611b2c565b505050565b60006105ab82611bdd565b600080611a4661078361170a565b9050610a0a816106ee565b6000611a5d8383611b14565b611a93575081546001818101845560008481526020808220909301849055845484825282860190935260409020919091556105ab565b5060006105ab565b6000610bfc836001600160a01b038416611be1565b81546000908210611af25760405162461bcd60e51b8152600401808060200182810382526022815260200180611e986022913960400191505060405180910390fd5b826000018281548110611b0157fe5b9060005260206000200154905092915050565b60009081526001919091016020526040902054151590565b6000611b81826040518060400160405280602081526020017f5361666545524332303a206c6f772d6c6576656c2063616c6c206661696c6564815250856001600160a01b0316611ca79092919063ffffffff16565b805190915015611a2857808060200190516020811015611ba057600080fd5b5051611a285760405162461bcd60e51b815260040180806020018281038252602a81526020018061206c602a913960400191505060405180910390fd5b5490565b60008181526001830160205260408120548015611c9d5783546000198083019190810190600090879083908110611c1457fe5b9060005260206000200154905080876000018481548110611c3157fe5b600091825260208083209091019290925582815260018981019092526040902090840190558654879080611c6157fe5b600190038181906000526020600020016000905590558660010160008781526020019081526020016000206000905560019450505050506105ab565b60009150506105ab565b6060610538848460008585611cbb85611dcc565b611d0c576040805162461bcd60e51b815260206004820152601d60248201527f416464726573733a2063616c6c20746f206e6f6e2d636f6e7472616374000000604482015290519081900360640190fd5b600080866001600160a01b031685876040518082805190602001908083835b60208310611d4a5780518252601f199092019160209182019101611d2b565b6001836020036101000a03801982511681845116808217855250505050505090500191505060006040518083038185875af1925050503d8060008114611dac576040519150601f19603f3d011682016040523d82523d6000602084013e611db1565b606091505b5091509150611dc1828286611dd2565b979650505050505050565b3b151590565b60608315611de1575081610bfc565b825115611df15782518084602001fd5b8160405162461bcd60e51b81526004018080602001828103825283818151815260200191508051906020019080838360005b83811015611e3b578181015183820152602001611e23565b50505050905090810190601f168015611e685780820380516001836020036101000a031916815260200191505b509250505060405180910390fd5b6040518060600160405280600081526020016000815260200160008152509056fe456e756d657261626c655365743a20696e646578206f7574206f6620626f756e6473416363657373436f6e74726f6c3a2073656e646572206d75737420626520616e2061646d696e20746f206772616e744f70657261746f72416363657373436f6e74726f6c3a2073656e646572207265717569726573207065726d697373696f6e41646d696e416363657373436f6e74726f6c48656c7065723a207a65726f206164647265737320676976656e20666f72206e6577206f70657261746f7241646d696e416363657373436f6e74726f6c48656c7065723a2073656e646572207265717569726573207065726d697373696f6e416363657373436f6e74726f6c3a2073656e646572206d75737420626520616e2061646d696e20746f207265766f6b65426f617264726f6f6d3a2043616e6e6f7420616c6c6f63617465207768656e20746f74616c537570706c792069732030536166654d6174683a206d756c7469706c69636174696f6e206f766572666c6f774f70657261746f72416363657373436f6e74726f6c3a207a65726f206164647265737320676976656e20666f72206e6577206f70657261746f72426f617264726f6f6d3a20546865206469726563746f7220646f6573206e6f742065786973745361666545524332303a204552433230206f7065726174696f6e20646964206e6f742073756363656564436f6e747261637447756172643a206f6e6520626c6f636b2c206f6e652066756e6374696f6e416363657373436f6e74726f6c3a2063616e206f6e6c792072656e6f756e636520726f6c657320666f722073656c66a164736f6c6343000706000a97667070c54ef182b0f5858b034beac1b6f3089aa2d3188bb1e8929f4fa9b929a49807205ce4d355092ef5a8a18f56e8913cf4a201fbe287825b095693c21775",
  "devdoc": {
    "kind": "dev",
    "methods": {
      "balanceOf(address)": {
        "params": {
          "account": "Account for which the balance is requested"
        }
      },
      "exit()": {
        "returns": {
          "_0": "The amount of LP tokens withdrawn"
        }
      },
      "getRoleAdmin(bytes32)": {
        "details": "Returns the admin role that controls `role`. See {grantRole} and {revokeRole}. To change a role's admin, use {_setRoleAdmin}."
      },
      "getRoleMember(bytes32,uint256)": {
        "details": "Returns one of the accounts that have `role`. `index` must be a value between 0 and {getRoleMemberCount}, non-inclusive. Role bearers are not sorted in any particular way, and their ordering may change at any point. WARNING: When using {getRoleMember} and {getRoleMemberCount}, make sure you perform all queries on the same block. See the following https://forum.openzeppelin.com/t/iterating-over-elements-on-enumerableset-in-openzeppelin-contracts/2296[forum post] for more information."
      },
      "getRoleMemberCount(bytes32)": {
        "details": "Returns the number of accounts that have `role`. Can be used together with {getRoleMember} to enumerate all bearers of a role."
      },
      "grantRole(bytes32,address)": {
        "details": "Grants `role` to `account`. If `account` had not been already granted `role`, emits a {RoleGranted} event. Requirements: - the caller must have ``role``'s admin role."
      },
      "hasRole(bytes32,address)": {
        "details": "Returns `true` if `account` has been granted `role`."
      },
      "renounceRole(bytes32,address)": {
        "details": "Revokes `role` from the calling account. Roles are often managed via {grantRole} and {revokeRole}: this function's purpose is to provide a mechanism for accounts to lose their privileges if they are compromised (such as when a trusted device is misplaced). If the calling account had been granted `role`, emits a {RoleRevoked} event. Requirements: - the caller must be `account`."
      },
      "revokeRole(bytes32,address)": {
        "details": "Revokes `role` from `account`. If `account` had been granted `role`, emits a {RoleRevoked} event. Requirements: - the caller must have ``role``'s admin role."
      },
      "stake(uint256)": {
        "params": {
          "amount": "Amount of LP tokens to stake"
        }
      },
      "withdraw(uint256)": {
        "params": {
          "amount": "Amount of LP tokens to be withdrawn"
        }
      }
    },
    "version": 1
  },
  "userdoc": {
    "kind": "user",
    "methods": {
      "balanceOf(address)": {
        "notice": "Returns the current balance of the given account"
      },
      "exit()": {
        "notice": "Exiting for the message sender. It performs a withdraw of all the staked tokens. The caller will receive the LP tokens to be withdrawn This method can only be called by the contract operator"
      },
      "stake(uint256)": {
        "notice": "Staking for the message sender. The caller holds the LP tokens to be staked This method can only be called by the contract operator"
      },
      "totalSupply()": {
        "notice": "Returns the total supply of LP tokens staked in the contract"
      },
      "withdraw(uint256)": {
        "notice": "Withdrawal for the message sender The caller will receive the LP tokens to be withdrawn This method can only be called by the contract operator"
      }
    },
    "notice": "Baordroom contract where the share holders can stake their _token Shares in exchange of rewards in _token Tokens",
    "version": 1
  },
  "storageLayout": {
    "storage": [
      {
        "astId": 6761,
        "contract": "contracts/governance/Boardroom.sol:Boardroom",
        "label": "token",
        "offset": 0,
        "slot": "0",
        "type": "t_contract(IERC20)2146"
      },
      {
        "astId": 6763,
        "contract": "contracts/governance/Boardroom.sol:Boardroom",
        "label": "_totalSupply",
        "offset": 0,
        "slot": "1",
        "type": "t_uint256"
      },
      {
        "astId": 6767,
        "contract": "contracts/governance/Boardroom.sol:Boardroom",
        "label": "_balances",
        "offset": 0,
        "slot": "2",
        "type": "t_mapping(t_address,t_uint256)"
      },
      {
        "astId": 22,
        "contract": "contracts/governance/Boardroom.sol:Boardroom",
        "label": "_roles",
        "offset": 0,
        "slot": "3",
        "type": "t_mapping(t_bytes32,t_struct(RoleData)18_storage)"
      },
      {
        "astId": 5142,
        "contract": "contracts/governance/Boardroom.sol:Boardroom",
        "label": "_admin",
        "offset": 0,
        "slot": "4",
        "type": "t_address"
      },
      {
        "astId": 5279,
        "contract": "contracts/governance/Boardroom.sol:Boardroom",
        "label": "_operator",
        "offset": 0,
        "slot": "5",
        "type": "t_address"
      },
      {
        "astId": 9942,
        "contract": "contracts/governance/Boardroom.sol:Boardroom",
        "label": "_status",
        "offset": 0,
        "slot": "6",
        "type": "t_mapping(t_uint256,t_mapping(t_address,t_bool))"
      },
      {
        "astId": 7091,
        "contract": "contracts/governance/Boardroom.sol:Boardroom",
        "label": "_token",
        "offset": 0,
        "slot": "7",
        "type": "t_contract(IERC20)2146"
      },
      {
        "astId": 7095,
        "contract": "contracts/governance/Boardroom.sol:Boardroom",
        "label": "directors",
        "offset": 0,
        "slot": "8",
        "type": "t_mapping(t_address,t_struct(Boardseat)7082_storage)"
      },
      {
        "astId": 7098,
        "contract": "contracts/governance/Boardroom.sol:Boardroom",
        "label": "boardHistory",
        "offset": 0,
        "slot": "9",
        "type": "t_array(t_struct(BoardSnapshot)7089_storage)dyn_storage"
      }
    ],
    "types": {
      "t_address": {
        "encoding": "inplace",
        "label": "address",
        "numberOfBytes": "20"
      },
      "t_array(t_bytes32)dyn_storage": {
        "base": "t_bytes32",
        "encoding": "dynamic_array",
        "label": "bytes32[]",
        "numberOfBytes": "32"
      },
      "t_array(t_struct(BoardSnapshot)7089_storage)dyn_storage": {
        "base": "t_struct(BoardSnapshot)7089_storage",
        "encoding": "dynamic_array",
        "label": "struct Boardroom.BoardSnapshot[]",
        "numberOfBytes": "32"
      },
      "t_bool": {
        "encoding": "inplace",
        "label": "bool",
        "numberOfBytes": "1"
      },
      "t_bytes32": {
        "encoding": "inplace",
        "label": "bytes32",
        "numberOfBytes": "32"
      },
      "t_contract(IERC20)2146": {
        "encoding": "inplace",
        "label": "contract IERC20",
        "numberOfBytes": "20"
      },
      "t_mapping(t_address,t_bool)": {
        "encoding": "mapping",
        "key": "t_address",
        "label": "mapping(address => bool)",
        "numberOfBytes": "32",
        "value": "t_bool"
      },
      "t_mapping(t_address,t_struct(Boardseat)7082_storage)": {
        "encoding": "mapping",
        "key": "t_address",
        "label": "mapping(address => struct Boardroom.Boardseat)",
        "numberOfBytes": "32",
        "value": "t_struct(Boardseat)7082_storage"
      },
      "t_mapping(t_address,t_uint256)": {
        "encoding": "mapping",
        "key": "t_address",
        "label": "mapping(address => uint256)",
        "numberOfBytes": "32",
        "value": "t_uint256"
      },
      "t_mapping(t_bytes32,t_struct(RoleData)18_storage)": {
        "encoding": "mapping",
        "key": "t_bytes32",
        "label": "mapping(bytes32 => struct AccessControl.RoleData)",
        "numberOfBytes": "32",
        "value": "t_struct(RoleData)18_storage"
      },
      "t_mapping(t_bytes32,t_uint256)": {
        "encoding": "mapping",
        "key": "t_bytes32",
        "label": "mapping(bytes32 => uint256)",
        "numberOfBytes": "32",
        "value": "t_uint256"
      },
      "t_mapping(t_uint256,t_mapping(t_address,t_bool))": {
        "encoding": "mapping",
        "key": "t_uint256",
        "label": "mapping(uint256 => mapping(address => bool))",
        "numberOfBytes": "32",
        "value": "t_mapping(t_address,t_bool)"
      },
      "t_struct(AddressSet)3146_storage": {
        "encoding": "inplace",
        "label": "struct EnumerableSet.AddressSet",
        "members": [
          {
            "astId": 3145,
            "contract": "contracts/governance/Boardroom.sol:Boardroom",
            "label": "_inner",
            "offset": 0,
            "slot": "0",
            "type": "t_struct(Set)2881_storage"
          }
        ],
        "numberOfBytes": "64"
      },
      "t_struct(BoardSnapshot)7089_storage": {
        "encoding": "inplace",
        "label": "struct Boardroom.BoardSnapshot",
        "members": [
          {
            "astId": 7084,
            "contract": "contracts/governance/Boardroom.sol:Boardroom",
            "label": "time",
            "offset": 0,
            "slot": "0",
            "type": "t_uint256"
          },
          {
            "astId": 7086,
            "contract": "contracts/governance/Boardroom.sol:Boardroom",
            "label": "rewardReceived",
            "offset": 0,
            "slot": "1",
            "type": "t_uint256"
          },
          {
            "astId": 7088,
            "contract": "contracts/governance/Boardroom.sol:Boardroom",
            "label": "rewardPerShare",
            "offset": 0,
            "slot": "2",
            "type": "t_uint256"
          }
        ],
        "numberOfBytes": "96"
      },
      "t_struct(Boardseat)7082_storage": {
        "encoding": "inplace",
        "label": "struct Boardroom.Boardseat",
        "members": [
          {
            "astId": 7079,
            "contract": "contracts/governance/Boardroom.sol:Boardroom",
            "label": "lastSnapshotIndex",
            "offset": 0,
            "slot": "0",
            "type": "t_uint256"
          },
          {
            "astId": 7081,
            "contract": "contracts/governance/Boardroom.sol:Boardroom",
            "label": "rewardEarned",
            "offset": 0,
            "slot": "1",
            "type": "t_uint256"
          }
        ],
        "numberOfBytes": "64"
      },
      "t_struct(RoleData)18_storage": {
        "encoding": "inplace",
        "label": "struct AccessControl.RoleData",
        "members": [
          {
            "astId": 15,
            "contract": "contracts/governance/Boardroom.sol:Boardroom",
            "label": "members",
            "offset": 0,
            "slot": "0",
            "type": "t_struct(AddressSet)3146_storage"
          },
          {
            "astId": 17,
            "contract": "contracts/governance/Boardroom.sol:Boardroom",
            "label": "adminRole",
            "offset": 0,
            "slot": "2",
            "type": "t_bytes32"
          }
        ],
        "numberOfBytes": "96"
      },
      "t_struct(Set)2881_storage": {
        "encoding": "inplace",
        "label": "struct EnumerableSet.Set",
        "members": [
          {
            "astId": 2876,
            "contract": "contracts/governance/Boardroom.sol:Boardroom",
            "label": "_values",
            "offset": 0,
            "slot": "0",
            "type": "t_array(t_bytes32)dyn_storage"
          },
          {
            "astId": 2880,
            "contract": "contracts/governance/Boardroom.sol:Boardroom",
            "label": "_indexes",
            "offset": 0,
            "slot": "1",
            "type": "t_mapping(t_bytes32,t_uint256)"
          }
        ],
        "numberOfBytes": "64"
      },
      "t_uint256": {
        "encoding": "inplace",
        "label": "uint256",
        "numberOfBytes": "32"
      }
    }
  }
}