{
  "address": "0x192aA52e6aaB4B83Ea87b05E943577f30aa3b9c7",
  "abi": [
    {
      "inputs": [
        {
          "internalType": "contract IERC20",
          "name": "token0_",
          "type": "address"
        },
        {
          "internalType": "contract IERC20",
          "name": "token1_",
          "type": "address"
        },
        {
          "internalType": "int24",
          "name": "tickLower_",
          "type": "int24"
        },
        {
          "internalType": "int24",
          "name": "tickUpper_",
          "type": "int24"
        },
        {
          "internalType": "uint24",
          "name": "fee_",
          "type": "uint24"
        },
        {
          "internalType": "contract INonfungiblePositionManager",
          "name": "positionManager_",
          "type": "address"
        },
        {
          "internalType": "contract IUniswapV3Staker",
          "name": "poolStaker_",
          "type": "address"
        },
        {
          "internalType": "contract IPoolStakerV3WithRewards",
          "name": "stakerHelper_",
          "type": "address"
        }
      ],
      "stateMutability": "nonpayable",
      "type": "constructor"
    },
    {
      "inputs": [
        {
          "internalType": "uint256",
          "name": "amount0Desired",
          "type": "uint256"
        },
        {
          "internalType": "uint256",
          "name": "amount1Desired",
          "type": "uint256"
        },
        {
          "internalType": "uint256",
          "name": "amount0Min",
          "type": "uint256"
        },
        {
          "internalType": "uint256",
          "name": "amount1Min",
          "type": "uint256"
        },
        {
          "internalType": "uint256",
          "name": "deadline",
          "type": "uint256"
        }
      ],
      "name": "addLiquidityAndStake",
      "outputs": [],
      "stateMutability": "nonpayable",
      "type": "function"
    },
    {
      "inputs": [
        {
          "internalType": "address",
          "name": "owner",
          "type": "address"
        }
      ],
      "name": "balanceOf",
      "outputs": [
        {
          "internalType": "uint256",
          "name": "",
          "type": "uint256"
        }
      ],
      "stateMutability": "view",
      "type": "function"
    },
    {
      "inputs": [],
      "name": "fee",
      "outputs": [
        {
          "internalType": "uint24",
          "name": "",
          "type": "uint24"
        }
      ],
      "stateMutability": "view",
      "type": "function"
    },
    {
      "inputs": [],
      "name": "getTotalStakedLiquidity",
      "outputs": [
        {
          "internalType": "uint256",
          "name": "",
          "type": "uint256"
        }
      ],
      "stateMutability": "view",
      "type": "function"
    },
    {
      "inputs": [
        {
          "internalType": "address",
          "name": "",
          "type": "address"
        },
        {
          "internalType": "address",
          "name": "",
          "type": "address"
        },
        {
          "internalType": "uint256",
          "name": "",
          "type": "uint256"
        },
        {
          "internalType": "bytes",
          "name": "",
          "type": "bytes"
        }
      ],
      "name": "onERC721Received",
      "outputs": [
        {
          "internalType": "bytes4",
          "name": "",
          "type": "bytes4"
        }
      ],
      "stateMutability": "pure",
      "type": "function"
    },
    {
      "inputs": [],
      "name": "poolStaker",
      "outputs": [
        {
          "internalType": "contract IUniswapV3Staker",
          "name": "",
          "type": "address"
        }
      ],
      "stateMutability": "view",
      "type": "function"
    },
    {
      "inputs": [],
      "name": "positionManager",
      "outputs": [
        {
          "internalType": "contract INonfungiblePositionManager",
          "name": "",
          "type": "address"
        }
      ],
      "stateMutability": "view",
      "type": "function"
    },
    {
      "inputs": [],
      "name": "stakerHelper",
      "outputs": [
        {
          "internalType": "contract IPoolStakerV3WithRewards",
          "name": "",
          "type": "address"
        }
      ],
      "stateMutability": "view",
      "type": "function"
    },
    {
      "inputs": [],
      "name": "tickLower",
      "outputs": [
        {
          "internalType": "int24",
          "name": "",
          "type": "int24"
        }
      ],
      "stateMutability": "view",
      "type": "function"
    },
    {
      "inputs": [],
      "name": "tickUpper",
      "outputs": [
        {
          "internalType": "int24",
          "name": "",
          "type": "int24"
        }
      ],
      "stateMutability": "view",
      "type": "function"
    },
    {
      "inputs": [],
      "name": "token0",
      "outputs": [
        {
          "internalType": "contract IERC20",
          "name": "",
          "type": "address"
        }
      ],
      "stateMutability": "view",
      "type": "function"
    },
    {
      "inputs": [],
      "name": "token1",
      "outputs": [
        {
          "internalType": "contract IERC20",
          "name": "",
          "type": "address"
        }
      ],
      "stateMutability": "view",
      "type": "function"
    },
    {
      "inputs": [
        {
          "internalType": "address",
          "name": "owner",
          "type": "address"
        },
        {
          "internalType": "uint256",
          "name": "index",
          "type": "uint256"
        }
      ],
      "name": "tokenOfOwnerByIndex",
      "outputs": [
        {
          "internalType": "uint256",
          "name": "",
          "type": "uint256"
        }
      ],
      "stateMutability": "view",
      "type": "function"
    },
    {
      "inputs": [
        {
          "internalType": "uint256",
          "name": "tokenId",
          "type": "uint256"
        },
        {
          "internalType": "uint256",
          "name": "deadline",
          "type": "uint256"
        }
      ],
      "name": "withdrawAndRemoveLiquidity",
      "outputs": [],
      "stateMutability": "nonpayable",
      "type": "function"
    }
  ],
  "transactionHash": "0x2c86ca4a294756781db452b72ada301931dac4cdf2617e0f9cb5dcea69078e4f",
  "args": [
    "0x8fae44D3A61FE646DF2244839822939E8147431b",
    "0xbc0cc47317A6b00BA61F5Fb6Cf23f4E072313B10",
    -1080,
    960,
    3000,
    "0xC36442b4a4522E871399CD717aBDD847Ab11FE88",
    "0x1f98407aaB862CdDeF78Ed252D6f557aA5b0f00d",
    "0x58354203B482Aef87198bdafD9D3C15DadC8941a"
  ],
  "solcInputHash": "7e43bdcff6e907c345057c88f4245ad4",
  "bytecode": "0x60806040523480156200001157600080fd5b5060405162001a9838038062001a9883398181016040526101008110156200003857600080fd5b810190808051906020019092919080519060200190929190805190602001909291908051906020019092919080519060200190929190805190602001909291908051906020019092919080519060200190929190505050878787878787878787600460006101000a8154816001600160a01b0302191690836001600160a01b0316021790555086600560006101000a8154816001600160a01b0302191690836001600160a01b03160217905550836005601a6101000a81548162ffffff021916908362ffffff16021790555082600660006101000a8154816001600160a01b0302191690836001600160a01b0316021790555081600760006101000a8154816001600160a01b0302191690836001600160a01b0316021790555080600860006101000a8154816001600160a01b0302191690836001600160a01b0316021790555085600560146101000a81548162ffffff021916908360020b62ffffff16021790555084600560176101000a81548162ffffff021916908360020b62ffffff160217905550600460009054906101000a90046001600160a01b03166001600160a01b031663095ea7b3600660009054906101000a90046001600160a01b03166000196040518363ffffffff1660e01b81526004016200021992919062000340565b602060405180830381600087803b1580156200023457600080fd5b505af115801562000249573d6000803e3d6000fd5b505050506040513d601f19601f820116820180604052508101906200026f919062000317565b5060055460065460405163095ea7b360e01b81526001600160a01b039283169263095ea7b392620002aa929116906000199060040162000340565b602060405180830381600087803b158015620002c557600080fd5b505af1158015620002da573d6000803e3d6000fd5b505050506040513d601f19601f8201168201806040525081019062000300919062000317565b505050505050505050505050505050505062000359565b60006020828403121562000329578081fd5b8151801515811462000339578182fd5b9392505050565b6001600160a01b03929092168252602082015260400190565b61172f80620003696000396000f3fe608060405234801561001057600080fd5b50600436106100ea5760003560e01c80635b3d55151161008c5780639d225203116100665780639d225203146102cd578063d21220a7146102d5578063ddca3f43146102dd578063f32a5d56146102fd576100ea565b80635b3d55151461027c57806370a082311461029f578063791b98bc146102c5576100ea565b806350f20b58116100c857806350f20b581461021657806355b812a81461024d5780635820022f1461026c57806359c4f90514610274576100ea565b80630dfe1681146100ef578063150b7a02146101135780632f745c59146101d8575b600080fd5b6100f7610305565b604080516001600160a01b039092168252519081900360200190f35b6101a36004803603608081101561012957600080fd5b6001600160a01b0382358116926020810135909116916040820135919081019060808101606082013564010000000081111561016457600080fd5b82018360208201111561017657600080fd5b8035906020019184600183028401116401000000008311171561019857600080fd5b509092509050610314565b604080517fffffffff000000000000000000000000000000000000000000000000000000009092168252519081900360200190f35b610204600480360360408110156101ee57600080fd5b506001600160a01b038135169060200135610325565b60408051918252519081900360200190f35b61024b600480360360a081101561022c57600080fd5b5080359060208101359060408101359060608101359060800135610396565b005b610255610679565b6040805160029290920b8252519081900360200190f35b6100f7610689565b610255610698565b61024b6004803603604081101561029257600080fd5b50803590602001356106a8565b610204600480360360208110156102b557600080fd5b50356001600160a01b03166107e9565b6100f7610850565b6100f761085f565b6100f761086e565b6102e561087d565b6040805162ffffff9092168252519081900360200190f35b61020461088f565b6004546001600160a01b031681565b630a85bd0160e11b95945050505050565b6000610330836107e9565b821061036d5760405162461bcd60e51b815260040180806020018281038252602b815260200180611652602b913960400191505060405180910390fd5b506001600160a01b03919091166000908152600260209081526040808320938352929052205490565b60006103a06108e1565b60a0810187905260c0810186905260e08101859052610100810184905230610120820152610140810183905290506103ed6103d9610940565b6004546001600160a01b0316903089610944565b61040c6103f8610940565b6005546001600160a01b0316903088610944565b600654604051634418b22b60e11b81526000918291829182916001600160a01b0390911690638831645690610445908890600401611583565b608060405180830381600087803b15801561045f57600080fd5b505af1158015610473573d6000803e3d6000fd5b505050506040513d601f19601f8201168201806040525081019061049791906112c5565b93509350935093506104b06104aa610940565b856109b9565b6104b984610a27565b6000836001600160801b0316116104eb5760405162461bcd60e51b81526004016104e2906114a0565b60405180910390fd5b898214610512576105126104fd610940565b6004546001600160a01b031690848d03610a6b565b88811461053957610539610524610940565b6005546001600160a01b031690838c03610a6b565b600654600754604051632142170760e11b81526001600160a01b03928316926342842e0e92610572923092909116908990600401611438565b600060405180830381600087803b15801561058c57600080fd5b505af11580156105a0573d6000803e3d6000fd5b50506007546008546040516309affb8160e21b81526001600160a01b0392831694506326bfee0493506105d9928992169060040161163a565b600060405180830381600087803b1580156105f357600080fd5b505af1158015610607573d6000803e3d6000fd5b505060085460405163cda6b84760e01b81526001600160a01b03909116925063cda6b847915061063b908790600401611631565b600060405180830381600087803b15801561065557600080fd5b505af1158015610669573d6000803e3d6000fd5b5050505050505050505050505050565b600554600160b81b900460020b81565b6008546001600160a01b031681565b600554600160a01b900460020b81565b6106b96106b3610940565b83610ad7565b6106d55760405162461bcd60e51b81526004016104e29061145c565b6106e66106e0610940565b83610b3e565b6106ef82610c0c565b6008546001600160a01b031663ef693bed610708610940565b846040518363ffffffff1660e01b815260040161072692919061141f565b602060405180830381600087803b15801561074057600080fd5b505af1158015610754573d6000803e3d6000fd5b505050506040513d601f19601f8201168201806040525081019061077891906112ad565b506107838282610c9f565b600654604051630852cd8d60e31b81526001600160a01b03909116906342966c68906107b3908590600401611631565b600060405180830381600087803b1580156107cd57600080fd5b505af11580156107e1573d6000803e3d6000fd5b505050505050565b60006001600160a01b0382166108305760405162461bcd60e51b815260040180806020018281038252602a8152602001806116cf602a913960400191505060405180910390fd5b506001600160a01b0381166000908152600160205260409020545b919050565b6006546001600160a01b031681565b6007546001600160a01b031681565b6005546001600160a01b031681565b600554600160d01b900462ffffff1681565b600080805b600a548110156108db576108d16108c1600a83815481106108b157fe5b9060005260206000200154610e1f565b83906001600160801b0316610eb3565b9150600101610894565b50905090565b6108e96111fe565b6004546001600160a01b039081168252600554908116602083015262ffffff600160d01b8204166040830152600160a01b8104600290810b810b810b6060840152600160b81b909104810b810b900b608082015290565b3390565b604080516001600160a01b0380861660248301528416604482015260648082018490528251808303909101815260849091019091526020810180517bffffffffffffffffffffffffffffffffffffffffffffffffffffffff166323b872dd60e01b1790526109b3908590610f14565b50505050565b6001600160a01b0390911660008181526001602081815260408084208054600284528286208187528452828620889055878652600384528286205580549093019092559382529281905291909120805473ffffffffffffffffffffffffffffffffffffffff19169091179055565b600a80546000838152600960205260408120829055600182018355919091527fc65a7bb8d6351c1cf70c95a316cc6a92839c986682d98bc35f958f4883f9d2a80155565b604080516001600160a01b038416602482015260448082018490528251808303909101815260649091019091526020810180517bffffffffffffffffffffffffffffffffffffffffffffffffffffffff1663a9059cbb60e01b179052610ad2908490610f14565b505050565b6000610ae282610fc5565b610b1d5760405162461bcd60e51b815260040180806020018281038252602c8152602001806116a3602c913960400191505060405180910390fd5b506000908152602081905260409020546001600160a01b0390811691161490565b60006001610b4b846107e9565b6000848152600360205260409020549190039150808214610ba0576001600160a01b03841660009081526002602090815260408083208584528252808320548484528184208190558352600390915290208190555b5060008281526003602090815260408083208390556001600160a01b039095168083526002825285832093835292815284822082905591815260018252838120805460001901905591825281905220805473ffffffffffffffffffffffffffffffffffffffff19169055565b600081815260096020526040902054600a5460001901811015610c7a57600a8054600091906000198101908110610c3f57fe5b9060005260206000200154905080600a8381548110610c5a57fe5b600091825260208083209091019290925591825260099052604090208190555b600a805480610c8557fe5b600190038181906000526020600020016000905590555050565b6000610caa83610e1f565b6040805160a0810182528581526001600160801b038316602082015260008183018190526060820152608081018590526006549151630624e65f60e11b8152929350916001600160a01b0390911690630c49ccbe90610d0d908490600401611540565b6040805180830381600087803b158015610d2657600080fd5b505af1158015610d3a573d6000803e3d6000fd5b505050506040513d601f19601f82011682018060405250810190610d5e9190611300565b505060006040518060800160405280868152602001610d7b610940565b6001600160a01b0390811682526001600160801b0360208301819052604092830152600654915163fc6f786560e01b8152929350169063fc6f786590610dc59084906004016114fd565b6040805180830381600087803b158015610dde57600080fd5b505af1158015610df2573d6000803e3d6000fd5b505050506040513d601f19601f82011682018060405250810190610e169190611300565b50505050505050565b60065460405163133f757160e31b81526000916001600160a01b0316906399fbab8890610e50908590600401611631565b6101806040518083038186803b158015610e6957600080fd5b505afa158015610e7d573d6000803e3d6000fd5b505050506040513d601f19601f82011682018060405250810190610ea19190611323565b50929c9b505050505050505050505050565b600082820183811015610f0d576040805162461bcd60e51b815260206004820152601b60248201527f536166654d6174683a206164646974696f6e206f766572666c6f770000000000604482015290519081900360640190fd5b9392505050565b6000610f69826040518060400160405280602081526020017f5361666545524332303a206c6f772d6c6576656c2063616c6c206661696c6564815250856001600160a01b0316610fe29092919063ffffffff16565b805190915015610ad257808060200190516020811015610f8857600080fd5b5051610ad25760405162461bcd60e51b815260040180806020018281038252602a8152602001806116f9602a913960400191505060405180910390fd5b6000908152602081905260409020546001600160a01b0316151590565b6060610ff18484600085610ff9565b949350505050565b60608247101561103a5760405162461bcd60e51b815260040180806020018281038252602681526020018061167d6026913960400191505060405180910390fd5b61104385611154565b611094576040805162461bcd60e51b815260206004820152601d60248201527f416464726573733a2063616c6c20746f206e6f6e2d636f6e7472616374000000604482015290519081900360640190fd5b600080866001600160a01b031685876040518082805190602001908083835b602083106110d25780518252601f1990920191602091820191016110b3565b6001836020036101000a03801982511681845116808217855250505050505090500191505060006040518083038185875af1925050503d8060008114611134576040519150601f19603f3d011682016040523d82523d6000602084013e611139565b606091505b509150915061114982828661115a565b979650505050505050565b3b151590565b60608315611169575081610f0d565b8251156111795782518084602001fd5b8160405162461bcd60e51b81526004018080602001828103825283818151815260200191508051906020019080838360005b838110156111c35781810151838201526020016111ab565b50505050905090810190601f1680156111f05780820380516001836020036101000a031916815260200191505b509250505060405180910390fd5b6040805161016081018252600080825260208201819052918101829052606081018290526080810182905260a0810182905260c0810182905260e081018290526101008101829052610120810182905261014081019190915290565b80516001600160a01b038116811461084b57600080fd5b8051600281900b811461084b57600080fd5b80516001600160801b038116811461084b57600080fd5b805162ffffff8116811461084b57600080fd5b6000602082840312156112be578081fd5b5051919050565b600080600080608085870312156112da578283fd5b845193506112ea60208601611283565b6040860151606090960151949790965092505050565b60008060408385031215611312578182fd5b505080516020909101519092909150565b6000806000806000806000806000806000806101808d8f031215611345578788fd5b8c516bffffffffffffffffffffffff81168114611360578889fd5b9b5061136e60208e0161125a565b9a5061137c60408e0161125a565b995061138a60608e0161125a565b985061139860808e0161129a565b97506113a660a08e01611271565b96506113b460c08e01611271565b95506113c260e08e01611283565b94506101008d015193506101208d015192506113e16101408e01611283565b91506113f06101608e01611283565b90509295989b509295989b509295989b565b6001600160a01b03169052565b60020b9052565b62ffffff169052565b6001600160a01b03929092168252602082015260400190565b6001600160a01b039384168152919092166020820152604081019190915260600190565b60208082526024908201527f5370656e646572206973206e6f74206f776e6572206f6620455243373231207460408201526337b5b2b760e11b606082015260800190565b6020808252602a908201527f52656365697665642030206c69717569646974792066726f6d20706f7369746960408201527f6f6e206d616e6167657200000000000000000000000000000000000000000000606082015260800190565b815181526020808301516001600160a01b0316908201526040808301516001600160801b0390811691830191909152606092830151169181019190915260800190565b600060a082019050825182526001600160801b03602084015116602083015260408301516040830152606083015160608301526080830151608083015292915050565b600061016082019050611597828451611402565b60208301516115a96020840182611402565b5060408301516115bc6040840182611416565b5060608301516115cf606084018261140f565b5060808301516115e2608084018261140f565b5060a083015160a083015260c083015160c083015260e083015160e08301526101008084015181840152506101208084015161162082850182611402565b505061014092830151919092015290565b90815260200190565b9182526001600160a01b031660208201526040019056fe455243373231456e756d657261626c653a206f776e657220696e646578206f7574206f6620626f756e6473416464726573733a20696e73756666696369656e742062616c616e636520666f722063616c6c4552433732313a206f70657261746f7220717565727920666f72206e6f6e6578697374656e7420746f6b656e4552433732313a2062616c616e636520717565727920666f7220746865207a65726f20616464726573735361666545524332303a204552433230206f7065726174696f6e20646964206e6f742073756363656564a164736f6c6343000706000a",
  "devdoc": {
    "kind": "dev",
    "methods": {
      "balanceOf(address)": {
        "details": "See {IERC721-balanceOf}."
      },
      "tokenOfOwnerByIndex(address,uint256)": {
        "details": "See {IERC721Enumerable-tokenOfOwnerByIndex}."
      }
    },
    "version": 1
  },
  "userdoc": {
    "kind": "user",
    "methods": {},
    "version": 1
  },
  "storageLayout": {
    "storage": [
      {
        "astId": 5556,
        "contract": "contracts/distribution/ETHANTPoolHelper.sol:ETHANTPoolHelper",
        "label": "_owners",
        "offset": 0,
        "slot": "0",
        "type": "t_mapping(t_uint256,t_address)"
      },
      {
        "astId": 5560,
        "contract": "contracts/distribution/ETHANTPoolHelper.sol:ETHANTPoolHelper",
        "label": "_balances",
        "offset": 0,
        "slot": "1",
        "type": "t_mapping(t_address,t_uint256)"
      },
      {
        "astId": 5566,
        "contract": "contracts/distribution/ETHANTPoolHelper.sol:ETHANTPoolHelper",
        "label": "_ownedTokens",
        "offset": 0,
        "slot": "2",
        "type": "t_mapping(t_address,t_mapping(t_uint256,t_uint256))"
      },
      {
        "astId": 5570,
        "contract": "contracts/distribution/ETHANTPoolHelper.sol:ETHANTPoolHelper",
        "label": "_ownedTokensIndex",
        "offset": 0,
        "slot": "3",
        "type": "t_mapping(t_uint256,t_uint256)"
      },
      {
        "astId": 5810,
        "contract": "contracts/distribution/ETHANTPoolHelper.sol:ETHANTPoolHelper",
        "label": "token0",
        "offset": 0,
        "slot": "4",
        "type": "t_contract(IERC20)2146"
      },
      {
        "astId": 5812,
        "contract": "contracts/distribution/ETHANTPoolHelper.sol:ETHANTPoolHelper",
        "label": "token1",
        "offset": 0,
        "slot": "5",
        "type": "t_contract(IERC20)2146"
      },
      {
        "astId": 5814,
        "contract": "contracts/distribution/ETHANTPoolHelper.sol:ETHANTPoolHelper",
        "label": "tickLower",
        "offset": 20,
        "slot": "5",
        "type": "t_int24"
      },
      {
        "astId": 5816,
        "contract": "contracts/distribution/ETHANTPoolHelper.sol:ETHANTPoolHelper",
        "label": "tickUpper",
        "offset": 23,
        "slot": "5",
        "type": "t_int24"
      },
      {
        "astId": 5818,
        "contract": "contracts/distribution/ETHANTPoolHelper.sol:ETHANTPoolHelper",
        "label": "fee",
        "offset": 26,
        "slot": "5",
        "type": "t_uint24"
      },
      {
        "astId": 5820,
        "contract": "contracts/distribution/ETHANTPoolHelper.sol:ETHANTPoolHelper",
        "label": "positionManager",
        "offset": 0,
        "slot": "6",
        "type": "t_contract(INonfungiblePositionManager)4739"
      },
      {
        "astId": 5822,
        "contract": "contracts/distribution/ETHANTPoolHelper.sol:ETHANTPoolHelper",
        "label": "poolStaker",
        "offset": 0,
        "slot": "7",
        "type": "t_contract(IUniswapV3Staker)5118"
      },
      {
        "astId": 5824,
        "contract": "contracts/distribution/ETHANTPoolHelper.sol:ETHANTPoolHelper",
        "label": "stakerHelper",
        "offset": 0,
        "slot": "8",
        "type": "t_contract(IPoolStakerV3WithRewards)6423"
      },
      {
        "astId": 5828,
        "contract": "contracts/distribution/ETHANTPoolHelper.sol:ETHANTPoolHelper",
        "label": "tokenIdIndex",
        "offset": 0,
        "slot": "9",
        "type": "t_mapping(t_uint256,t_uint256)"
      },
      {
        "astId": 5831,
        "contract": "contracts/distribution/ETHANTPoolHelper.sol:ETHANTPoolHelper",
        "label": "stakes",
        "offset": 0,
        "slot": "10",
        "type": "t_array(t_uint256)dyn_storage"
      }
    ],
    "types": {
      "t_address": {
        "encoding": "inplace",
        "label": "address",
        "numberOfBytes": "20"
      },
      "t_array(t_uint256)dyn_storage": {
        "base": "t_uint256",
        "encoding": "dynamic_array",
        "label": "uint256[]",
        "numberOfBytes": "32"
      },
      "t_contract(IERC20)2146": {
        "encoding": "inplace",
        "label": "contract IERC20",
        "numberOfBytes": "20"
      },
      "t_contract(INonfungiblePositionManager)4739": {
        "encoding": "inplace",
        "label": "contract INonfungiblePositionManager",
        "numberOfBytes": "20"
      },
      "t_contract(IPoolStakerV3WithRewards)6423": {
        "encoding": "inplace",
        "label": "contract IPoolStakerV3WithRewards",
        "numberOfBytes": "20"
      },
      "t_contract(IUniswapV3Staker)5118": {
        "encoding": "inplace",
        "label": "contract IUniswapV3Staker",
        "numberOfBytes": "20"
      },
      "t_int24": {
        "encoding": "inplace",
        "label": "int24",
        "numberOfBytes": "3"
      },
      "t_mapping(t_address,t_mapping(t_uint256,t_uint256))": {
        "encoding": "mapping",
        "key": "t_address",
        "label": "mapping(address => mapping(uint256 => uint256))",
        "numberOfBytes": "32",
        "value": "t_mapping(t_uint256,t_uint256)"
      },
      "t_mapping(t_address,t_uint256)": {
        "encoding": "mapping",
        "key": "t_address",
        "label": "mapping(address => uint256)",
        "numberOfBytes": "32",
        "value": "t_uint256"
      },
      "t_mapping(t_uint256,t_address)": {
        "encoding": "mapping",
        "key": "t_uint256",
        "label": "mapping(uint256 => address)",
        "numberOfBytes": "32",
        "value": "t_address"
      },
      "t_mapping(t_uint256,t_uint256)": {
        "encoding": "mapping",
        "key": "t_uint256",
        "label": "mapping(uint256 => uint256)",
        "numberOfBytes": "32",
        "value": "t_uint256"
      },
      "t_uint24": {
        "encoding": "inplace",
        "label": "uint24",
        "numberOfBytes": "3"
      },
      "t_uint256": {
        "encoding": "inplace",
        "label": "uint256",
        "numberOfBytes": "32"
      }
    }
  }
}