{
  "address": "0x1BE0B66B483F705DD5f6721B3cCd2792787Ed83A",
  "abi": [
    {
      "inputs": [
        {
          "internalType": "contract IUniswapV3Pool",
          "name": "_pool",
          "type": "address"
        },
        {
          "internalType": "uint256",
          "name": "_period",
          "type": "uint256"
        },
        {
          "internalType": "uint256",
          "name": "_startTime",
          "type": "uint256"
        },
        {
          "internalType": "contract IStdReference",
          "name": "_bandOracle",
          "type": "address"
        }
      ],
      "stateMutability": "nonpayable",
      "type": "constructor"
    },
    {
      "anonymous": false,
      "inputs": [
        {
          "indexed": true,
          "internalType": "bytes32",
          "name": "role",
          "type": "bytes32"
        },
        {
          "indexed": true,
          "internalType": "bytes32",
          "name": "previousAdminRole",
          "type": "bytes32"
        },
        {
          "indexed": true,
          "internalType": "bytes32",
          "name": "newAdminRole",
          "type": "bytes32"
        }
      ],
      "name": "RoleAdminChanged",
      "type": "event"
    },
    {
      "anonymous": false,
      "inputs": [
        {
          "indexed": true,
          "internalType": "bytes32",
          "name": "role",
          "type": "bytes32"
        },
        {
          "indexed": true,
          "internalType": "address",
          "name": "account",
          "type": "address"
        },
        {
          "indexed": true,
          "internalType": "address",
          "name": "sender",
          "type": "address"
        }
      ],
      "name": "RoleGranted",
      "type": "event"
    },
    {
      "anonymous": false,
      "inputs": [
        {
          "indexed": true,
          "internalType": "bytes32",
          "name": "role",
          "type": "bytes32"
        },
        {
          "indexed": true,
          "internalType": "address",
          "name": "account",
          "type": "address"
        },
        {
          "indexed": true,
          "internalType": "address",
          "name": "sender",
          "type": "address"
        }
      ],
      "name": "RoleRevoked",
      "type": "event"
    },
    {
      "anonymous": false,
      "inputs": [
        {
          "indexed": false,
          "internalType": "uint256",
          "name": "price0CumulativeLast",
          "type": "uint256"
        },
        {
          "indexed": false,
          "internalType": "uint256",
          "name": "price1CumulativeLast",
          "type": "uint256"
        }
      ],
      "name": "Updated",
      "type": "event"
    },
    {
      "inputs": [],
      "name": "ADMIN_ACCESS_ROLE",
      "outputs": [
        {
          "internalType": "bytes32",
          "name": "",
          "type": "bytes32"
        }
      ],
      "stateMutability": "view",
      "type": "function"
    },
    {
      "inputs": [],
      "name": "ADMIN_ROLE",
      "outputs": [
        {
          "internalType": "bytes32",
          "name": "",
          "type": "bytes32"
        }
      ],
      "stateMutability": "view",
      "type": "function"
    },
    {
      "inputs": [],
      "name": "DEFAULT_ADMIN_ROLE",
      "outputs": [
        {
          "internalType": "bytes32",
          "name": "",
          "type": "bytes32"
        }
      ],
      "stateMutability": "view",
      "type": "function"
    },
    {
      "inputs": [],
      "name": "OPERATOR_ROLE",
      "outputs": [
        {
          "internalType": "bytes32",
          "name": "",
          "type": "bytes32"
        }
      ],
      "stateMutability": "view",
      "type": "function"
    },
    {
      "inputs": [],
      "name": "bandOracle",
      "outputs": [
        {
          "internalType": "contract IStdReference",
          "name": "",
          "type": "address"
        }
      ],
      "stateMutability": "view",
      "type": "function"
    },
    {
      "inputs": [],
      "name": "blockTimestampLast",
      "outputs": [
        {
          "internalType": "uint32",
          "name": "",
          "type": "uint32"
        }
      ],
      "stateMutability": "view",
      "type": "function"
    },
    {
      "inputs": [
        {
          "internalType": "address",
          "name": "token",
          "type": "address"
        },
        {
          "internalType": "uint256",
          "name": "amountIn",
          "type": "uint256"
        }
      ],
      "name": "consult",
      "outputs": [
        {
          "internalType": "uint256",
          "name": "amountOut",
          "type": "uint256"
        }
      ],
      "stateMutability": "view",
      "type": "function"
    },
    {
      "inputs": [],
      "name": "getCurrentEpoch",
      "outputs": [
        {
          "internalType": "uint256",
          "name": "",
          "type": "uint256"
        }
      ],
      "stateMutability": "view",
      "type": "function"
    },
    {
      "inputs": [],
      "name": "getPeriod",
      "outputs": [
        {
          "internalType": "uint256",
          "name": "",
          "type": "uint256"
        }
      ],
      "stateMutability": "view",
      "type": "function"
    },
    {
      "inputs": [
        {
          "internalType": "bytes32",
          "name": "role",
          "type": "bytes32"
        }
      ],
      "name": "getRoleAdmin",
      "outputs": [
        {
          "internalType": "bytes32",
          "name": "",
          "type": "bytes32"
        }
      ],
      "stateMutability": "view",
      "type": "function"
    },
    {
      "inputs": [
        {
          "internalType": "bytes32",
          "name": "role",
          "type": "bytes32"
        },
        {
          "internalType": "uint256",
          "name": "index",
          "type": "uint256"
        }
      ],
      "name": "getRoleMember",
      "outputs": [
        {
          "internalType": "address",
          "name": "",
          "type": "address"
        }
      ],
      "stateMutability": "view",
      "type": "function"
    },
    {
      "inputs": [
        {
          "internalType": "bytes32",
          "name": "role",
          "type": "bytes32"
        }
      ],
      "name": "getRoleMemberCount",
      "outputs": [
        {
          "internalType": "uint256",
          "name": "",
          "type": "uint256"
        }
      ],
      "stateMutability": "view",
      "type": "function"
    },
    {
      "inputs": [
        {
          "internalType": "bytes32",
          "name": "role",
          "type": "bytes32"
        },
        {
          "internalType": "address",
          "name": "account",
          "type": "address"
        }
      ],
      "name": "grantRole",
      "outputs": [],
      "stateMutability": "nonpayable",
      "type": "function"
    },
    {
      "inputs": [
        {
          "internalType": "bytes32",
          "name": "role",
          "type": "bytes32"
        },
        {
          "internalType": "address",
          "name": "account",
          "type": "address"
        }
      ],
      "name": "hasRole",
      "outputs": [
        {
          "internalType": "bool",
          "name": "",
          "type": "bool"
        }
      ],
      "stateMutability": "view",
      "type": "function"
    },
    {
      "inputs": [
        {
          "internalType": "address",
          "name": "account",
          "type": "address"
        }
      ],
      "name": "isAdmin",
      "outputs": [
        {
          "internalType": "bool",
          "name": "",
          "type": "bool"
        }
      ],
      "stateMutability": "view",
      "type": "function"
    },
    {
      "inputs": [
        {
          "internalType": "address",
          "name": "account",
          "type": "address"
        }
      ],
      "name": "isOperator",
      "outputs": [
        {
          "internalType": "bool",
          "name": "",
          "type": "bool"
        }
      ],
      "stateMutability": "view",
      "type": "function"
    },
    {
      "inputs": [],
      "name": "nextEpochPoint",
      "outputs": [
        {
          "internalType": "uint256",
          "name": "",
          "type": "uint256"
        }
      ],
      "stateMutability": "view",
      "type": "function"
    },
    {
      "inputs": [],
      "name": "pool",
      "outputs": [
        {
          "internalType": "contract IUniswapV3Pool",
          "name": "",
          "type": "address"
        }
      ],
      "stateMutability": "view",
      "type": "function"
    },
    {
      "inputs": [],
      "name": "price0Average",
      "outputs": [
        {
          "internalType": "uint224",
          "name": "_x",
          "type": "uint224"
        }
      ],
      "stateMutability": "view",
      "type": "function"
    },
    {
      "inputs": [],
      "name": "price0CumulativeLast",
      "outputs": [
        {
          "internalType": "uint256",
          "name": "",
          "type": "uint256"
        }
      ],
      "stateMutability": "view",
      "type": "function"
    },
    {
      "inputs": [],
      "name": "price1Average",
      "outputs": [
        {
          "internalType": "uint224",
          "name": "_x",
          "type": "uint224"
        }
      ],
      "stateMutability": "view",
      "type": "function"
    },
    {
      "inputs": [],
      "name": "price1CumulativeLast",
      "outputs": [
        {
          "internalType": "uint256",
          "name": "",
          "type": "uint256"
        }
      ],
      "stateMutability": "view",
      "type": "function"
    },
    {
      "inputs": [],
      "name": "priceDollar",
      "outputs": [
        {
          "internalType": "uint256",
          "name": "price",
          "type": "uint256"
        }
      ],
      "stateMutability": "view",
      "type": "function"
    },
    {
      "inputs": [
        {
          "internalType": "address",
          "name": "token",
          "type": "address"
        }
      ],
      "name": "priceTWAP",
      "outputs": [
        {
          "internalType": "uint256",
          "name": "price",
          "type": "uint256"
        }
      ],
      "stateMutability": "view",
      "type": "function"
    },
    {
      "inputs": [
        {
          "internalType": "address",
          "name": "token",
          "type": "address"
        }
      ],
      "name": "priceVariationPercentage",
      "outputs": [
        {
          "internalType": "uint256",
          "name": "percentage",
          "type": "uint256"
        }
      ],
      "stateMutability": "view",
      "type": "function"
    },
    {
      "inputs": [
        {
          "internalType": "bytes32",
          "name": "role",
          "type": "bytes32"
        },
        {
          "internalType": "address",
          "name": "account",
          "type": "address"
        }
      ],
      "name": "renounceRole",
      "outputs": [],
      "stateMutability": "nonpayable",
      "type": "function"
    },
    {
      "inputs": [
        {
          "internalType": "bytes32",
          "name": "role",
          "type": "bytes32"
        },
        {
          "internalType": "address",
          "name": "account",
          "type": "address"
        }
      ],
      "name": "revokeRole",
      "outputs": [],
      "stateMutability": "nonpayable",
      "type": "function"
    },
    {
      "inputs": [
        {
          "internalType": "uint256",
          "name": "period",
          "type": "uint256"
        }
      ],
      "name": "setPeriod",
      "outputs": [],
      "stateMutability": "nonpayable",
      "type": "function"
    },
    {
      "inputs": [],
      "name": "startTime",
      "outputs": [
        {
          "internalType": "uint256",
          "name": "",
          "type": "uint256"
        }
      ],
      "stateMutability": "view",
      "type": "function"
    },
    {
      "inputs": [],
      "name": "token0",
      "outputs": [
        {
          "internalType": "address",
          "name": "",
          "type": "address"
        }
      ],
      "stateMutability": "view",
      "type": "function"
    },
    {
      "inputs": [],
      "name": "token1",
      "outputs": [
        {
          "internalType": "address",
          "name": "",
          "type": "address"
        }
      ],
      "stateMutability": "view",
      "type": "function"
    },
    {
      "inputs": [
        {
          "internalType": "address",
          "name": "newAdmin",
          "type": "address"
        }
      ],
      "name": "transferAdmin",
      "outputs": [],
      "stateMutability": "nonpayable",
      "type": "function"
    },
    {
      "inputs": [
        {
          "internalType": "address",
          "name": "newOperator",
          "type": "address"
        }
      ],
      "name": "transferOperator",
      "outputs": [],
      "stateMutability": "nonpayable",
      "type": "function"
    },
    {
      "inputs": [],
      "name": "update",
      "outputs": [],
      "stateMutability": "nonpayable",
      "type": "function"
    }
  ],
  "transactionHash": "0x106aa28f7cf05f0101f8ab3805f0d3bec598f10691c0d3b6d3bcf1dec3c8fa63",
  "args": [
    "0x476D00B9c1a696EE06DD27d38971C047Cdc1305e",
    86400,
    1619777245,
    "0xBa9502360212EE2669ef60c7a5AEa9321044C8fA"
  ],
  "solcInputHash": "7e43bdcff6e907c345057c88f4245ad4",
  "bytecode": "0x6101206040523480156200001257600080fd5b5060405162001c1b38038062001c1b833981016040819052620000359162000401565b828260008160008051602062001bfb8339815191526200005462000275565b608091909152600180546001600160a01b0319166001600160a01b039092169190911790556200009460008051602062001bfb8339815191528062000279565b620000b860008051602062001bfb833981519152620000b262000275565b620002cb565b620000e260008051602062001bdb83398151915260008051602062001bfb83398151915262000279565b620000ec62000275565b600280546001600160a01b0319166001600160a01b039283161790819055620001279160008051602062001bdb8339815191529116620002cb565b6003556004928355600555506001600160601b0319606086901b1660a05260408051630dfe168160e01b815290516001600160a01b03871692630dfe168192808201926020929091829003018186803b1580156200018457600080fd5b505afa15801562000199573d6000803e3d6000fd5b505050506040513d601f19601f82011682018060405250810190620001bf9190620003db565b6001600160a01b031660c0816001600160a01b031660601b81525050836001600160a01b031663d21220a76040518163ffffffff1660e01b815260040160206040518083038186803b1580156200021557600080fd5b505afa1580156200022a573d6000803e3d6000fd5b505050506040513d601f19601f82011682018060405250810190620002509190620003db565b6001600160601b0319606091821b811660e05291901b1661010052506200046a915050565b3390565b600082815260208190526040808220600201549051839285917fbd79b86ffe0ab8e8776151514217cd7cacd52c909f66475c3af44e129f0b00ff9190a460009182526020829052604090912060020155565b620002d78282620002db565b5050565b6000828152602081815260409091206200030091839062000e3062000354821b17901c565b15620002d7576200031062000275565b6001600160a01b0316816001600160a01b0316837f2f8788117e7eff1d82e926ec794901d17c78024a50270940304540a733656f0d60405160405180910390a45050565b60006200036b836001600160a01b03841662000374565b90505b92915050565b6000620003828383620003c3565b620003ba575081546001818101845560008481526020808220909301849055845484825282860190935260409020919091556200036e565b5060006200036e565b60009081526001919091016020526040902054151590565b600060208284031215620003ed578081fd5b8151620003fa8162000451565b9392505050565b6000806000806080858703121562000417578283fd5b8451620004248162000451565b8094505060208501519250604085015191506060850151620004468162000451565b939692955090935050565b6001600160a01b03811681146200046757600080fd5b50565b60805160a05160601c60c05160601c60e05160601c6101005160601c6116f3620004e8600039806108535280610b535250806107b55280610c865280610d9152508061042e52806107345280610c025250806104be525080610505528061053552806109b95280610a655280610a935280610d6d52506116f36000f3fe608060405234801561001057600080fd5b50600436106102265760003560e01c806375b238fc1161012a578063b97dd9e2116100bd578063ca15c8731161008c578063d21220a711610071578063d21220a714610409578063d547741f14610411578063f5b541a61461042457610226565b8063ca15c873146103ee578063cc3ad7da1461040157610226565b8063b97dd9e2146103b6578063ba86c683146103be578063c5700a02146103d1578063c5967c26146103e657610226565b8063956dcd1f116100f9578063956dcd1f14610396578063a217fddf1461039e578063a2e62045146103a6578063a6bb4539146103ae57610226565b806375b238fc1461036057806378e97925146103685780639010d07c1461037057806391d148541461038357610226565b806336568abe116101bd5780635a3d54931161018c5780635e6aaf2c116101715780635e6aaf2c146103255780636d70f7ae1461033a57806375829def1461034d57610226565b80635a3d54931461030a5780635e48700d1461031257610226565b806336568abe146102d45780633ddac953146102e75780634b75e527146102fa5780635909c0d51461030257610226565b8063248a9ca3116101f9578063248a9ca31461027b57806324d7806c1461028e57806329605e77146102ae5780632f2ff15d146102c157610226565b80630dfe16811461022b5780630f3a9f651461024957806316f0115b1461025e5780631ed2419514610266575b600080fd5b61023361042c565b6040516102409190611459565b60405180910390f35b61025c610257366004611355565b610450565b005b6102336104bc565b61026e6104e0565b6040516102409190611478565b61026e610289366004611355565b6104e6565b6102a161029c366004611312565b6104fe565b604051610240919061146d565b61025c6102bc366004611312565b610530565b61025c6102cf36600461136d565b610668565b61025c6102e236600461136d565b6106cf565b61026e6102f536600461132c565b610730565b61026e61084f565b61026e61092d565b61026e610933565b61026e610320366004611312565b610939565b61032d610979565b60405161024091906114f1565b6102a1610348366004611312565b610988565b61025c61035b366004611312565b6109b4565b61026e610af0565b61026e610b14565b61023361037e366004611398565b610b1a565b6102a161039136600461136d565b610b39565b610233610b51565b61026e610b75565b61025c610b7a565b61032d610be9565b61026e610bf8565b61026e6103cc366004611312565b610bfe565b6103d9610d1e565b6040516102409190611505565b61026e610d2a565b61026e6103fc366004611355565b610d54565b61026e610d6b565b610233610d8f565b61025c61041f36600461136d565b610db3565b61026e610e0c565b7f000000000000000000000000000000000000000000000000000000000000000081565b61047c7f97667070c54ef182b0f5858b034beac1b6f3089aa2d3188bb1e8929f4fa9b929610391610e45565b6104b75760405162461bcd60e51b81526004018080602001828103825260318152602001806115686031913960400191505060405180910390fd5b600455565b7f000000000000000000000000000000000000000000000000000000000000000081565b60045490565b6000818152602081905260409020600201545b919050565b600061052a7f000000000000000000000000000000000000000000000000000000000000000083610b39565b92915050565b61055c7f0000000000000000000000000000000000000000000000000000000000000000610391610e45565b6105975760405162461bcd60e51b81526004018080602001828103825260348152602001806115d66034913960400191505060405180910390fd5b6001600160a01b0381166105dc5760405162461bcd60e51b815260040180806020018281038252603a81526020018061165b603a913960400191505060405180910390fd5b600254610613907f97667070c54ef182b0f5858b034beac1b6f3089aa2d3188bb1e8929f4fa9b929906001600160a01b0316610db3565b6002805473ffffffffffffffffffffffffffffffffffffffff19166001600160a01b0383161790556106657f97667070c54ef182b0f5858b034beac1b6f3089aa2d3188bb1e8929f4fa9b92982610668565b50565b60008281526020819052604090206002015461068690610391610e45565b6106c15760405162461bcd60e51b815260040180806020018281038252602f815260200180611539602f913960400191505060405180910390fd5b6106cb8282610e49565b5050565b6106d7610e45565b6001600160a01b0316816001600160a01b0316146107265760405162461bcd60e51b815260040180806020018281038252602f8152602001806116b8602f913960400191505060405180910390fd5b6106cb8282610eb2565b60007f00000000000000000000000000000000000000000000000000000000000000006001600160a01b0316836001600160a01b031614156107b35760408051602081019091526009546001600160e01b03168152610798906107939084610f1b565b610f99565b71ffffffffffffffffffffffffffffffffffff16905061052a565b7f00000000000000000000000000000000000000000000000000000000000000006001600160a01b0316836001600160a01b03161461080d5760405162461bcd60e51b8152600401610804906114af565b60405180910390fd5b6040805160208101909152600a546001600160e01b03168152610834906107939084610f1b565b71ffffffffffffffffffffffffffffffffffff169392505050565b60007f00000000000000000000000000000000000000000000000000000000000000006001600160a01b03166365555bcc60405180604001604052806004815260200163109554d160e21b815250604051806040016040528060048152602001635553444360e01b8152506040518363ffffffff1660e01b81526004016108d7929190611481565b60606040518083038186803b1580156108ef57600080fd5b505afa158015610903573d6000803e3d6000fd5b505050506040513d601f19601f8201168201806040525081019061092791906113b9565b51919050565b60065481565b60075481565b600061052a670de0b6b3a764000061097361095261084f565b61096d670de0b6b3a764000061096788610bfe565b90610fa0565b90610ff9565b90611060565b600a546001600160e01b031681565b600061052a7f97667070c54ef182b0f5858b034beac1b6f3089aa2d3188bb1e8929f4fa9b92983610b39565b6109e07f0000000000000000000000000000000000000000000000000000000000000000610391610e45565b610a1b5760405162461bcd60e51b81526004018080602001828103825260348152602001806115d66034913960400191505060405180910390fd5b6001600160a01b038116610a605760405162461bcd60e51b815260040180806020018281038252603d815260200180611599603d913960400191505060405180910390fd5b610a8a7f000000000000000000000000000000000000000000000000000000000000000082610668565b600154610ac1907f0000000000000000000000000000000000000000000000000000000000000000906001600160a01b0316610db3565b6001805473ffffffffffffffffffffffffffffffffffffffff19166001600160a01b0392909216919091179055565b7fa49807205ce4d355092ef5a8a18f56e8913cf4a201fbe287825b095693c2177581565b60035481565b6000828152602081905260408120610b3290836110bd565b9392505050565b6000828152602081905260408120610b3290836110c9565b7f000000000000000000000000000000000000000000000000000000000000000081565b600081565b610b82610d2a565b421015610bd6576040805162461bcd60e51b815260206004820152601260248201527f45706f63683a206e6f7420616c6c6f7765640000000000000000000000000000604482015290519081900360640190fd5b600554610be49060016110de565b600555565b6009546001600160e01b031681565b60055490565b60007f00000000000000000000000000000000000000000000000000000000000000006001600160a01b0316826001600160a01b03161415610c845760408051602081019091526009546001600160e01b03168152610c699061079390670de0b6b3a7640000610f1b565b71ffffffffffffffffffffffffffffffffffff1690506104f9565b7f00000000000000000000000000000000000000000000000000000000000000006001600160a01b0316826001600160a01b031614610cd55760405162461bcd60e51b8152600401610804906114af565b6040805160208101909152600a546001600160e01b03168152610d049061079390670de0b6b3a7640000610f1b565b71ffffffffffffffffffffffffffffffffffff1692915050565b60085463ffffffff1681565b6000610d4f610d46600454600554610fa090919063ffffffff16565b600354906110de565b905090565b600081815260208190526040812061052a90611138565b7f000000000000000000000000000000000000000000000000000000000000000081565b7f000000000000000000000000000000000000000000000000000000000000000081565b600082815260208190526040902060020154610dd190610391610e45565b6107265760405162461bcd60e51b815260040180806020018281038252603081526020018061160a6030913960400191505060405180910390fd5b7f97667070c54ef182b0f5858b034beac1b6f3089aa2d3188bb1e8929f4fa9b92981565b6000610b32836001600160a01b038416611143565b3390565b6000828152602081905260409020610e619082610e30565b156106cb57610e6e610e45565b6001600160a01b0316816001600160a01b0316837f2f8788117e7eff1d82e926ec794901d17c78024a50270940304540a733656f0d60405160405180910390a45050565b6000828152602081905260409020610eca908261118d565b156106cb57610ed7610e45565b6001600160a01b0316816001600160a01b0316837ff6391f5c32d9c69d2a47ea670b442974b53935d1edc7fd64eb21e047a839171b60405160405180910390a45050565b610f236112e8565b6000821580610f4957505082516001600160e01b031682810290838281610f4657fe5b04145b610f845760405162461bcd60e51b81526004018080602001828103825260238152602001806116956023913960400191505060405180910390fd5b60408051602081019091529081529392505050565b5160701c90565b600082610faf5750600061052a565b82820282848281610fbc57fe5b0414610b325760405162461bcd60e51b815260040180806020018281038252602181526020018061163a6021913960400191505060405180910390fd5b600080821161104f576040805162461bcd60e51b815260206004820152601a60248201527f536166654d6174683a206469766973696f6e206279207a65726f000000000000604482015290519081900360640190fd5b81838161105857fe5b049392505050565b6000828211156110b7576040805162461bcd60e51b815260206004820152601e60248201527f536166654d6174683a207375627472616374696f6e206f766572666c6f770000604482015290519081900360640190fd5b50900390565b6000610b3283836111a2565b6000610b32836001600160a01b038416611206565b600082820183811015610b32576040805162461bcd60e51b815260206004820152601b60248201527f536166654d6174683a206164646974696f6e206f766572666c6f770000000000604482015290519081900360640190fd5b600061052a8261121e565b600061114f8383611206565b6111855750815460018181018455600084815260208082209093018490558454848252828601909352604090209190915561052a565b50600061052a565b6000610b32836001600160a01b038416611222565b815460009082106111e45760405162461bcd60e51b81526004018080602001828103825260228152602001806115176022913960400191505060405180910390fd5b8260000182815481106111f357fe5b9060005260206000200154905092915050565b60009081526001919091016020526040902054151590565b5490565b600081815260018301602052604081205480156112de578354600019808301919081019060009087908390811061125557fe5b906000526020600020015490508087600001848154811061127257fe5b6000918252602080832090910192909255828152600189810190925260409020908401905586548790806112a257fe5b6001900381819060005260206000200160009055905586600101600087815260200190815260200160002060009055600194505050505061052a565b600091505061052a565b6040518060200160405280600081525090565b80356001600160a01b03811681146104f957600080fd5b600060208284031215611323578081fd5b610b32826112fb565b6000806040838503121561133e578081fd5b611347836112fb565b946020939093013593505050565b600060208284031215611366578081fd5b5035919050565b6000806040838503121561137f578182fd5b8235915061138f602084016112fb565b90509250929050565b600080604083850312156113aa578182fd5b50508035926020909101359150565b6000606082840312156113ca578081fd5b6040516060810181811067ffffffffffffffff821117156113e757fe5b80604052508251815260208301516020820152604083015160408201528091505092915050565b60008151808452815b8181101561143357602081850181015186830182015201611417565b818111156114445782602083870101525b50601f01601f19169290920160200192915050565b6001600160a01b0391909116815260200190565b901515815260200190565b90815260200190565b600060408252611494604083018561140e565b82810360208401526114a6818561140e565b95945050505050565b60208082526022908201527f4578616d706c654f7261636c6553696d706c653a20494e56414c49445f544f4b60408201526122a760f11b606082015260800190565b6001600160e01b0391909116815260200190565b63ffffffff9190911681526020019056fe456e756d657261626c655365743a20696e646578206f7574206f6620626f756e6473416363657373436f6e74726f6c3a2073656e646572206d75737420626520616e2061646d696e20746f206772616e744f70657261746f72416363657373436f6e74726f6c3a2073656e646572207265717569726573207065726d697373696f6e41646d696e416363657373436f6e74726f6c48656c7065723a207a65726f206164647265737320676976656e20666f72206e6577206f70657261746f7241646d696e416363657373436f6e74726f6c48656c7065723a2073656e646572207265717569726573207065726d697373696f6e416363657373436f6e74726f6c3a2073656e646572206d75737420626520616e2061646d696e20746f207265766f6b65536166654d6174683a206d756c7469706c69636174696f6e206f766572666c6f774f70657261746f72416363657373436f6e74726f6c3a207a65726f206164647265737320676976656e20666f72206e6577206f70657261746f724669786564506f696e743a204d554c5449504c49434154494f4e5f4f564552464c4f57416363657373436f6e74726f6c3a2063616e206f6e6c792072656e6f756e636520726f6c657320666f722073656c66a164736f6c6343000706000a97667070c54ef182b0f5858b034beac1b6f3089aa2d3188bb1e8929f4fa9b929a49807205ce4d355092ef5a8a18f56e8913cf4a201fbe287825b095693c21775",
  "devdoc": {
    "kind": "dev",
    "methods": {
      "getRoleAdmin(bytes32)": {
        "details": "Returns the admin role that controls `role`. See {grantRole} and {revokeRole}. To change a role's admin, use {_setRoleAdmin}."
      },
      "getRoleMember(bytes32,uint256)": {
        "details": "Returns one of the accounts that have `role`. `index` must be a value between 0 and {getRoleMemberCount}, non-inclusive. Role bearers are not sorted in any particular way, and their ordering may change at any point. WARNING: When using {getRoleMember} and {getRoleMemberCount}, make sure you perform all queries on the same block. See the following https://forum.openzeppelin.com/t/iterating-over-elements-on-enumerableset-in-openzeppelin-contracts/2296[forum post] for more information."
      },
      "getRoleMemberCount(bytes32)": {
        "details": "Returns the number of accounts that have `role`. Can be used together with {getRoleMember} to enumerate all bearers of a role."
      },
      "grantRole(bytes32,address)": {
        "details": "Grants `role` to `account`. If `account` had not been already granted `role`, emits a {RoleGranted} event. Requirements: - the caller must have ``role``'s admin role."
      },
      "hasRole(bytes32,address)": {
        "details": "Returns `true` if `account` has been granted `role`."
      },
      "priceDollar()": {
        "returns": {
          "price": " Latest external price of the token multiplied by 1e18"
        }
      },
      "priceTWAP(address)": {
        "params": {
          "token": "Address of the token to get the average price for"
        },
        "returns": {
          "price": " Average price of the token multiplied by 1e18"
        }
      },
      "priceVariationPercentage(address)": {
        "params": {
          "token": "Address of the token to get price variation for"
        },
        "returns": {
          "percentage": " Price variation percentage multiplied by 1e18"
        }
      },
      "renounceRole(bytes32,address)": {
        "details": "Revokes `role` from the calling account. Roles are often managed via {grantRole} and {revokeRole}: this function's purpose is to provide a mechanism for accounts to lose their privileges if they are compromised (such as when a trusted device is misplaced). If the calling account had been granted `role`, emits a {RoleRevoked} event. Requirements: - the caller must be `account`."
      },
      "revokeRole(bytes32,address)": {
        "details": "Revokes `role` from `account`. If `account` had been granted `role`, emits a {RoleRevoked} event. Requirements: - the caller must have ``role``'s admin role."
      },
      "update()": {
        "details": "Updates 1-day EMA price from PancakeSwap"
      }
    },
    "version": 1
  },
  "userdoc": {
    "kind": "user",
    "methods": {
      "priceDollar()": {
        "notice": "Returns the latest known price from the external oracle for the BUSD/USDT pair"
      },
      "priceTWAP(address)": {
        "notice": "Returns the latest updated average price for the given token"
      },
      "priceVariationPercentage(address)": {
        "notice": "Calculates the percentage of the price variation between the internal liquidity price and the external Oracle price"
      },
      "update()": {
        "notice": "Update the price from PancakeSwap"
      }
    },
    "notice": "Fixed window oracle that recomputes the average price for the entire period once every period note that the price average is only guaranteed to be over at least 1 period, but may be over a longer period",
    "version": 1
  },
  "storageLayout": {
    "storage": [
      {
        "astId": 22,
        "contract": "contracts/governance/Oracle.sol:Oracle",
        "label": "_roles",
        "offset": 0,
        "slot": "0",
        "type": "t_mapping(t_bytes32,t_struct(RoleData)18_storage)"
      },
      {
        "astId": 5142,
        "contract": "contracts/governance/Oracle.sol:Oracle",
        "label": "_admin",
        "offset": 0,
        "slot": "1",
        "type": "t_address"
      },
      {
        "astId": 5279,
        "contract": "contracts/governance/Oracle.sol:Oracle",
        "label": "_operator",
        "offset": 0,
        "slot": "2",
        "type": "t_address"
      },
      {
        "astId": 10065,
        "contract": "contracts/governance/Oracle.sol:Oracle",
        "label": "startTime",
        "offset": 0,
        "slot": "3",
        "type": "t_uint256"
      },
      {
        "astId": 9974,
        "contract": "contracts/governance/Oracle.sol:Oracle",
        "label": "_period",
        "offset": 0,
        "slot": "4",
        "type": "t_uint256"
      },
      {
        "astId": 9976,
        "contract": "contracts/governance/Oracle.sol:Oracle",
        "label": "_epoch",
        "offset": 0,
        "slot": "5",
        "type": "t_uint256"
      },
      {
        "astId": 7674,
        "contract": "contracts/governance/Oracle.sol:Oracle",
        "label": "price0CumulativeLast",
        "offset": 0,
        "slot": "6",
        "type": "t_uint256"
      },
      {
        "astId": 7676,
        "contract": "contracts/governance/Oracle.sol:Oracle",
        "label": "price1CumulativeLast",
        "offset": 0,
        "slot": "7",
        "type": "t_uint256"
      },
      {
        "astId": 7678,
        "contract": "contracts/governance/Oracle.sol:Oracle",
        "label": "blockTimestampLast",
        "offset": 0,
        "slot": "8",
        "type": "t_uint32"
      },
      {
        "astId": 7680,
        "contract": "contracts/governance/Oracle.sol:Oracle",
        "label": "price0Average",
        "offset": 0,
        "slot": "9",
        "type": "t_struct(uq112x112)9169_storage"
      },
      {
        "astId": 7682,
        "contract": "contracts/governance/Oracle.sol:Oracle",
        "label": "price1Average",
        "offset": 0,
        "slot": "10",
        "type": "t_struct(uq112x112)9169_storage"
      }
    ],
    "types": {
      "t_address": {
        "encoding": "inplace",
        "label": "address",
        "numberOfBytes": "20"
      },
      "t_array(t_bytes32)dyn_storage": {
        "base": "t_bytes32",
        "encoding": "dynamic_array",
        "label": "bytes32[]",
        "numberOfBytes": "32"
      },
      "t_bytes32": {
        "encoding": "inplace",
        "label": "bytes32",
        "numberOfBytes": "32"
      },
      "t_mapping(t_bytes32,t_struct(RoleData)18_storage)": {
        "encoding": "mapping",
        "key": "t_bytes32",
        "label": "mapping(bytes32 => struct AccessControl.RoleData)",
        "numberOfBytes": "32",
        "value": "t_struct(RoleData)18_storage"
      },
      "t_mapping(t_bytes32,t_uint256)": {
        "encoding": "mapping",
        "key": "t_bytes32",
        "label": "mapping(bytes32 => uint256)",
        "numberOfBytes": "32",
        "value": "t_uint256"
      },
      "t_struct(AddressSet)3146_storage": {
        "encoding": "inplace",
        "label": "struct EnumerableSet.AddressSet",
        "members": [
          {
            "astId": 3145,
            "contract": "contracts/governance/Oracle.sol:Oracle",
            "label": "_inner",
            "offset": 0,
            "slot": "0",
            "type": "t_struct(Set)2881_storage"
          }
        ],
        "numberOfBytes": "64"
      },
      "t_struct(RoleData)18_storage": {
        "encoding": "inplace",
        "label": "struct AccessControl.RoleData",
        "members": [
          {
            "astId": 15,
            "contract": "contracts/governance/Oracle.sol:Oracle",
            "label": "members",
            "offset": 0,
            "slot": "0",
            "type": "t_struct(AddressSet)3146_storage"
          },
          {
            "astId": 17,
            "contract": "contracts/governance/Oracle.sol:Oracle",
            "label": "adminRole",
            "offset": 0,
            "slot": "2",
            "type": "t_bytes32"
          }
        ],
        "numberOfBytes": "96"
      },
      "t_struct(Set)2881_storage": {
        "encoding": "inplace",
        "label": "struct EnumerableSet.Set",
        "members": [
          {
            "astId": 2876,
            "contract": "contracts/governance/Oracle.sol:Oracle",
            "label": "_values",
            "offset": 0,
            "slot": "0",
            "type": "t_array(t_bytes32)dyn_storage"
          },
          {
            "astId": 2880,
            "contract": "contracts/governance/Oracle.sol:Oracle",
            "label": "_indexes",
            "offset": 0,
            "slot": "1",
            "type": "t_mapping(t_bytes32,t_uint256)"
          }
        ],
        "numberOfBytes": "64"
      },
      "t_struct(uq112x112)9169_storage": {
        "encoding": "inplace",
        "label": "struct FixedPoint.uq112x112",
        "members": [
          {
            "astId": 9168,
            "contract": "contracts/governance/Oracle.sol:Oracle",
            "label": "_x",
            "offset": 0,
            "slot": "0",
            "type": "t_uint224"
          }
        ],
        "numberOfBytes": "32"
      },
      "t_uint224": {
        "encoding": "inplace",
        "label": "uint224",
        "numberOfBytes": "28"
      },
      "t_uint256": {
        "encoding": "inplace",
        "label": "uint256",
        "numberOfBytes": "32"
      },
      "t_uint32": {
        "encoding": "inplace",
        "label": "uint32",
        "numberOfBytes": "4"
      }
    }
  }
}