{
  "address": "0x0356E9A538cBE55EDDB1233053BC35F86f02DCd9",
  "abi": [
    {
      "inputs": [
        {
          "internalType": "contract IUniswapV3Pool",
          "name": "_pool",
          "type": "address"
        },
        {
          "internalType": "uint256",
          "name": "_period",
          "type": "uint256"
        },
        {
          "internalType": "uint256",
          "name": "_startTime",
          "type": "uint256"
        },
        {
          "internalType": "contract IStdReference",
          "name": "_bandOracle",
          "type": "address"
        }
      ],
      "stateMutability": "nonpayable",
      "type": "constructor"
    },
    {
      "anonymous": false,
      "inputs": [
        {
          "indexed": true,
          "internalType": "bytes32",
          "name": "role",
          "type": "bytes32"
        },
        {
          "indexed": true,
          "internalType": "bytes32",
          "name": "previousAdminRole",
          "type": "bytes32"
        },
        {
          "indexed": true,
          "internalType": "bytes32",
          "name": "newAdminRole",
          "type": "bytes32"
        }
      ],
      "name": "RoleAdminChanged",
      "type": "event"
    },
    {
      "anonymous": false,
      "inputs": [
        {
          "indexed": true,
          "internalType": "bytes32",
          "name": "role",
          "type": "bytes32"
        },
        {
          "indexed": true,
          "internalType": "address",
          "name": "account",
          "type": "address"
        },
        {
          "indexed": true,
          "internalType": "address",
          "name": "sender",
          "type": "address"
        }
      ],
      "name": "RoleGranted",
      "type": "event"
    },
    {
      "anonymous": false,
      "inputs": [
        {
          "indexed": true,
          "internalType": "bytes32",
          "name": "role",
          "type": "bytes32"
        },
        {
          "indexed": true,
          "internalType": "address",
          "name": "account",
          "type": "address"
        },
        {
          "indexed": true,
          "internalType": "address",
          "name": "sender",
          "type": "address"
        }
      ],
      "name": "RoleRevoked",
      "type": "event"
    },
    {
      "anonymous": false,
      "inputs": [
        {
          "indexed": false,
          "internalType": "uint160",
          "name": "averageSqrtPriceX96",
          "type": "uint160"
        }
      ],
      "name": "Updated",
      "type": "event"
    },
    {
      "inputs": [],
      "name": "ADMIN_ROLE",
      "outputs": [
        {
          "internalType": "bytes32",
          "name": "",
          "type": "bytes32"
        }
      ],
      "stateMutability": "view",
      "type": "function"
    },
    {
      "inputs": [],
      "name": "DEFAULT_ADMIN_ROLE",
      "outputs": [
        {
          "internalType": "bytes32",
          "name": "",
          "type": "bytes32"
        }
      ],
      "stateMutability": "view",
      "type": "function"
    },
    {
      "inputs": [],
      "name": "EXTERNAL_ORACLE_BASE",
      "outputs": [
        {
          "internalType": "string",
          "name": "",
          "type": "string"
        }
      ],
      "stateMutability": "view",
      "type": "function"
    },
    {
      "inputs": [],
      "name": "EXTERNAL_ORACLE_QUOTE",
      "outputs": [
        {
          "internalType": "string",
          "name": "",
          "type": "string"
        }
      ],
      "stateMutability": "view",
      "type": "function"
    },
    {
      "inputs": [],
      "name": "OPERATOR_ROLE",
      "outputs": [
        {
          "internalType": "bytes32",
          "name": "",
          "type": "bytes32"
        }
      ],
      "stateMutability": "view",
      "type": "function"
    },
    {
      "inputs": [],
      "name": "adminAccessRole",
      "outputs": [
        {
          "internalType": "bytes32",
          "name": "",
          "type": "bytes32"
        }
      ],
      "stateMutability": "view",
      "type": "function"
    },
    {
      "inputs": [],
      "name": "averageSqrtPriceX96",
      "outputs": [
        {
          "internalType": "uint160",
          "name": "",
          "type": "uint160"
        }
      ],
      "stateMutability": "view",
      "type": "function"
    },
    {
      "inputs": [],
      "name": "bandOracle",
      "outputs": [
        {
          "internalType": "contract IStdReference",
          "name": "",
          "type": "address"
        }
      ],
      "stateMutability": "view",
      "type": "function"
    },
    {
      "inputs": [
        {
          "internalType": "address",
          "name": "token",
          "type": "address"
        },
        {
          "internalType": "uint256",
          "name": "amountIn",
          "type": "uint256"
        }
      ],
      "name": "consult",
      "outputs": [
        {
          "internalType": "uint256",
          "name": "amountOut",
          "type": "uint256"
        }
      ],
      "stateMutability": "view",
      "type": "function"
    },
    {
      "inputs": [],
      "name": "getCurrentEpoch",
      "outputs": [
        {
          "internalType": "uint256",
          "name": "",
          "type": "uint256"
        }
      ],
      "stateMutability": "view",
      "type": "function"
    },
    {
      "inputs": [],
      "name": "getPeriod",
      "outputs": [
        {
          "internalType": "uint256",
          "name": "",
          "type": "uint256"
        }
      ],
      "stateMutability": "view",
      "type": "function"
    },
    {
      "inputs": [
        {
          "internalType": "bytes32",
          "name": "role",
          "type": "bytes32"
        }
      ],
      "name": "getRoleAdmin",
      "outputs": [
        {
          "internalType": "bytes32",
          "name": "",
          "type": "bytes32"
        }
      ],
      "stateMutability": "view",
      "type": "function"
    },
    {
      "inputs": [
        {
          "internalType": "bytes32",
          "name": "role",
          "type": "bytes32"
        },
        {
          "internalType": "uint256",
          "name": "index",
          "type": "uint256"
        }
      ],
      "name": "getRoleMember",
      "outputs": [
        {
          "internalType": "address",
          "name": "",
          "type": "address"
        }
      ],
      "stateMutability": "view",
      "type": "function"
    },
    {
      "inputs": [
        {
          "internalType": "bytes32",
          "name": "role",
          "type": "bytes32"
        }
      ],
      "name": "getRoleMemberCount",
      "outputs": [
        {
          "internalType": "uint256",
          "name": "",
          "type": "uint256"
        }
      ],
      "stateMutability": "view",
      "type": "function"
    },
    {
      "inputs": [
        {
          "internalType": "bytes32",
          "name": "role",
          "type": "bytes32"
        },
        {
          "internalType": "address",
          "name": "account",
          "type": "address"
        }
      ],
      "name": "grantRole",
      "outputs": [],
      "stateMutability": "nonpayable",
      "type": "function"
    },
    {
      "inputs": [
        {
          "internalType": "bytes32",
          "name": "role",
          "type": "bytes32"
        },
        {
          "internalType": "address",
          "name": "account",
          "type": "address"
        }
      ],
      "name": "hasRole",
      "outputs": [
        {
          "internalType": "bool",
          "name": "",
          "type": "bool"
        }
      ],
      "stateMutability": "view",
      "type": "function"
    },
    {
      "inputs": [
        {
          "internalType": "address",
          "name": "account",
          "type": "address"
        }
      ],
      "name": "isAdmin",
      "outputs": [
        {
          "internalType": "bool",
          "name": "",
          "type": "bool"
        }
      ],
      "stateMutability": "view",
      "type": "function"
    },
    {
      "inputs": [
        {
          "internalType": "address",
          "name": "account",
          "type": "address"
        }
      ],
      "name": "isOperator",
      "outputs": [
        {
          "internalType": "bool",
          "name": "",
          "type": "bool"
        }
      ],
      "stateMutability": "view",
      "type": "function"
    },
    {
      "inputs": [],
      "name": "nextEpochPoint",
      "outputs": [
        {
          "internalType": "uint256",
          "name": "",
          "type": "uint256"
        }
      ],
      "stateMutability": "view",
      "type": "function"
    },
    {
      "inputs": [],
      "name": "pool",
      "outputs": [
        {
          "internalType": "contract IUniswapV3Pool",
          "name": "",
          "type": "address"
        }
      ],
      "stateMutability": "view",
      "type": "function"
    },
    {
      "inputs": [],
      "name": "priceDollar",
      "outputs": [
        {
          "internalType": "uint256",
          "name": "price",
          "type": "uint256"
        }
      ],
      "stateMutability": "view",
      "type": "function"
    },
    {
      "inputs": [
        {
          "internalType": "address",
          "name": "token",
          "type": "address"
        }
      ],
      "name": "priceTWAP",
      "outputs": [
        {
          "internalType": "uint256",
          "name": "price",
          "type": "uint256"
        }
      ],
      "stateMutability": "view",
      "type": "function"
    },
    {
      "inputs": [
        {
          "internalType": "address",
          "name": "token",
          "type": "address"
        }
      ],
      "name": "priceVariationPercentage",
      "outputs": [
        {
          "internalType": "uint256",
          "name": "percentage",
          "type": "uint256"
        }
      ],
      "stateMutability": "view",
      "type": "function"
    },
    {
      "inputs": [
        {
          "internalType": "bytes32",
          "name": "role",
          "type": "bytes32"
        },
        {
          "internalType": "address",
          "name": "account",
          "type": "address"
        }
      ],
      "name": "renounceRole",
      "outputs": [],
      "stateMutability": "nonpayable",
      "type": "function"
    },
    {
      "inputs": [
        {
          "internalType": "bytes32",
          "name": "role",
          "type": "bytes32"
        },
        {
          "internalType": "address",
          "name": "account",
          "type": "address"
        }
      ],
      "name": "revokeRole",
      "outputs": [],
      "stateMutability": "nonpayable",
      "type": "function"
    },
    {
      "inputs": [
        {
          "internalType": "uint256",
          "name": "period",
          "type": "uint256"
        }
      ],
      "name": "setPeriod",
      "outputs": [],
      "stateMutability": "nonpayable",
      "type": "function"
    },
    {
      "inputs": [],
      "name": "startTime",
      "outputs": [
        {
          "internalType": "uint256",
          "name": "",
          "type": "uint256"
        }
      ],
      "stateMutability": "view",
      "type": "function"
    },
    {
      "inputs": [],
      "name": "token0",
      "outputs": [
        {
          "internalType": "address",
          "name": "",
          "type": "address"
        }
      ],
      "stateMutability": "view",
      "type": "function"
    },
    {
      "inputs": [],
      "name": "token1",
      "outputs": [
        {
          "internalType": "address",
          "name": "",
          "type": "address"
        }
      ],
      "stateMutability": "view",
      "type": "function"
    },
    {
      "inputs": [
        {
          "internalType": "address",
          "name": "newAdmin",
          "type": "address"
        }
      ],
      "name": "transferAdmin",
      "outputs": [],
      "stateMutability": "nonpayable",
      "type": "function"
    },
    {
      "inputs": [
        {
          "internalType": "address",
          "name": "newOperator",
          "type": "address"
        }
      ],
      "name": "transferOperator",
      "outputs": [],
      "stateMutability": "nonpayable",
      "type": "function"
    },
    {
      "inputs": [],
      "name": "update",
      "outputs": [],
      "stateMutability": "nonpayable",
      "type": "function"
    }
  ],
  "transactionHash": "0x0f9f713bda6115e087bd065ee85060334819537acb4093a6e934370c34d2ca05",
  "args": [
    "0xFecf1fD3b4bf8d49bcB4aA55cD733b78F292d00E",
    86400,
    1619777245,
    "0x7d899Cc225F3573D195f18e9092642B40A8d8ba7"
  ],
  "solcInputHash": "3c9013a5498b4895dff36c095323ff93",
  "bytecode": "0x6101206040523480156200001257600080fd5b50604051620022e9380380620022e98339810160408190526200003591620004bc565b8282600081600080516020620022c98339815191526200005462000318565b608091909152600180546001600160a01b0319166001600160a01b0390921691909117905562000094600080516020620022c9833981519152806200031c565b620000b8600080516020620022c9833981519152620000b262000318565b6200036e565b620000e2600080516020620022a9833981519152600080516020620022c98339815191526200031c565b620000ec62000318565b600280546001600160a01b0319166001600160a01b0392831617908190556200012791600080516020620022a983398151915291166200036e565b6003556004928355600555506001600160601b0319606086901b1660a05260408051630dfe168160e01b815290516001600160a01b03871692630dfe168192808201926020929091829003018186803b1580156200018457600080fd5b505afa15801562000199573d6000803e3d6000fd5b505050506040513d601f19601f82011682018060405250810190620001bf919062000496565b6001600160a01b031660c0816001600160a01b031660601b81525050836001600160a01b031663d21220a76040518163ffffffff1660e01b815260040160206040518083038186803b1580156200021557600080fd5b505afa1580156200022a573d6000803e3d6000fd5b505050506040513d601f19601f8201168201806040525081019062000250919062000496565b6001600160601b0319606091821b811660e09081529183901b166101005260408051633850c7bd60e01b815290516001600160a01b03871692633850c7bd9260048082019391829003018186803b158015620002ab57600080fd5b505afa158015620002c0573d6000803e3d6000fd5b505050506040513d601f19601f82011682018060405250810190620002e691906200050c565b5050600680546001600160a01b0319166001600160a01b03969096169590951790945550620005d19650505050505050565b3390565b600082815260208190526040808220600201549051839285917fbd79b86ffe0ab8e8776151514217cd7cacd52c909f66475c3af44e129f0b00ff9190a460009182526020829052604090912060020155565b6200037a82826200037e565b5050565b600082815260208181526040909120620003a391839062000fe9620003f7821b17901c565b156200037a57620003b362000318565b6001600160a01b0316816001600160a01b0316837f2f8788117e7eff1d82e926ec794901d17c78024a50270940304540a733656f0d60405160405180910390a45050565b60006200040e836001600160a01b03841662000417565b90505b92915050565b600062000425838362000466565b6200045d5750815460018181018455600084815260208082209093018490558454848252828601909352604090209190915562000411565b50600062000411565b60009081526001919091016020526040902054151590565b805161ffff811681146200049157600080fd5b919050565b600060208284031215620004a8578081fd5b8151620004b581620005b8565b9392505050565b60008060008060808587031215620004d2578283fd5b8451620004df81620005b8565b80945050602085015192506040850151915060608501516200050181620005b8565b939692955090935050565b600080600080600080600060e0888a03121562000527578283fd5b87516200053481620005b8565b8097505060208801518060020b81146200054c578384fd5b95506200055c604089016200047e565b94506200056c606089016200047e565b93506200057c608089016200047e565b925060a088015160ff8116811462000592578283fd5b60c08901519092508015158114620005a8578182fd5b8091505092959891949750929550565b6001600160a01b0381168114620005ce57600080fd5b50565b60805160a05160601c60c05160601c60e05160601c6101005160601c611c5562000654600039806108695280610b355250806107cd5280610f3b5250806103db528061077052508061048b5280610bbf5280610c785280610d1f5250806104b552806104f6528061052652806109a85280610a545280610a825250611c556000f3fe608060405234801561001057600080fd5b50600436106101f05760003560e01c806375b238fc1161010f578063ba86c683116100a2578063d21220a711610071578063d21220a7146103ae578063d547741f146103b6578063ef223006146103c9578063f5b541a6146103d1576101f0565b8063ba86c68314610378578063c5967c261461038b578063ca15c87314610393578063cb9933cc146103a6576101f0565b8063956dcd1f116100de578063956dcd1f14610358578063a217fddf14610360578063a2e6204514610368578063b97dd9e214610370576101f0565b806375b238fc1461032257806378e979251461032a5780639010d07c1461033257806391d1485414610345576101f0565b806329605e77116101875780634b75e527116101565780634b75e527146102e15780635e48700d146102e95780636d70f7ae146102fc57806375829def1461030f576101f0565b806329605e77146102955780632f2ff15d146102a857806336568abe146102bb5780633ddac953146102ce576101f0565b80631ed24195116101c35780631ed24195146102455780632140dcf11461025a578063248a9ca31461026257806324d7806c14610275576101f0565b80630dfe1681146101f55780630e04f305146102135780630f3a9f651461022857806316f0115b1461023d575b600080fd5b6101fd6103d9565b60405161020a91906119cc565b60405180910390f35b61021b6103fd565b60405161020a91906119f4565b61023b6102363660046117c4565b61041d565b005b6101fd610489565b61024d6104ad565b60405161020a91906119eb565b61024d6104b3565b61024d6102703660046117c4565b6104d7565b61028861028336600461177d565b6104ef565b60405161020a91906119e0565b61023b6102a336600461177d565b610521565b61023b6102b63660046117dc565b61064c565b61023b6102c93660046117dc565b6106b3565b61024d6102dc366004611799565b610714565b61024d610865565b61024d6102f736600461177d565b610943565b61028861030a36600461177d565b610977565b61023b61031d36600461177d565b6109a3565b61024d610ad2565b61024d610af6565b6101fd61034036600461180b565b610afc565b6102886103533660046117dc565b610b1b565b6101fd610b33565b61024d610b57565b61023b610b5c565b61024d610ebe565b61024d61038636600461177d565b610ec4565b61024d610ed8565b61024d6103a13660046117c4565b610f02565b61021b610f19565b6101fd610f39565b61023b6103c43660046117dc565b610f5d565b6101fd610fb6565b61024d610fc5565b7f000000000000000000000000000000000000000000000000000000000000000081565b604051806040016040528060048152602001631554d11560e21b81525081565b6104497f97667070c54ef182b0f5858b034beac1b6f3089aa2d3188bb1e8929f4fa9b929610353610ffe565b6104845760405162461bcd60e51b8152600401808060200182810382526031815260200180611aed6031913960400191505060405180910390fd5b600455565b7f000000000000000000000000000000000000000000000000000000000000000081565b60045490565b7f000000000000000000000000000000000000000000000000000000000000000081565b6000818152602081905260409020600201545b919050565b600061051b7f000000000000000000000000000000000000000000000000000000000000000083610b1b565b92915050565b61054d7f0000000000000000000000000000000000000000000000000000000000000000610353610ffe565b6105885760405162461bcd60e51b8152600401808060200182810382526034815260200180611b5b6034913960400191505060405180910390fd5b6001600160a01b0381166105cd5760405162461bcd60e51b815260040180806020018281038252603a815260200180611be0603a913960400191505060405180910390fd5b600254610604907f97667070c54ef182b0f5858b034beac1b6f3089aa2d3188bb1e8929f4fa9b929906001600160a01b0316610f5d565b600280546001600160a01b0319166001600160a01b0383161790556106497f97667070c54ef182b0f5858b034beac1b6f3089aa2d3188bb1e8929f4fa9b9298261064c565b50565b60008281526020819052604090206002015461066a90610353610ffe565b6106a55760405162461bcd60e51b815260040180806020018281038252602f815260200180611abe602f913960400191505060405180910390fd5b6106af8282611002565b5050565b6106bb610ffe565b6001600160a01b0316816001600160a01b03161461070a5760405162461bcd60e51b815260040180806020018281038252602f815260200180611c1a602f913960400191505060405180910390fd5b6106af828261106b565b60008061072e6c01000000000000000000000000806110d4565b60065490915060009061075e90670de0b6b3a764000090610758906001600160a01b0316806110d4565b906110d4565b9050600061076c828461112d565b90507f00000000000000000000000000000000000000000000000000000000000000006001600160a01b0316866001600160a01b031614156107cb576107c4670de0b6b3a76400006107be87846110d4565b9061112d565b935061085c565b7f00000000000000000000000000000000000000000000000000000000000000006001600160a01b0316866001600160a01b0316146108255760405162461bcd60e51b815260040161081c90611a35565b60405180910390fd5b60006108406ec097ce7bc90715b34b9f10000000008361112d565b9050610858670de0b6b3a76400006107be88846110d4565b9450505b50505092915050565b60007f00000000000000000000000000000000000000000000000000000000000000006001600160a01b03166365555bcc604051806040016040528060048152602001635553444360e01b815250604051806040016040528060048152602001631554d11560e21b8152506040518363ffffffff1660e01b81526004016108ed929190611a07565b60606040518083038186803b15801561090557600080fd5b505afa158015610919573d6000803e3d6000fd5b505050506040513d601f19601f8201168201806040525081019061093d919061182c565b51919050565b600061051b670de0b6b3a764000061097161095c610865565b6107be670de0b6b3a764000061075888610ec4565b90611194565b600061051b7f97667070c54ef182b0f5858b034beac1b6f3089aa2d3188bb1e8929f4fa9b92983610b1b565b6109cf7f0000000000000000000000000000000000000000000000000000000000000000610353610ffe565b610a0a5760405162461bcd60e51b8152600401808060200182810382526034815260200180611b5b6034913960400191505060405180910390fd5b6001600160a01b038116610a4f5760405162461bcd60e51b815260040180806020018281038252603d815260200180611b1e603d913960400191505060405180910390fd5b610a797f00000000000000000000000000000000000000000000000000000000000000008261064c565b600154610ab0907f0000000000000000000000000000000000000000000000000000000000000000906001600160a01b0316610f5d565b600180546001600160a01b0319166001600160a01b0392909216919091179055565b7fa49807205ce4d355092ef5a8a18f56e8913cf4a201fbe287825b095693c2177581565b60035481565b6000828152602081905260408120610b1490836111f1565b9392505050565b6000828152602081905260408120610b1490836111fd565b7f000000000000000000000000000000000000000000000000000000000000000081565b600081565b610b64610ed8565b421015610bb8576040805162461bcd60e51b815260206004820152601260248201527f45706f63683a206e6f7420616c6c6f7765640000000000000000000000000000604482015290519081900360640190fd5b60008060007f00000000000000000000000000000000000000000000000000000000000000006001600160a01b0316633850c7bd6040518163ffffffff1660e01b815260040160e06040518083038186803b158015610c1657600080fd5b505afa158015610c2a573d6000803e3d6000fd5b505050506040513d601f19601f82011682018060405250810190610c4e9190611881565b5050509350935050925060008161ffff1660018385010361ffff1681610c7057fe5b0690506000807f00000000000000000000000000000000000000000000000000000000000000006001600160a01b031663252c09d7866040518263ffffffff1660e01b8152600401610cc29190611a77565b60806040518083038186803b158015610cda57600080fd5b505afa158015610cee573d6000803e3d6000fd5b505050506040513d601f19601f82011682018060405250810190610d129190611918565b50509150915060008060007f00000000000000000000000000000000000000000000000000000000000000006001600160a01b031663252c09d7876040518263ffffffff1660e01b8152600401610d699190611a77565b60806040518083038186803b158015610d8157600080fd5b505afa158015610d95573d6000803e3d6000fd5b505050506040513d601f19601f82011682018060405250810190610db99190611918565b93505092509250808015610dd2575063ffffffff831615155b8015610dea57508463ffffffff168363ffffffff1614155b15610e3957600083860363ffffffff1683860360060b81610e0757fe5b059050610e1381611212565b600680546001600160a01b0319166001600160a01b039290921691909117905550610e55565b600680546001600160a01b0319166001600160a01b038b161790555b6006546040517f38d4af931fdf0aca591680a6feded6289cefb3c2595064c87b486f1d1bec660891610e92916001600160a01b03909116906119cc565b60405180910390a1505050505050505050610eb9600160055461155190919063ffffffff16565b600555565b60055490565b600061051b82670de0b6b3a7640000610714565b6000610efd610ef46004546005546110d490919063ffffffff16565b60035490611551565b905090565b600081815260208190526040812061051b906115ab565b604051806040016040528060048152602001635553444360e01b81525081565b7f000000000000000000000000000000000000000000000000000000000000000081565b600082815260208190526040902060020154610f7b90610353610ffe565b61070a5760405162461bcd60e51b8152600401808060200182810382526030815260200180611b8f6030913960400191505060405180910390fd5b6006546001600160a01b031681565b7f97667070c54ef182b0f5858b034beac1b6f3089aa2d3188bb1e8929f4fa9b92981565b6000610b14836001600160a01b0384166115b6565b3390565b600082815260208190526040902061101a9082610fe9565b156106af57611027610ffe565b6001600160a01b0316816001600160a01b0316837f2f8788117e7eff1d82e926ec794901d17c78024a50270940304540a733656f0d60405160405180910390a45050565b60008281526020819052604090206110839082611600565b156106af57611090610ffe565b6001600160a01b0316816001600160a01b0316837ff6391f5c32d9c69d2a47ea670b442974b53935d1edc7fd64eb21e047a839171b60405160405180910390a45050565b6000826110e35750600061051b565b828202828482816110f057fe5b0414610b145760405162461bcd60e51b8152600401808060200182810382526021815260200180611bbf6021913960400191505060405180910390fd5b6000808211611183576040805162461bcd60e51b815260206004820152601a60248201527f536166654d6174683a206469766973696f6e206279207a65726f000000000000604482015290519081900360640190fd5b81838161118c57fe5b049392505050565b6000828211156111eb576040805162461bcd60e51b815260206004820152601e60248201527f536166654d6174683a207375627472616374696f6e206f766572666c6f770000604482015290519081900360640190fd5b50900390565b6000610b148383611615565b6000610b14836001600160a01b038416611679565b60008060008360020b12611229578260020b611231565b8260020b6000035b9050620d89e881111561126f576040805162461bcd60e51b81526020600482015260016024820152601560fa1b604482015290519081900360640190fd5b600060018216611290577001000000000000000000000000000000006112a2565b6ffffcb933bd6fad37aa2d162d1a5940015b70ffffffffffffffffffffffffffffffffff16905060028216156112d6576ffff97272373d413259a46990580e213a0260801c5b60048216156112f5576ffff2e50f5f656932ef12357cf3c7fdcc0260801c5b6008821615611314576fffe5caca7e10e4e61c3624eaa0941cd00260801c5b6010821615611333576fffcb9843d60f6159c9db58835c9266440260801c5b6020821615611352576fff973b41fa98c081472e6896dfb254c00260801c5b6040821615611371576fff2ea16466c96a3843ec78b326b528610260801c5b6080821615611390576ffe5dee046a99a2a811c461f1969c30530260801c5b6101008216156113b0576ffcbe86c7900a88aedcffc83b479aa3a40260801c5b6102008216156113d0576ff987a7253ac413176f2b074cf7815e540260801c5b6104008216156113f0576ff3392b0822b70005940c7a398e4b70f30260801c5b610800821615611410576fe7159475a2c29b7443b29c7fa6e889d90260801c5b611000821615611430576fd097f3bdfd2022b8845ad8f792aa58250260801c5b612000821615611450576fa9f746462d870fdf8a65dc1f90e061e50260801c5b614000821615611470576f70d869a156d2a1b890bb3df62baf32f70260801c5b618000821615611490576f31be135f97d08fd981231505542fcfa60260801c5b620100008216156114b1576f09aa508b5b7a84e1c677de54f3e99bc90260801c5b620200008216156114d1576e5d6af8dedb81196699c329225ee6040260801c5b620400008216156114f0576d2216e584f5fa1ea926041bedfe980260801c5b6208000082161561150d576b048a170391f7dc42444e8fa20260801c5b60008460020b131561152857806000198161152457fe5b0490505b64010000000081061561153c57600161153f565b60005b60ff16602082901c0192505050919050565b600082820183811015610b14576040805162461bcd60e51b815260206004820152601b60248201527f536166654d6174683a206164646974696f6e206f766572666c6f770000000000604482015290519081900360640190fd5b600061051b82611691565b60006115c28383611679565b6115f85750815460018181018455600084815260208082209093018490558454848252828601909352604090209190915561051b565b50600061051b565b6000610b14836001600160a01b038416611695565b815460009082106116575760405162461bcd60e51b8152600401808060200182810382526022815260200180611a9c6022913960400191505060405180910390fd5b82600001828154811061166657fe5b9060005260206000200154905092915050565b60009081526001919091016020526040902054151590565b5490565b6000818152600183016020526040812054801561175157835460001980830191908101906000908790839081106116c857fe5b90600052602060002001549050808760000184815481106116e557fe5b60009182526020808320909101929092558281526001898101909252604090209084019055865487908061171557fe5b6001900381819060005260206000200160009055905586600101600087815260200190815260200160002060009055600194505050505061051b565b600091505061051b565b805180151581146104ea57600080fd5b805161ffff811681146104ea57600080fd5b60006020828403121561178e578081fd5b8135610b1481611a86565b600080604083850312156117ab578081fd5b82356117b681611a86565b946020939093013593505050565b6000602082840312156117d5578081fd5b5035919050565b600080604083850312156117ee578182fd5b82359150602083013561180081611a86565b809150509250929050565b6000806040838503121561181d578182fd5b50508035926020909101359150565b60006060828403121561183d578081fd5b6040516060810181811067ffffffffffffffff8211171561185a57fe5b80604052508251815260208301516020820152604083015160408201528091505092915050565b600080600080600080600060e0888a03121561189b578283fd5b87516118a681611a86565b8097505060208801518060020b81146118bd578384fd5b95506118cb6040890161176b565b94506118d96060890161176b565b93506118e76080890161176b565b925060a088015160ff811681146118fc578283fd5b915061190a60c0890161175b565b905092959891949750929550565b6000806000806080858703121561192d578384fd5b845163ffffffff81168114611940578485fd5b8094505060208501518060060b8114611957578384fd5b604086015190935061196881611a86565b91506119766060860161175b565b905092959194509250565b60008151808452815b818110156119a65760208185018101518683018201520161198a565b818111156119b75782602083870101525b50601f01601f19169290920160200192915050565b6001600160a01b0391909116815260200190565b901515815260200190565b90815260200190565b600060208252610b146020830184611981565b600060408252611a1a6040830185611981565b8281036020840152611a2c8185611981565b95945050505050565b60208082526022908201527f4578616d706c654f7261636c6553696d706c653a20494e56414c49445f544f4b60408201526122a760f11b606082015260800190565b61ffff91909116815260200190565b6001600160a01b038116811461064957600080fdfe456e756d657261626c655365743a20696e646578206f7574206f6620626f756e6473416363657373436f6e74726f6c3a2073656e646572206d75737420626520616e2061646d696e20746f206772616e744f70657261746f72416363657373436f6e74726f6c3a2073656e646572207265717569726573207065726d697373696f6e41646d696e416363657373436f6e74726f6c48656c7065723a207a65726f206164647265737320676976656e20666f72206e6577206f70657261746f7241646d696e416363657373436f6e74726f6c48656c7065723a2073656e646572207265717569726573207065726d697373696f6e416363657373436f6e74726f6c3a2073656e646572206d75737420626520616e2061646d696e20746f207265766f6b65536166654d6174683a206d756c7469706c69636174696f6e206f766572666c6f774f70657261746f72416363657373436f6e74726f6c3a207a65726f206164647265737320676976656e20666f72206e6577206f70657261746f72416363657373436f6e74726f6c3a2063616e206f6e6c792072656e6f756e636520726f6c657320666f722073656c66a164736f6c6343000706000a97667070c54ef182b0f5858b034beac1b6f3089aa2d3188bb1e8929f4fa9b929a49807205ce4d355092ef5a8a18f56e8913cf4a201fbe287825b095693c21775",
  "devdoc": {
    "kind": "dev",
    "methods": {
      "getRoleAdmin(bytes32)": {
        "details": "Returns the admin role that controls `role`. See {grantRole} and {revokeRole}. To change a role's admin, use {_setRoleAdmin}."
      },
      "getRoleMember(bytes32,uint256)": {
        "details": "Returns one of the accounts that have `role`. `index` must be a value between 0 and {getRoleMemberCount}, non-inclusive. Role bearers are not sorted in any particular way, and their ordering may change at any point. WARNING: When using {getRoleMember} and {getRoleMemberCount}, make sure you perform all queries on the same block. See the following https://forum.openzeppelin.com/t/iterating-over-elements-on-enumerableset-in-openzeppelin-contracts/2296[forum post] for more information."
      },
      "getRoleMemberCount(bytes32)": {
        "details": "Returns the number of accounts that have `role`. Can be used together with {getRoleMember} to enumerate all bearers of a role."
      },
      "grantRole(bytes32,address)": {
        "details": "Grants `role` to `account`. If `account` had not been already granted `role`, emits a {RoleGranted} event. Requirements: - the caller must have ``role``'s admin role."
      },
      "hasRole(bytes32,address)": {
        "details": "Returns `true` if `account` has been granted `role`."
      },
      "priceDollar()": {
        "returns": {
          "price": " Latest external price of the token multiplied by 1e18"
        }
      },
      "priceTWAP(address)": {
        "params": {
          "token": "Address of the token to get the average price for"
        },
        "returns": {
          "price": " Average price of the token multiplied by 1e18"
        }
      },
      "priceVariationPercentage(address)": {
        "params": {
          "token": "Address of the token to get price variation for"
        },
        "returns": {
          "percentage": " Price variation percentage multiplied by 1e18"
        }
      },
      "renounceRole(bytes32,address)": {
        "details": "Revokes `role` from the calling account. Roles are often managed via {grantRole} and {revokeRole}: this function's purpose is to provide a mechanism for accounts to lose their privileges if they are compromised (such as when a trusted device is misplaced). If the calling account had been granted `role`, emits a {RoleRevoked} event. Requirements: - the caller must be `account`."
      },
      "revokeRole(bytes32,address)": {
        "details": "Revokes `role` from `account`. If `account` had been granted `role`, emits a {RoleRevoked} event. Requirements: - the caller must have ``role``'s admin role."
      },
      "update()": {
        "details": "Updates 1-day EMA price from Uniswap"
      }
    },
    "version": 1
  },
  "userdoc": {
    "kind": "user",
    "methods": {
      "priceDollar()": {
        "notice": "Returns the latest known price from the external oracle for the USDC/USDT pair"
      },
      "priceTWAP(address)": {
        "notice": "Returns the latest updated average price for the given token"
      },
      "priceVariationPercentage(address)": {
        "notice": "Calculates the percentage of the price variation between the internal liquidity price and the external Oracle price"
      },
      "update()": {
        "notice": "Update the price from Uniswap"
      }
    },
    "notice": "Fixed window oracle that recomputes the average price for the entire period once every period note that the price average is only guaranteed to be over at least 1 period, but may be over a longer period",
    "version": 1
  },
  "storageLayout": {
    "storage": [
      {
        "astId": 22,
        "contract": "contracts/governance/Oracle.sol:Oracle",
        "label": "_roles",
        "offset": 0,
        "slot": "0",
        "type": "t_mapping(t_bytes32,t_struct(RoleData)18_storage)"
      },
      {
        "astId": 5152,
        "contract": "contracts/governance/Oracle.sol:Oracle",
        "label": "_admin",
        "offset": 0,
        "slot": "1",
        "type": "t_address"
      },
      {
        "astId": 5289,
        "contract": "contracts/governance/Oracle.sol:Oracle",
        "label": "_operator",
        "offset": 0,
        "slot": "2",
        "type": "t_address"
      },
      {
        "astId": 10194,
        "contract": "contracts/governance/Oracle.sol:Oracle",
        "label": "startTime",
        "offset": 0,
        "slot": "3",
        "type": "t_uint256"
      },
      {
        "astId": 10103,
        "contract": "contracts/governance/Oracle.sol:Oracle",
        "label": "_period",
        "offset": 0,
        "slot": "4",
        "type": "t_uint256"
      },
      {
        "astId": 10105,
        "contract": "contracts/governance/Oracle.sol:Oracle",
        "label": "_epoch",
        "offset": 0,
        "slot": "5",
        "type": "t_uint256"
      },
      {
        "astId": 7689,
        "contract": "contracts/governance/Oracle.sol:Oracle",
        "label": "averageSqrtPriceX96",
        "offset": 0,
        "slot": "6",
        "type": "t_uint160"
      }
    ],
    "types": {
      "t_address": {
        "encoding": "inplace",
        "label": "address",
        "numberOfBytes": "20"
      },
      "t_array(t_bytes32)dyn_storage": {
        "base": "t_bytes32",
        "encoding": "dynamic_array",
        "label": "bytes32[]",
        "numberOfBytes": "32"
      },
      "t_bytes32": {
        "encoding": "inplace",
        "label": "bytes32",
        "numberOfBytes": "32"
      },
      "t_mapping(t_bytes32,t_struct(RoleData)18_storage)": {
        "encoding": "mapping",
        "key": "t_bytes32",
        "label": "mapping(bytes32 => struct AccessControl.RoleData)",
        "numberOfBytes": "32",
        "value": "t_struct(RoleData)18_storage"
      },
      "t_mapping(t_bytes32,t_uint256)": {
        "encoding": "mapping",
        "key": "t_bytes32",
        "label": "mapping(bytes32 => uint256)",
        "numberOfBytes": "32",
        "value": "t_uint256"
      },
      "t_struct(AddressSet)3146_storage": {
        "encoding": "inplace",
        "label": "struct EnumerableSet.AddressSet",
        "members": [
          {
            "astId": 3145,
            "contract": "contracts/governance/Oracle.sol:Oracle",
            "label": "_inner",
            "offset": 0,
            "slot": "0",
            "type": "t_struct(Set)2881_storage"
          }
        ],
        "numberOfBytes": "64"
      },
      "t_struct(RoleData)18_storage": {
        "encoding": "inplace",
        "label": "struct AccessControl.RoleData",
        "members": [
          {
            "astId": 15,
            "contract": "contracts/governance/Oracle.sol:Oracle",
            "label": "members",
            "offset": 0,
            "slot": "0",
            "type": "t_struct(AddressSet)3146_storage"
          },
          {
            "astId": 17,
            "contract": "contracts/governance/Oracle.sol:Oracle",
            "label": "adminRole",
            "offset": 0,
            "slot": "2",
            "type": "t_bytes32"
          }
        ],
        "numberOfBytes": "96"
      },
      "t_struct(Set)2881_storage": {
        "encoding": "inplace",
        "label": "struct EnumerableSet.Set",
        "members": [
          {
            "astId": 2876,
            "contract": "contracts/governance/Oracle.sol:Oracle",
            "label": "_values",
            "offset": 0,
            "slot": "0",
            "type": "t_array(t_bytes32)dyn_storage"
          },
          {
            "astId": 2880,
            "contract": "contracts/governance/Oracle.sol:Oracle",
            "label": "_indexes",
            "offset": 0,
            "slot": "1",
            "type": "t_mapping(t_bytes32,t_uint256)"
          }
        ],
        "numberOfBytes": "64"
      },
      "t_uint160": {
        "encoding": "inplace",
        "label": "uint160",
        "numberOfBytes": "20"
      },
      "t_uint256": {
        "encoding": "inplace",
        "label": "uint256",
        "numberOfBytes": "32"
      }
    }
  }
}