{
  "address": "0xB72BCaAb018CdAA60A27B12D386D8604286cB797",
  "abi": [
    {
      "inputs": [
        {
          "internalType": "contract IERC20",
          "name": "_token0",
          "type": "address"
        },
        {
          "internalType": "contract IERC20",
          "name": "_token1",
          "type": "address"
        },
        {
          "internalType": "contract IERC20",
          "name": "_token2",
          "type": "address"
        },
        {
          "internalType": "uint256",
          "name": "_maxAmount",
          "type": "uint256"
        },
        {
          "internalType": "address[]",
          "name": "_admins",
          "type": "address[]"
        }
      ],
      "stateMutability": "nonpayable",
      "type": "constructor"
    },
    {
      "inputs": [
        {
          "internalType": "address",
          "name": "",
          "type": "address"
        }
      ],
      "name": "admins",
      "outputs": [
        {
          "internalType": "bool",
          "name": "",
          "type": "bool"
        }
      ],
      "stateMutability": "view",
      "type": "function"
    },
    {
      "inputs": [],
      "name": "maxAmount",
      "outputs": [
        {
          "internalType": "uint256",
          "name": "",
          "type": "uint256"
        }
      ],
      "stateMutability": "view",
      "type": "function"
    },
    {
      "inputs": [],
      "name": "refill",
      "outputs": [],
      "stateMutability": "nonpayable",
      "type": "function"
    },
    {
      "inputs": [],
      "name": "token0",
      "outputs": [
        {
          "internalType": "contract IERC20",
          "name": "",
          "type": "address"
        }
      ],
      "stateMutability": "view",
      "type": "function"
    },
    {
      "inputs": [],
      "name": "token1",
      "outputs": [
        {
          "internalType": "contract IERC20",
          "name": "",
          "type": "address"
        }
      ],
      "stateMutability": "view",
      "type": "function"
    },
    {
      "inputs": [],
      "name": "token2",
      "outputs": [
        {
          "internalType": "contract IERC20",
          "name": "",
          "type": "address"
        }
      ],
      "stateMutability": "view",
      "type": "function"
    }
  ],
  "transactionHash": "0x0ce8efdd4fba9f78d10077aaf1b80f8106da487685a9b581603a71fe87b6df97",
  "args": [
    "0x44b893e21922134e94f1745878F0a3aa8e133bd4",
    "0xE04623096b0Bbe0d022dF42351939d8ABF0bEB04",
    "0xE04623096b0Bbe0d022dF42351939d8ABF0bEB04",
    "100000000000000000000",
    [
      "0xF9D5169aA864C1Ddda2Aba931Edf722f98B2D159",
      "0x8a612956aBAF09C37e4372d7890835294080eb30",
      "0xF9D5169aA864C1Ddda2Aba931Edf722f98B2D159",
      "0x47Ce08590BdB1162EaDE736EfaAbf2aa2d5C8C92"
    ]
  ],
  "solcInputHash": "7e43bdcff6e907c345057c88f4245ad4",
  "bytecode": "0x608060405234801561001057600080fd5b50604051610926380380610926833981810160405260a081101561003357600080fd5b815160208301516040808501516060860151608087018051935195979496929591949193928201928464010000000082111561006e57600080fd5b90830190602082018581111561008357600080fd5b82518660208202830111640100000000821117156100a057600080fd5b82525081516020918201928201910280838360005b838110156100cd5781810151838201526020016100b5565b50505050919091016040525050600080546001600160a01b03808a166001600160a01b0319928316178355600180548a8316908416179055600280549189169190921617905560038590559150505b81518110156101715760016004600084848151811061013757fe5b6020908102919091018101516001600160a01b03168252810191909152604001600020805460ff191691151591909117905560010161011c565b5050505050506107a0806101866000396000f3fe608060405234801561001057600080fd5b50600436106100725760003560e01c8063538e075911610050578063538e0759146100dd5780635f48f393146100e7578063d21220a71461010157610072565b80630dfe16811461007757806325be124e1461009b578063429b62e5146100a3575b600080fd5b61007f610109565b604080516001600160a01b039092168252519081900360200190f35b61007f610118565b6100c9600480360360208110156100b957600080fd5b50356001600160a01b0316610127565b604080519115158252519081900360200190f35b6100e561013c565b005b6100ef610392565b60408051918252519081900360200190f35b61007f610398565b6000546001600160a01b031681565b6002546001600160a01b031681565b60046020526000908152604090205460ff1681565b6003546004600061014b6103a7565b6001600160a01b0316815260208101919091526040016000205460ff1615610171576014025b600080546001600160a01b03166370a0823161018b6103a7565b6040518263ffffffff1660e01b815260040180826001600160a01b0316815260200191505060206040518083038186803b1580156101c857600080fd5b505afa1580156101dc573d6000803e3d6000fd5b505050506040513d60208110156101f257600080fd5b5051905081811015610226576102266102096103a7565b61021384846103ab565b6000546001600160a01b03169190610408565b6001546001600160a01b03166370a0823161023f6103a7565b6040518263ffffffff1660e01b815260040180826001600160a01b0316815260200191505060206040518083038186803b15801561027c57600080fd5b505afa158015610290573d6000803e3d6000fd5b505050506040513d60208110156102a657600080fd5b50519050818110156102da576102da6102bd6103a7565b6102c784846103ab565b6001546001600160a01b03169190610408565b6002546001600160a01b03166370a082316102f36103a7565b6040518263ffffffff1660e01b815260040180826001600160a01b0316815260200191505060206040518083038186803b15801561033057600080fd5b505afa158015610344573d6000803e3d6000fd5b505050506040513d602081101561035a57600080fd5b505190508181101561038e5761038e6103716103a7565b61037b84846103ab565b6002546001600160a01b03169190610408565b5050565b60035481565b6001546001600160a01b031681565b3390565b600082821115610402576040805162461bcd60e51b815260206004820152601e60248201527f536166654d6174683a207375627472616374696f6e206f766572666c6f770000604482015290519081900360640190fd5b50900390565b604080516001600160a01b038416602482015260448082018490528251808303909101815260649091019091526020810180517bffffffffffffffffffffffffffffffffffffffffffffffffffffffff1663a9059cbb60e01b17905261046f908490610474565b505050565b60006104c9826040518060400160405280602081526020017f5361666545524332303a206c6f772d6c6576656c2063616c6c206661696c6564815250856001600160a01b03166105259092919063ffffffff16565b80519091501561046f578080602001905160208110156104e857600080fd5b505161046f5760405162461bcd60e51b815260040180806020018281038252602a81526020018061076a602a913960400191505060405180910390fd5b6060610534848460008561053e565b90505b9392505050565b60608247101561057f5760405162461bcd60e51b81526004018080602001828103825260268152602001806107446026913960400191505060405180910390fd5b61058885610699565b6105d9576040805162461bcd60e51b815260206004820152601d60248201527f416464726573733a2063616c6c20746f206e6f6e2d636f6e7472616374000000604482015290519081900360640190fd5b600080866001600160a01b031685876040518082805190602001908083835b602083106106175780518252601f1990920191602091820191016105f8565b6001836020036101000a03801982511681845116808217855250505050505090500191505060006040518083038185875af1925050503d8060008114610679576040519150601f19603f3d011682016040523d82523d6000602084013e61067e565b606091505b509150915061068e82828661069f565b979650505050505050565b3b151590565b606083156106ae575081610537565b8251156106be5782518084602001fd5b8160405162461bcd60e51b81526004018080602001828103825283818151815260200191508051906020019080838360005b838110156107085781810151838201526020016106f0565b50505050905090810190601f1680156107355780820380516001836020036101000a031916815260200191505b509250505060405180910390fdfe416464726573733a20696e73756666696369656e742062616c616e636520666f722063616c6c5361666545524332303a204552433230206f7065726174696f6e20646964206e6f742073756363656564a164736f6c6343000706000a",
  "devdoc": {
    "kind": "dev",
    "methods": {},
    "version": 1
  },
  "userdoc": {
    "kind": "user",
    "methods": {},
    "notice": "Contract to provide with token funds to the caller",
    "version": 1
  },
  "storageLayout": {
    "storage": [
      {
        "astId": 9690,
        "contract": "contracts/test/TokenFaucet.sol:TokenFaucet",
        "label": "token0",
        "offset": 0,
        "slot": "0",
        "type": "t_contract(IERC20)2146"
      },
      {
        "astId": 9692,
        "contract": "contracts/test/TokenFaucet.sol:TokenFaucet",
        "label": "token1",
        "offset": 0,
        "slot": "1",
        "type": "t_contract(IERC20)2146"
      },
      {
        "astId": 9694,
        "contract": "contracts/test/TokenFaucet.sol:TokenFaucet",
        "label": "token2",
        "offset": 0,
        "slot": "2",
        "type": "t_contract(IERC20)2146"
      },
      {
        "astId": 9696,
        "contract": "contracts/test/TokenFaucet.sol:TokenFaucet",
        "label": "maxAmount",
        "offset": 0,
        "slot": "3",
        "type": "t_uint256"
      },
      {
        "astId": 9700,
        "contract": "contracts/test/TokenFaucet.sol:TokenFaucet",
        "label": "admins",
        "offset": 0,
        "slot": "4",
        "type": "t_mapping(t_address,t_bool)"
      }
    ],
    "types": {
      "t_address": {
        "encoding": "inplace",
        "label": "address",
        "numberOfBytes": "20"
      },
      "t_bool": {
        "encoding": "inplace",
        "label": "bool",
        "numberOfBytes": "1"
      },
      "t_contract(IERC20)2146": {
        "encoding": "inplace",
        "label": "contract IERC20",
        "numberOfBytes": "20"
      },
      "t_mapping(t_address,t_bool)": {
        "encoding": "mapping",
        "key": "t_address",
        "label": "mapping(address => bool)",
        "numberOfBytes": "32",
        "value": "t_bool"
      },
      "t_uint256": {
        "encoding": "inplace",
        "label": "uint256",
        "numberOfBytes": "32"
      }
    }
  }
}