{
    "address": "0xE92a71962773ec611713d775D1Ee47F3d2DF9d19",
    "abi": [
        {
            "inputs": [
                {
                    "internalType": "address",
                    "name": "_antToken",
                    "type": "address"
                },
                {
                    "internalType": "address",
                    "name": "_antBond",
                    "type": "address"
                },
                {
                    "internalType": "address",
                    "name": "_antShare",
                    "type": "address"
                },
                {
                    "internalType": "contract IOracle",
                    "name": "_oracle",
                    "type": "address"
                },
                {
                    "internalType": "address",
                    "name": "_boardroom",
                    "type": "address"
                },
                {
                    "internalType": "address",
                    "name": "_fund",
                    "type": "address"
                },
                {
                    "internalType": "uint256",
                    "name": "_startTime",
                    "type": "uint256"
                },
                {
                    "internalType": "uint256",
                    "name": "_period",
                    "type": "uint256"
                }
            ],
            "stateMutability": "nonpayable",
            "type": "constructor"
        },
        {
            "anonymous": false,
            "inputs": [
                {
                    "indexed": false,
                    "internalType": "uint256",
                    "name": "timestamp",
                    "type": "uint256"
                },
                {
                    "indexed": false,
                    "internalType": "uint256",
                    "name": "seigniorage",
                    "type": "uint256"
                }
            ],
            "name": "BoardroomFunded",
            "type": "event"
        },
        {
            "anonymous": false,
            "inputs": [
                {
                    "indexed": true,
                    "internalType": "address",
                    "name": "from",
                    "type": "address"
                },
                {
                    "indexed": false,
                    "internalType": "uint256",
                    "name": "amount",
                    "type": "uint256"
                }
            ],
            "name": "BoughtAntBonds",
            "type": "event"
        },
        {
            "anonymous": false,
            "inputs": [
                {
                    "indexed": true,
                    "internalType": "address",
                    "name": "operator",
                    "type": "address"
                },
                {
                    "indexed": false,
                    "internalType": "address",
                    "name": "newFund",
                    "type": "address"
                }
            ],
            "name": "ContributionPoolChanged",
            "type": "event"
        },
        {
            "anonymous": false,
            "inputs": [
                {
                    "indexed": false,
                    "internalType": "uint256",
                    "name": "timestamp",
                    "type": "uint256"
                },
                {
                    "indexed": false,
                    "internalType": "uint256",
                    "name": "seigniorage",
                    "type": "uint256"
                }
            ],
            "name": "ContributionPoolFunded",
            "type": "event"
        },
        {
            "anonymous": false,
            "inputs": [
                {
                    "indexed": true,
                    "internalType": "address",
                    "name": "operator",
                    "type": "address"
                },
                {
                    "indexed": false,
                    "internalType": "uint256",
                    "name": "newRate",
                    "type": "uint256"
                }
            ],
            "name": "ContributionPoolRateChanged",
            "type": "event"
        },
        {
            "anonymous": false,
            "inputs": [
                {
                    "indexed": true,
                    "internalType": "address",
                    "name": "target",
                    "type": "address"
                }
            ],
            "name": "Migration",
            "type": "event"
        },
        {
            "anonymous": false,
            "inputs": [
                {
                    "indexed": true,
                    "internalType": "address",
                    "name": "from",
                    "type": "address"
                },
                {
                    "indexed": false,
                    "internalType": "uint256",
                    "name": "amount",
                    "type": "uint256"
                }
            ],
            "name": "RedeemedAntBonds",
            "type": "event"
        },
        {
            "anonymous": false,
            "inputs": [
                {
                    "indexed": true,
                    "internalType": "bytes32",
                    "name": "role",
                    "type": "bytes32"
                },
                {
                    "indexed": true,
                    "internalType": "bytes32",
                    "name": "previousAdminRole",
                    "type": "bytes32"
                },
                {
                    "indexed": true,
                    "internalType": "bytes32",
                    "name": "newAdminRole",
                    "type": "bytes32"
                }
            ],
            "name": "RoleAdminChanged",
            "type": "event"
        },
        {
            "anonymous": false,
            "inputs": [
                {
                    "indexed": true,
                    "internalType": "bytes32",
                    "name": "role",
                    "type": "bytes32"
                },
                {
                    "indexed": true,
                    "internalType": "address",
                    "name": "account",
                    "type": "address"
                },
                {
                    "indexed": true,
                    "internalType": "address",
                    "name": "sender",
                    "type": "address"
                }
            ],
            "name": "RoleGranted",
            "type": "event"
        },
        {
            "anonymous": false,
            "inputs": [
                {
                    "indexed": true,
                    "internalType": "bytes32",
                    "name": "role",
                    "type": "bytes32"
                },
                {
                    "indexed": true,
                    "internalType": "address",
                    "name": "account",
                    "type": "address"
                },
                {
                    "indexed": true,
                    "internalType": "address",
                    "name": "sender",
                    "type": "address"
                }
            ],
            "name": "RoleRevoked",
            "type": "event"
        },
        {
            "anonymous": false,
            "inputs": [
                {
                    "indexed": false,
                    "internalType": "uint256",
                    "name": "timestamp",
                    "type": "uint256"
                },
                {
                    "indexed": false,
                    "internalType": "uint256",
                    "name": "seigniorage",
                    "type": "uint256"
                }
            ],
            "name": "TreasuryFunded",
            "type": "event"
        },
        {
            "inputs": [],
            "name": "ADMIN_ACCESS_ROLE",
            "outputs": [
                {
                    "internalType": "bytes32",
                    "name": "",
                    "type": "bytes32"
                }
            ],
            "stateMutability": "view",
            "type": "function"
        },
        {
            "inputs": [],
            "name": "ADMIN_ROLE",
            "outputs": [
                {
                    "internalType": "bytes32",
                    "name": "",
                    "type": "bytes32"
                }
            ],
            "stateMutability": "view",
            "type": "function"
        },
        {
            "inputs": [],
            "name": "DEFAULT_ADMIN_ROLE",
            "outputs": [
                {
                    "internalType": "bytes32",
                    "name": "",
                    "type": "bytes32"
                }
            ],
            "stateMutability": "view",
            "type": "function"
        },
        {
            "inputs": [],
            "name": "OPERATOR_ROLE",
            "outputs": [
                {
                    "internalType": "bytes32",
                    "name": "",
                    "type": "bytes32"
                }
            ],
            "stateMutability": "view",
            "type": "function"
        },
        {
            "inputs": [],
            "name": "allocateSeigniorage",
            "outputs": [],
            "stateMutability": "nonpayable",
            "type": "function"
        },
        {
            "inputs": [],
            "name": "antBond",
            "outputs": [
                {
                    "internalType": "address",
                    "name": "",
                    "type": "address"
                }
            ],
            "stateMutability": "view",
            "type": "function"
        },
        {
            "inputs": [],
            "name": "antShare",
            "outputs": [
                {
                    "internalType": "address",
                    "name": "",
                    "type": "address"
                }
            ],
            "stateMutability": "view",
            "type": "function"
        },
        {
            "inputs": [],
            "name": "antToken",
            "outputs": [
                {
                    "internalType": "address",
                    "name": "",
                    "type": "address"
                }
            ],
            "stateMutability": "view",
            "type": "function"
        },
        {
            "inputs": [],
            "name": "boardroom",
            "outputs": [
                {
                    "internalType": "address",
                    "name": "",
                    "type": "address"
                }
            ],
            "stateMutability": "view",
            "type": "function"
        },
        {
            "inputs": [
                {
                    "internalType": "uint256",
                    "name": "amountAntToken",
                    "type": "uint256"
                },
                {
                    "internalType": "uint256",
                    "name": "targetPrice",
                    "type": "uint256"
                }
            ],
            "name": "buyAntBonds",
            "outputs": [],
            "stateMutability": "nonpayable",
            "type": "function"
        },
        {
            "inputs": [],
            "name": "fund",
            "outputs": [
                {
                    "internalType": "address",
                    "name": "",
                    "type": "address"
                }
            ],
            "stateMutability": "view",
            "type": "function"
        },
        {
            "inputs": [],
            "name": "fundAllocationRate",
            "outputs": [
                {
                    "internalType": "uint256",
                    "name": "",
                    "type": "uint256"
                }
            ],
            "stateMutability": "view",
            "type": "function"
        },
        {
            "inputs": [],
            "name": "getCurrentEpoch",
            "outputs": [
                {
                    "internalType": "uint256",
                    "name": "",
                    "type": "uint256"
                }
            ],
            "stateMutability": "view",
            "type": "function"
        },
        {
            "inputs": [],
            "name": "getPeriod",
            "outputs": [
                {
                    "internalType": "uint256",
                    "name": "",
                    "type": "uint256"
                }
            ],
            "stateMutability": "view",
            "type": "function"
        },
        {
            "inputs": [],
            "name": "getReserve",
            "outputs": [
                {
                    "internalType": "uint256",
                    "name": "",
                    "type": "uint256"
                }
            ],
            "stateMutability": "view",
            "type": "function"
        },
        {
            "inputs": [
                {
                    "internalType": "bytes32",
                    "name": "role",
                    "type": "bytes32"
                }
            ],
            "name": "getRoleAdmin",
            "outputs": [
                {
                    "internalType": "bytes32",
                    "name": "",
                    "type": "bytes32"
                }
            ],
            "stateMutability": "view",
            "type": "function"
        },
        {
            "inputs": [
                {
                    "internalType": "bytes32",
                    "name": "role",
                    "type": "bytes32"
                },
                {
                    "internalType": "uint256",
                    "name": "index",
                    "type": "uint256"
                }
            ],
            "name": "getRoleMember",
            "outputs": [
                {
                    "internalType": "address",
                    "name": "",
                    "type": "address"
                }
            ],
            "stateMutability": "view",
            "type": "function"
        },
        {
            "inputs": [
                {
                    "internalType": "bytes32",
                    "name": "role",
                    "type": "bytes32"
                }
            ],
            "name": "getRoleMemberCount",
            "outputs": [
                {
                    "internalType": "uint256",
                    "name": "",
                    "type": "uint256"
                }
            ],
            "stateMutability": "view",
            "type": "function"
        },
        {
            "inputs": [
                {
                    "internalType": "bytes32",
                    "name": "role",
                    "type": "bytes32"
                },
                {
                    "internalType": "address",
                    "name": "account",
                    "type": "address"
                }
            ],
            "name": "grantRole",
            "outputs": [],
            "stateMutability": "nonpayable",
            "type": "function"
        },
        {
            "inputs": [
                {
                    "internalType": "bytes32",
                    "name": "role",
                    "type": "bytes32"
                },
                {
                    "internalType": "address",
                    "name": "account",
                    "type": "address"
                }
            ],
            "name": "hasRole",
            "outputs": [
                {
                    "internalType": "bool",
                    "name": "",
                    "type": "bool"
                }
            ],
            "stateMutability": "view",
            "type": "function"
        },
        {
            "inputs": [],
            "name": "initialized",
            "outputs": [
                {
                    "internalType": "bool",
                    "name": "",
                    "type": "bool"
                }
            ],
            "stateMutability": "view",
            "type": "function"
        },
        {
            "inputs": [
                {
                    "internalType": "address",
                    "name": "account",
                    "type": "address"
                }
            ],
            "name": "isAdmin",
            "outputs": [
                {
                    "internalType": "bool",
                    "name": "",
                    "type": "bool"
                }
            ],
            "stateMutability": "view",
            "type": "function"
        },
        {
            "inputs": [
                {
                    "internalType": "address",
                    "name": "account",
                    "type": "address"
                }
            ],
            "name": "isOperator",
            "outputs": [
                {
                    "internalType": "bool",
                    "name": "",
                    "type": "bool"
                }
            ],
            "stateMutability": "view",
            "type": "function"
        },
        {
            "inputs": [
                {
                    "internalType": "address",
                    "name": "target",
                    "type": "address"
                }
            ],
            "name": "migrate",
            "outputs": [],
            "stateMutability": "nonpayable",
            "type": "function"
        },
        {
            "inputs": [],
            "name": "migrated",
            "outputs": [
                {
                    "internalType": "bool",
                    "name": "",
                    "type": "bool"
                }
            ],
            "stateMutability": "view",
            "type": "function"
        },
        {
            "inputs": [],
            "name": "nextEpochPoint",
            "outputs": [
                {
                    "internalType": "uint256",
                    "name": "",
                    "type": "uint256"
                }
            ],
            "stateMutability": "view",
            "type": "function"
        },
        {
            "inputs": [],
            "name": "oracle",
            "outputs": [
                {
                    "internalType": "contract IOracle",
                    "name": "",
                    "type": "address"
                }
            ],
            "stateMutability": "view",
            "type": "function"
        },
        {
            "inputs": [],
            "name": "priceDollar",
            "outputs": [
                {
                    "internalType": "uint256",
                    "name": "",
                    "type": "uint256"
                }
            ],
            "stateMutability": "view",
            "type": "function"
        },
        {
            "inputs": [
                {
                    "internalType": "uint256",
                    "name": "amountAntBonds",
                    "type": "uint256"
                },
                {
                    "internalType": "uint256",
                    "name": "targetPrice",
                    "type": "uint256"
                }
            ],
            "name": "redeemAntBonds",
            "outputs": [],
            "stateMutability": "nonpayable",
            "type": "function"
        },
        {
            "inputs": [
                {
                    "internalType": "bytes32",
                    "name": "role",
                    "type": "bytes32"
                },
                {
                    "internalType": "address",
                    "name": "account",
                    "type": "address"
                }
            ],
            "name": "renounceRole",
            "outputs": [],
            "stateMutability": "nonpayable",
            "type": "function"
        },
        {
            "inputs": [
                {
                    "internalType": "bytes32",
                    "name": "role",
                    "type": "bytes32"
                },
                {
                    "internalType": "address",
                    "name": "account",
                    "type": "address"
                }
            ],
            "name": "revokeRole",
            "outputs": [],
            "stateMutability": "nonpayable",
            "type": "function"
        },
        {
            "inputs": [
                {
                    "internalType": "address",
                    "name": "newFund",
                    "type": "address"
                }
            ],
            "name": "setFund",
            "outputs": [],
            "stateMutability": "nonpayable",
            "type": "function"
        },
        {
            "inputs": [
                {
                    "internalType": "uint256",
                    "name": "rate",
                    "type": "uint256"
                }
            ],
            "name": "setFundAllocationRate",
            "outputs": [],
            "stateMutability": "nonpayable",
            "type": "function"
        },
        {
            "inputs": [
                {
                    "internalType": "uint256",
                    "name": "period",
                    "type": "uint256"
                }
            ],
            "name": "setPeriod",
            "outputs": [],
            "stateMutability": "nonpayable",
            "type": "function"
        },
        {
            "inputs": [],
            "name": "startTime",
            "outputs": [
                {
                    "internalType": "uint256",
                    "name": "",
                    "type": "uint256"
                }
            ],
            "stateMutability": "view",
            "type": "function"
        },
        {
            "inputs": [],
            "name": "tokenPriceCeiling",
            "outputs": [
                {
                    "internalType": "uint256",
                    "name": "",
                    "type": "uint256"
                }
            ],
            "stateMutability": "view",
            "type": "function"
        },
        {
            "inputs": [],
            "name": "tokenPriceTWAP",
            "outputs": [
                {
                    "internalType": "uint256",
                    "name": "",
                    "type": "uint256"
                }
            ],
            "stateMutability": "view",
            "type": "function"
        },
        {
            "inputs": [
                {
                    "internalType": "address",
                    "name": "newAdmin",
                    "type": "address"
                }
            ],
            "name": "transferAdmin",
            "outputs": [],
            "stateMutability": "nonpayable",
            "type": "function"
        },
        {
            "inputs": [
                {
                    "internalType": "address",
                    "name": "newOperator",
                    "type": "address"
                }
            ],
            "name": "transferOperator",
            "outputs": [],
            "stateMutability": "nonpayable",
            "type": "function"
        }
    ],
    "transactionHash": "0xb56faaa7b1069d6faca8a546c86f4288fd819cf5bfc8769a1ffa3a738de47e7d",
    "args": [
        "0x8fae44D3A61FE646DF2244839822939E8147431b",
        "0x44b893e21922134e94f1745878F0a3aa8e133bd4",
        "0xC5c78965eaeb0eFc402349A533f97C232C8DFBb8",
        "0x94a181d3498b37BF958dF0a10eEc5111cB063Ecd",
        "0xc306CE1067277f2F7606A84EbDe82969fF5BD2D6",
        "0x1BE0B66B483F705DD5f6721B3cCd2792787Ed83A",
        1619777245,
        600
    ],
    "solcInputHash": "7e43bdcff6e907c345057c88f4245ad4",
    "bytecode": "0x60a06040526007805461ffff191690556000600d556002600e553480156200002657600080fd5b5060405162003cab38038062003cab83398181016040526101008110156200004d57600080fd5b508051602082015160408301516060840151608085015160a086015160c087015160e090970151959694959394929391929091808260008160008051602062003c8b8339815191526200009f62000206565b608091909152600280546001600160a01b0319166001600160a01b03909216919091179055620000df60008051602062003c8b833981519152806200020a565b6200010360008051602062003c8b833981519152620000fd62000206565b6200025c565b6200012d60008051602062003c6b83398151915260008051602062003c8b8339815191526200020a565b6200013762000206565b600380546001600160a01b0319166001600160a01b039283161790819055620001729160008051602062003c6b83398151915291166200025c565b600455600592909255506006555050600880546001600160a01b039788166001600160a01b0319918216179091556009805496881696821696909617909555600a805494871694861694909417909355600c805492861692851692909217909155600b805491851691909316179091556007805491909216620100000262010000600160b01b03199091161790556200036e565b3390565b600082815260016020526040808220600201549051839285917fbd79b86ffe0ab8e8776151514217cd7cacd52c909f66475c3af44e129f0b00ff9190a460009182526001602052604090912060020155565b6200026882826200026c565b5050565b60008281526001602090815260409091206200029391839062002c0f620002e7821b17901c565b156200026857620002a362000206565b6001600160a01b0316816001600160a01b0316837f2f8788117e7eff1d82e926ec794901d17c78024a50270940304540a733656f0d60405160405180910390a45050565b6000620002fe836001600160a01b03841662000307565b90505b92915050565b600062000315838362000356565b6200034d5750815460018181018455600084815260208082209093018490558454848252828601909352604090209190915562000301565b50600062000301565b60009081526001919091016020526040902054151590565b6080516138c9620003a2600039806108435280610873528061142352806114cf52806114fd52806117a852506138c96000f3fe608060405234801561001057600080fd5b50600436106102ad5760003560e01c806378e979251161017b578063c3f490db116100d8578063d547741f1161008c578063e6234d5b11610071578063e6234d5b146105e4578063e8673f03146105ec578063f5b541a61461060f576102ad565b8063d547741f14610595578063e2b69b66146105c1576102ad565b8063ca15c873116100bd578063ca15c8731461054a578063cc3ad7da14610567578063ce5494bb1461056f576102ad565b8063c3f490db1461053a578063c5967c2614610542576102ad565b806395b1828a1161012f578063b60d428811610114578063b60d428814610522578063b97dd9e21461052a578063c1aa390014610532576102ad565b806395b1828a146104fd578063a217fddf1461051a576102ad565b8063839cf65211610160578063839cf652146104a65780639010d07c146104ae57806391d14854146104d1576102ad565b806378e97925146104965780637dc0d1d01461049e576102ad565b80632f2ff15d116102295780635b756179116101dd5780636d70f7ae116101c25780636d70f7ae1461044257806375829def1461046857806375b238fc1461048e576102ad565b80635b756179146104325780635e02c51e1461043a576102ad565b80634b75e5271161020e5780634b75e527146103fe5780634ec42e8e1461040657806359bf5d391461042a576102ad565b80632f2ff15d146103a657806336568abe146103d2576102ad565b80631ed241951161028057806324d7806c1161026557806324d7806c1461035257806329605e77146103785780632c678c641461039e576102ad565b80631ed241951461032d578063248a9ca314610335576102ad565b80630e21750f146102b25780630ef590a6146102da5780630f3a9f65146102f4578063158ef93e14610311575b600080fd5b6102d8600480360360208110156102c857600080fd5b50356001600160a01b0316610617565b005b6102e261070f565b60408051918252519081900360200190f35b6102d86004803603602081101561030a57600080fd5b50356107a7565b610319610813565b604080519115158252519081900360200190f35b6102e2610821565b6102e26004803603602081101561034b57600080fd5b5035610827565b6103196004803603602081101561036857600080fd5b50356001600160a01b031661083c565b6102d86004803603602081101561038e57600080fd5b50356001600160a01b031661086e565b6103196109a6565b6102d8600480360360408110156103bc57600080fd5b50803590602001356001600160a01b03166109af565b6102d8600480360360408110156103e857600080fd5b50803590602001356001600160a01b0316610a16565b6102e2610a77565b61040e610b23565b604080516001600160a01b039092168252519081900360200190f35b6102e2610b32565b6102d8610b38565b61040e6113e3565b6103196004803603602081101561045857600080fd5b50356001600160a01b03166113f2565b6102d86004803603602081101561047e57600080fd5b50356001600160a01b031661141e565b6102e261155a565b6102e261157e565b61040e611584565b61040e611593565b61040e600480360360408110156104c457600080fd5b50803590602001356115a2565b610319600480360360408110156104e757600080fd5b50803590602001356001600160a01b03166115c1565b6102d86004803603602081101561051357600080fd5b50356115d9565b6102e2611690565b61040e611695565b6102e26116aa565b6102e26116b0565b6102e26116b6565b6102e261176a565b6102e26004803603602081101561056057600080fd5b503561178f565b6102e26117a6565b6102d86004803603602081101561058557600080fd5b50356001600160a01b03166117ca565b6102d8600480360360408110156105ab57600080fd5b50803590602001356001600160a01b0316611f2a565b6102d8600480360360408110156105d757600080fd5b5080359060200135611f83565b61040e612595565b6102d86004803603604081101561060257600080fd5b50803590602001356125a4565b6102e2612beb565b6106487f97667070c54ef182b0f5858b034beac1b6f3089aa2d3188bb1e8929f4fa9b929610643612c24565b6115c1565b6106835760405162461bcd60e51b81526004018080602001828103825260318152602001806135c56031913960400191505060405180910390fd5b600780547fffffffffffffffffffff0000000000000000000000000000000000000000ffff16620100006001600160a01b038416021790556106c3612c24565b6001600160a01b03167f970b0c70d6e9879d19345f9dbfd8bacae71546478b8bb2d8a56ad8927d3d436e8260405180826001600160a01b0316815260200191505060405180910390a250565b60006107a1606461079b6069600c60009054906101000a90046001600160a01b03166001600160a01b0316634b75e5276040518163ffffffff1660e01b815260040160206040518083038186803b15801561076957600080fd5b505afa15801561077d573d6000803e3d6000fd5b505050506040513d602081101561079357600080fd5b505190612c28565b90612c81565b90505b90565b6107d37f97667070c54ef182b0f5858b034beac1b6f3089aa2d3188bb1e8929f4fa9b929610643612c24565b61080e5760405162461bcd60e51b81526004018080602001828103825260318152602001806135c56031913960400191505060405180910390fd5b600555565b600754610100900460ff1681565b60055490565b60009081526001602052604090206002015490565b60006108687f0000000000000000000000000000000000000000000000000000000000000000836115c1565b92915050565b61089a7f0000000000000000000000000000000000000000000000000000000000000000610643612c24565b6108d55760405162461bcd60e51b81526004018080602001828103825260348152602001806136336034913960400191505060405180910390fd5b6001600160a01b03811661091a5760405162461bcd60e51b815260040180806020018281038252603a815260200180613791603a913960400191505060405180910390fd5b600354610951907f97667070c54ef182b0f5858b034beac1b6f3089aa2d3188bb1e8929f4fa9b929906001600160a01b0316611f2a565b6003805473ffffffffffffffffffffffffffffffffffffffff19166001600160a01b0383161790556109a37f97667070c54ef182b0f5858b034beac1b6f3089aa2d3188bb1e8929f4fa9b929826109af565b50565b60075460ff1681565b6000828152600160205260409020600201546109cd90610643612c24565b610a085760405162461bcd60e51b815260040180806020018281038252602f815260200180613558602f913960400191505060405180910390fd5b610a128282612ce8565b5050565b610a1e612c24565b6001600160a01b0316816001600160a01b031614610a6d5760405162461bcd60e51b815260040180806020018281038252602f81526020018061388e602f913960400191505060405180910390fd5b610a128282612d51565b600c5460408051634b75e52760e01b815290516000926001600160a01b031691634b75e527916004808301926020929190829003018186803b158015610abc57600080fd5b505afa925050508015610ae157506040513d6020811015610adc57600080fd5b505160015b610b1c5760405162461bcd60e51b81526004018080602001828103825260448152602001806136676044913960600191505060405180910390fd5b90506107a4565b6008546001600160a01b031681565b600d5490565b610b40612dba565b15610b7c5760405162461bcd60e51b81526004018080602001828103825260268152602001806138356026913960400191505060405180910390fd5b610b84612dd9565b15610bc05760405162461bcd60e51b81526004018080602001828103825260268152602001806138356026913960400191505060405180910390fd5b60075460ff1615610c0d576040805162461bcd60e51b8152602060048201526012602482015271151c99585cdd5c9e4e881b5a59dc985d195960721b604482015290519081900360640190fd5b600454421015610c64576040805162461bcd60e51b815260206004820152601e60248201527f537461727454696d654c6f636b3a206e6f742073746172746564207965740000604482015290519081900360640190fd5b610c6c61176a565b421015610cc0576040805162461bcd60e51b815260206004820152601260248201527f45706f63683a206e6f7420616c6c6f7765640000000000000000000000000000604482015290519081900360640190fd5b600854604080516336b87bd760e11b815230600482015290516001600160a01b0390921691636d70f7ae91602480820192602092909190829003018186803b158015610d0b57600080fd5b505afa158015610d1f573d6000803e3d6000fd5b505050506040513d6020811015610d3557600080fd5b50518015610db65750600954604080516336b87bd760e11b815230600482015290516001600160a01b0390921691636d70f7ae91602480820192602092909190829003018186803b158015610d8957600080fd5b505afa158015610d9d573d6000803e3d6000fd5b505050506040513d6020811015610db357600080fd5b50515b8015610e355750600a54604080516336b87bd760e11b815230600482015290516001600160a01b0390921691636d70f7ae91602480820192602092909190829003018186803b158015610e0857600080fd5b505afa158015610e1c573d6000803e3d6000fd5b505050506040513d6020811015610e3257600080fd5b50515b8015610eb45750600b54604080516336b87bd760e11b815230600482015290516001600160a01b0390921691636d70f7ae91602480820192602092909190829003018186803b158015610e8757600080fd5b505afa158015610e9b573d6000803e3d6000fd5b505050506040513d6020811015610eb157600080fd5b50515b610f05576040805162461bcd60e51b815260206004820152601e60248201527f54726561737572793a206e656564206d6f7265207065726d697373696f6e0000604482015290519081900360640190fd5b610f0d612df8565b6000610f176116b6565b9050610f2161070f565b8111610f2d5750611397565b6000610fb5600d54600860009054906101000a90046001600160a01b03166001600160a01b03166318160ddd6040518163ffffffff1660e01b815260040160206040518083038186803b158015610f8357600080fd5b505afa158015610f97573d6000803e3d6000fd5b505050506040513d6020811015610fad57600080fd5b505190612e58565b600c5460085460408051635e48700d60e01b81526001600160a01b03928316600482015290519394506000939190921691635e48700d916024808301926020929190829003018186803b15801561100b57600080fd5b505afa15801561101f573d6000803e3d6000fd5b505050506040513d602081101561103557600080fd5b505190506000611051670de0b6b3a764000061079b8585612c28565b600854604080516340c10f1960e01b81523060048201526024810184905290519293506001600160a01b03909116916340c10f199160448082019260009290919082900301818387803b1580156110a757600080fd5b505af11580156110bb573d6000803e3d6000fd5b5050505060006110db606461079b600e5485612c2890919063ffffffff16565b9050801561120457600754600854611107916001600160a01b0391821691620100009091041683612eb5565b60075460085460408051635ff03ed360e11b81526001600160a01b0392831660048201526024810185905260606044820152602060648201527f54726561737572793a20536569676e696f7261676520416c6c6f636174696f6e60848201529051620100009093049091169163bfe07da69160a48082019260009290919082900301818387803b15801561119a57600080fd5b505af11580156111ae573d6000803e3d6000fd5b505050506111c58183612e5890919063ffffffff16565b604080514281526020810184905281519294507f4caa64211297e9263667fef70732dc65ca7a8e8c60dc72539ed94518628212d0929081900390910190a15b600061125a600d54600960009054906101000a90046001600160a01b03166001600160a01b03166318160ddd6040518163ffffffff1660e01b815260040160206040518083038186803b158015610f8357600080fd5b905060006112688483612fbb565b905080156112bc57600d5461127d9082612fd1565b600d55604080514281526020810183905281517ff705142bf09f04297640495ddf7c59b7fd6f51894c5aea9602d631cf05f0efc2929181900390910190a15b60006112c88583612e58565b9050801561138e57600b546008546112ed916001600160a01b03918216911683612eb5565b600b54604080516397ffe1d760e01b81526004810184905290516001600160a01b03909216916397ffe1d79160248082019260009290919082900301818387803b15801561133a57600080fd5b505af115801561134e573d6000803e3d6000fd5b5050604080514281526020810185905281517f03ca7276ab7799bf73fb79d27ff0610cd7049574f2508ef8445162833d439aea9450908190039091019150a15b50505050505050505b6006546113a5906001612fd1565b600655436000908152602081815260408083203284529091528082208054600160ff1991821681179092553384529190922080549091169091179055565b600b546001600160a01b031681565b60006108687f97667070c54ef182b0f5858b034beac1b6f3089aa2d3188bb1e8929f4fa9b929836115c1565b61144a7f0000000000000000000000000000000000000000000000000000000000000000610643612c24565b6114855760405162461bcd60e51b81526004018080602001828103825260348152602001806136336034913960400191505060405180910390fd5b6001600160a01b0381166114ca5760405162461bcd60e51b815260040180806020018281038252603d8152602001806135f6603d913960400191505060405180910390fd5b6114f47f0000000000000000000000000000000000000000000000000000000000000000826109af565b60025461152b907f0000000000000000000000000000000000000000000000000000000000000000906001600160a01b0316611f2a565b6002805473ffffffffffffffffffffffffffffffffffffffff19166001600160a01b0392909216919091179055565b7fa49807205ce4d355092ef5a8a18f56e8913cf4a201fbe287825b095693c2177581565b60045481565b600c546001600160a01b031681565b6009546001600160a01b031681565b60008281526001602052604081206115ba908361302b565b9392505050565b60008281526001602052604081206115ba9083613037565b6116057f97667070c54ef182b0f5858b034beac1b6f3089aa2d3188bb1e8929f4fa9b929610643612c24565b6116405760405162461bcd60e51b81526004018080602001828103825260318152602001806135c56031913960400191505060405180910390fd5b600e81905561164d612c24565b6001600160a01b03167f25ba333c9a98f8f18bb40ff507a4a1fb423614f442759c754d038a9de3f81cf3826040518082815260200191505060405180910390a250565b600081565b6007546201000090046001600160a01b031681565b60065490565b600e5481565b600c546008546040805163ba86c68360e01b81526001600160a01b0392831660048201529051600093929092169163ba86c68391602480820192602092909190829003018186803b15801561170a57600080fd5b505afa92505050801561172f57506040513d602081101561172a57600080fd5b505160015b610b1c5760405162461bcd60e51b81526004018080602001828103825260408152602001806137cb6040913960400191505060405180910390fd5b60006107a1611786600554600654612c2890919063ffffffff16565b60045490612fd1565b60008181526001602052604081206108689061304c565b7f000000000000000000000000000000000000000000000000000000000000000081565b6117f67f97667070c54ef182b0f5858b034beac1b6f3089aa2d3188bb1e8929f4fa9b929610643612c24565b6118315760405162461bcd60e51b81526004018080602001828103825260318152602001806135c56031913960400191505060405180910390fd5b600854604080516336b87bd760e11b815230600482015290516001600160a01b0390921691636d70f7ae91602480820192602092909190829003018186803b15801561187c57600080fd5b505afa158015611890573d6000803e3d6000fd5b505050506040513d60208110156118a657600080fd5b505180156119275750600954604080516336b87bd760e11b815230600482015290516001600160a01b0390921691636d70f7ae91602480820192602092909190829003018186803b1580156118fa57600080fd5b505afa15801561190e573d6000803e3d6000fd5b505050506040513d602081101561192457600080fd5b50515b80156119a65750600a54604080516336b87bd760e11b815230600482015290516001600160a01b0390921691636d70f7ae91602480820192602092909190829003018186803b15801561197957600080fd5b505afa15801561198d573d6000803e3d6000fd5b505050506040513d60208110156119a357600080fd5b50515b8015611a255750600b54604080516336b87bd760e11b815230600482015290516001600160a01b0390921691636d70f7ae91602480820192602092909190829003018186803b1580156119f857600080fd5b505afa158015611a0c573d6000803e3d6000fd5b505050506040513d6020811015611a2257600080fd5b50515b611a76576040805162461bcd60e51b815260206004820152601e60248201527f54726561737572793a206e656564206d6f7265207065726d697373696f6e0000604482015290519081900360640190fd5b60075460ff1615611ac3576040805162461bcd60e51b8152602060048201526012602482015271151c99585cdd5c9e4e881b5a59dc985d195960721b604482015290519081900360640190fd5b600854604080516329605e7760e01b81526001600160a01b038481166004830152915191909216916329605e7791602480830192600092919082900301818387803b158015611b1157600080fd5b505af1158015611b25573d6000803e3d6000fd5b5050600854604080516370a0823160e01b815230600482015290516001600160a01b03909216935063a9059cbb9250849184916370a08231916024808301926020929190829003018186803b158015611b7d57600080fd5b505afa158015611b91573d6000803e3d6000fd5b505050506040513d6020811015611ba757600080fd5b5051604080516001600160e01b031960e086901b1681526001600160a01b03909316600484015260248301919091525160448083019260209291908290030181600087803b158015611bf857600080fd5b505af1158015611c0c573d6000803e3d6000fd5b505050506040513d6020811015611c2257600080fd5b5050600954604080516329605e7760e01b81526001600160a01b038481166004830152915191909216916329605e7791602480830192600092919082900301818387803b158015611c7257600080fd5b505af1158015611c86573d6000803e3d6000fd5b5050600954604080516370a0823160e01b815230600482015290516001600160a01b03909216935063a9059cbb9250849184916370a08231916024808301926020929190829003018186803b158015611cde57600080fd5b505afa158015611cf2573d6000803e3d6000fd5b505050506040513d6020811015611d0857600080fd5b5051604080516001600160e01b031960e086901b1681526001600160a01b03909316600484015260248301919091525160448083019260209291908290030181600087803b158015611d5957600080fd5b505af1158015611d6d573d6000803e3d6000fd5b505050506040513d6020811015611d8357600080fd5b5050600a54604080516329605e7760e01b81526001600160a01b038481166004830152915191909216916329605e7791602480830192600092919082900301818387803b158015611dd357600080fd5b505af1158015611de7573d6000803e3d6000fd5b5050600a54604080516370a0823160e01b815230600482015290516001600160a01b03909216935063a9059cbb9250849184916370a08231916024808301926020929190829003018186803b158015611e3f57600080fd5b505afa158015611e53573d6000803e3d6000fd5b505050506040513d6020811015611e6957600080fd5b5051604080516001600160e01b031960e086901b1681526001600160a01b03909316600484015260248301919091525160448083019260209291908290030181600087803b158015611eba57600080fd5b505af1158015611ece573d6000803e3d6000fd5b505050506040513d6020811015611ee457600080fd5b50506007805460ff191660011790556040516001600160a01b038216907f0caca70b66aed56b0630989a049110023c5a3f37e0ea4b6ce96fc747663f3ebc90600090a250565b600082815260016020526040902060020154611f4890610643612c24565b610a6d5760405162461bcd60e51b81526004018080602001828103825260308152602001806136d16030913960400191505060405180910390fd5b611f8b612dba565b15611fc75760405162461bcd60e51b81526004018080602001828103825260268152602001806138356026913960400191505060405180910390fd5b611fcf612dd9565b1561200b5760405162461bcd60e51b81526004018080602001828103825260268152602001806138356026913960400191505060405180910390fd5b60075460ff1615612058576040805162461bcd60e51b8152602060048201526012602482015271151c99585cdd5c9e4e881b5a59dc985d195960721b604482015290519081900360640190fd5b6004544210156120af576040805162461bcd60e51b815260206004820152601e60248201527f537461727454696d654c6f636b3a206e6f742073746172746564207965740000604482015290519081900360640190fd5b600854604080516336b87bd760e11b815230600482015290516001600160a01b0390921691636d70f7ae91602480820192602092909190829003018186803b1580156120fa57600080fd5b505afa15801561210e573d6000803e3d6000fd5b505050506040513d602081101561212457600080fd5b505180156121a55750600954604080516336b87bd760e11b815230600482015290516001600160a01b0390921691636d70f7ae91602480820192602092909190829003018186803b15801561217857600080fd5b505afa15801561218c573d6000803e3d6000fd5b505050506040513d60208110156121a257600080fd5b50515b80156122245750600a54604080516336b87bd760e11b815230600482015290516001600160a01b0390921691636d70f7ae91602480820192602092909190829003018186803b1580156121f757600080fd5b505afa15801561220b573d6000803e3d6000fd5b505050506040513d602081101561222157600080fd5b50515b80156122a35750600b54604080516336b87bd760e11b815230600482015290516001600160a01b0390921691636d70f7ae91602480820192602092909190829003018186803b15801561227657600080fd5b505afa15801561228a573d6000803e3d6000fd5b505050506040513d60208110156122a057600080fd5b50515b6122f4576040805162461bcd60e51b815260206004820152601e60248201527f54726561737572793a206e656564206d6f7265207065726d697373696f6e0000604482015290519081900360640190fd5b600082116123335760405162461bcd60e51b815260040180806020018281038252603381526020018061385b6033913960400191505060405180910390fd5b600061233d6116b6565b90506000612349610a77565b905082821461239f576040805162461bcd60e51b815260206004820152601f60248201527f54726561737572793a20416e7420546f6b656e207072696365206d6f76656400604482015290519081900360640190fd5b8082106123dd5760405162461bcd60e51b815260040180806020018281038252603e815260200180613701603e913960400191505060405180910390fd5b60006123f58261079b85670de0b6b3a7640000612c28565b9050600061240f8261079b88670de0b6b3a7640000612c28565b6008549091506001600160a01b03166379cc679061242b612c24565b886040518363ffffffff1660e01b815260040180836001600160a01b0316815260200182815260200192505050600060405180830381600087803b15801561247257600080fd5b505af1158015612486573d6000803e3d6000fd5b50506009546001600160a01b031691506340c10f1990506124a5612c24565b836040518363ffffffff1660e01b815260040180836001600160a01b0316815260200182815260200192505050600060405180830381600087803b1580156124ec57600080fd5b505af1158015612500573d6000803e3d6000fd5b5050505061250c612df8565b612514612c24565b6001600160a01b03167fb8b27ae2aaf9a23d923980a0cc97c93dfc2591762f78f9573a4ceba3ea8ba6e3876040518082815260200191505060405180910390a25050436000908152602081815260408083203284529091528082208054600160ff199182168117909255338452919092208054909116909117905550505050565b600a546001600160a01b031681565b6125ac612dba565b156125e85760405162461bcd60e51b81526004018080602001828103825260268152602001806138356026913960400191505060405180910390fd5b6125f0612dd9565b1561262c5760405162461bcd60e51b81526004018080602001828103825260268152602001806138356026913960400191505060405180910390fd5b60075460ff1615612679576040805162461bcd60e51b8152602060048201526012602482015271151c99585cdd5c9e4e881b5a59dc985d195960721b604482015290519081900360640190fd5b6004544210156126d0576040805162461bcd60e51b815260206004820152601e60248201527f537461727454696d654c6f636b3a206e6f742073746172746564207965740000604482015290519081900360640190fd5b600854604080516336b87bd760e11b815230600482015290516001600160a01b0390921691636d70f7ae91602480820192602092909190829003018186803b15801561271b57600080fd5b505afa15801561272f573d6000803e3d6000fd5b505050506040513d602081101561274557600080fd5b505180156127c65750600954604080516336b87bd760e11b815230600482015290516001600160a01b0390921691636d70f7ae91602480820192602092909190829003018186803b15801561279957600080fd5b505afa1580156127ad573d6000803e3d6000fd5b505050506040513d60208110156127c357600080fd5b50515b80156128455750600a54604080516336b87bd760e11b815230600482015290516001600160a01b0390921691636d70f7ae91602480820192602092909190829003018186803b15801561281857600080fd5b505afa15801561282c573d6000803e3d6000fd5b505050506040513d602081101561284257600080fd5b50515b80156128c45750600b54604080516336b87bd760e11b815230600482015290516001600160a01b0390921691636d70f7ae91602480820192602092909190829003018186803b15801561289757600080fd5b505afa1580156128ab573d6000803e3d6000fd5b505050506040513d60208110156128c157600080fd5b50515b612915576040805162461bcd60e51b815260206004820152601e60248201527f54726561737572793a206e656564206d6f7265207065726d697373696f6e0000604482015290519081900360640190fd5b600082116129545760405162461bcd60e51b81526004018080602001828103825260318152602001806137606031913960400191505060405180910390fd5b600061295e6116b6565b90508181146129b4576040805162461bcd60e51b815260206004820152601f60248201527f54726561737572793a20416e7420546f6b656e207072696365206d6f76656400604482015290519081900360640190fd5b6129bc61070f565b81116129f95760405162461bcd60e51b815260040180806020018281038252603e815260200180613701603e913960400191505060405180910390fd5b600854604080516370a0823160e01b8152306004820152905185926001600160a01b0316916370a08231916024808301926020929190829003018186803b158015612a4357600080fd5b505afa158015612a57573d6000803e3d6000fd5b505050506040513d6020811015612a6d57600080fd5b50511015612aac5760405162461bcd60e51b815260040180806020018281038252603e815260200180613587603e913960400191505060405180910390fd5b612ac4612abb600d5485612fbb565b600d5490612e58565b600d556009546001600160a01b03166379cc6790612ae0612c24565b856040518363ffffffff1660e01b815260040180836001600160a01b0316815260200182815260200192505050600060405180830381600087803b158015612b2757600080fd5b505af1158015612b3b573d6000803e3d6000fd5b50505050612b5d612b4a612c24565b6008546001600160a01b03169085613057565b612b65612df8565b612b6d612c24565b6001600160a01b03167f0cee097cf19c478e228383fa90c54c4cdfc970881ae4f7e0dfdb2eaba9b2c48c846040518082815260200191505060405180910390a25050436000908152602081815260408083203284529091528082208054600160ff199182168117909255338452919092208054909116909117905550565b7f97667070c54ef182b0f5858b034beac1b6f3089aa2d3188bb1e8929f4fa9b92981565b60006115ba836001600160a01b0384166130c3565b3390565b600082612c3757506000610868565b82820282848281612c4457fe5b04146115ba5760405162461bcd60e51b815260040180806020018281038252602181526020018061373f6021913960400191505060405180910390fd5b6000808211612cd7576040805162461bcd60e51b815260206004820152601a60248201527f536166654d6174683a206469766973696f6e206279207a65726f000000000000604482015290519081900360640190fd5b818381612ce057fe5b049392505050565b6000828152600160205260409020612d009082612c0f565b15610a1257612d0d612c24565b6001600160a01b0316816001600160a01b0316837f2f8788117e7eff1d82e926ec794901d17c78024a50270940304540a733656f0d60405160405180910390a45050565b6000828152600160205260409020612d69908261310d565b15610a1257612d76612c24565b6001600160a01b0316816001600160a01b0316837ff6391f5c32d9c69d2a47ea670b442974b53935d1edc7fd64eb21e047a839171b60405160405180910390a45050565b4360009081526020818152604080832032845290915290205460ff1690565b4360009081526020818152604080832033845290915290205460ff1690565b600c60009054906101000a90046001600160a01b03166001600160a01b031663a2e620456040518163ffffffff1660e01b8152600401600060405180830381600087803b158015612e4857600080fd5b505af19250505080156109a35750565b600082821115612eaf576040805162461bcd60e51b815260206004820152601e60248201527f536166654d6174683a207375627472616374696f6e206f766572666c6f770000604482015290519081900360640190fd5b50900390565b6000612f4b82856001600160a01b031663dd62ed3e30876040518363ffffffff1660e01b815260040180836001600160a01b03168152602001826001600160a01b031681526020019250505060206040518083038186803b158015612f1957600080fd5b505afa158015612f2d573d6000803e3d6000fd5b505050506040513d6020811015612f4357600080fd5b505190612fd1565b604080516001600160a01b038616602482015260448082018490528251808303909101815260649091019091526020810180517bffffffffffffffffffffffffffffffffffffffffffffffffffffffff1663095ea7b360e01b179052909150612fb5908590613122565b50505050565b6000818310612fca57816115ba565b5090919050565b6000828201838110156115ba576040805162461bcd60e51b815260206004820152601b60248201527f536166654d6174683a206164646974696f6e206f766572666c6f770000000000604482015290519081900360640190fd5b60006115ba83836131d3565b60006115ba836001600160a01b038416613237565b60006108688261324f565b604080516001600160a01b038416602482015260448082018490528251808303909101815260649091019091526020810180517bffffffffffffffffffffffffffffffffffffffffffffffffffffffff1663a9059cbb60e01b1790526130be908490613122565b505050565b60006130cf8383613237565b61310557508154600181810184556000848152602080822090930184905584548482528286019093526040902091909155610868565b506000610868565b60006115ba836001600160a01b038416613253565b6000613177826040518060400160405280602081526020017f5361666545524332303a206c6f772d6c6576656c2063616c6c206661696c6564815250856001600160a01b03166133199092919063ffffffff16565b8051909150156130be5780806020019051602081101561319657600080fd5b50516130be5760405162461bcd60e51b815260040180806020018281038252602a81526020018061380b602a913960400191505060405180910390fd5b815460009082106132155760405162461bcd60e51b81526004018080602001828103825260228152602001806135366022913960400191505060405180910390fd5b82600001828154811061322457fe5b9060005260206000200154905092915050565b60009081526001919091016020526040902054151590565b5490565b6000818152600183016020526040812054801561330f578354600019808301919081019060009087908390811061328657fe5b90600052602060002001549050808760000184815481106132a357fe5b6000918252602080832090910192909255828152600189810190925260409020908401905586548790806132d357fe5b60019003818190600052602060002001600090559055866001016000878152602001908152602001600020600090556001945050505050610868565b6000915050610868565b60606133288484600085613330565b949350505050565b6060824710156133715760405162461bcd60e51b81526004018080602001828103825260268152602001806136ab6026913960400191505060405180910390fd5b61337a8561348b565b6133cb576040805162461bcd60e51b815260206004820152601d60248201527f416464726573733a2063616c6c20746f206e6f6e2d636f6e7472616374000000604482015290519081900360640190fd5b600080866001600160a01b031685876040518082805190602001908083835b602083106134095780518252601f1990920191602091820191016133ea565b6001836020036101000a03801982511681845116808217855250505050505090500191505060006040518083038185875af1925050503d806000811461346b576040519150601f19603f3d011682016040523d82523d6000602084013e613470565b606091505b5091509150613480828286613491565b979650505050505050565b3b151590565b606083156134a05750816115ba565b8251156134b05782518084602001fd5b8160405162461bcd60e51b81526004018080602001828103825283818151815260200191508051906020019080838360005b838110156134fa5781810151838201526020016134e2565b50505050905090810190601f1680156135275780820380516001836020036101000a031916815260200191505b509250505060405180910390fdfe456e756d657261626c655365743a20696e646578206f7574206f6620626f756e6473416363657373436f6e74726f6c3a2073656e646572206d75737420626520616e2061646d696e20746f206772616e7454726561737572793a20747265617375727920686173206e6f206d6f72652062756467657420666f7220416e7420426f6e647320726564656d7074696f6e4f70657261746f72416363657373436f6e74726f6c3a2073656e646572207265717569726573207065726d697373696f6e41646d696e416363657373436f6e74726f6c48656c7065723a207a65726f206164647265737320676976656e20666f72206e6577206f70657261746f7241646d696e416363657373436f6e74726f6c48656c7065723a2073656e646572207265717569726573207065726d697373696f6e54726561737572793a206661696c656420746f20636f6e73756c7420416e7420546f6b656e2065787465726e616c2070726963652066726f6d20746865206f7261636c65416464726573733a20696e73756666696369656e742062616c616e636520666f722063616c6c416363657373436f6e74726f6c3a2073656e646572206d75737420626520616e2061646d696e20746f207265766f6b6554726561737572793a20416e7420546f6b656e207072696365206e6f7420656c696769626c6520666f7220416e7420426f6e6420726564656d7074696f6e536166654d6174683a206d756c7469706c69636174696f6e206f766572666c6f7754726561737572793a2063616e6e6f742072656465656d20616e74426f6e64732077697468207a65726f20616d6f756e744f70657261746f72416363657373436f6e74726f6c3a207a65726f206164647265737320676976656e20666f72206e6577206f70657261746f7254726561737572793a206661696c656420746f20636f6e73756c7420416e7420546f6b656e20737761702070726963652066726f6d20746865206f7261636c655361666545524332303a204552433230206f7065726174696f6e20646964206e6f742073756363656564436f6e747261637447756172643a206f6e6520626c6f636b2c206f6e652066756e6374696f6e54726561737572793a2063616e6e6f7420707572636861736520616e74426f6e64732077697468207a65726f20616d6f756e74416363657373436f6e74726f6c3a2063616e206f6e6c792072656e6f756e636520726f6c657320666f722073656c66a164736f6c6343000706000a97667070c54ef182b0f5858b034beac1b6f3089aa2d3188bb1e8929f4fa9b929a49807205ce4d355092ef5a8a18f56e8913cf4a201fbe287825b095693c21775",
    "devdoc": {
        "kind": "dev",
        "methods": {
            "buyAntBonds(uint256,uint256)": {
                "params": {
                    "amountAntToken": "Amount of Ant Tokens to burn in order to get the bonds",
                    "targetPrice": "Target price at which the bonds will be purchased"
                }
            },
            "getRoleAdmin(bytes32)": {
                "details": "Returns the admin role that controls `role`. See {grantRole} and {revokeRole}. To change a role's admin, use {_setRoleAdmin}."
            },
            "getRoleMember(bytes32,uint256)": {
                "details": "Returns one of the accounts that have `role`. `index` must be a value between 0 and {getRoleMemberCount}, non-inclusive. Role bearers are not sorted in any particular way, and their ordering may change at any point. WARNING: When using {getRoleMember} and {getRoleMemberCount}, make sure you perform all queries on the same block. See the following https://forum.openzeppelin.com/t/iterating-over-elements-on-enumerableset-in-openzeppelin-contracts/2296[forum post] for more information."
            },
            "getRoleMemberCount(bytes32)": {
                "details": "Returns the number of accounts that have `role`. Can be used together with {getRoleMember} to enumerate all bearers of a role."
            },
            "grantRole(bytes32,address)": {
                "details": "Grants `role` to `account`. If `account` had not been already granted `role`, emits a {RoleGranted} event. Requirements: - the caller must have ``role``'s admin role."
            },
            "hasRole(bytes32,address)": {
                "details": "Returns `true` if `account` has been granted `role`."
            },
            "redeemAntBonds(uint256,uint256)": {
                "params": {
                    "amountAntBonds": "Amount of Ant Tokens to burn in order to get the bonds",
                    "targetPrice": "Target price at which the bonds will be redeemed"
                }
            },
            "renounceRole(bytes32,address)": {
                "details": "Revokes `role` from the calling account. Roles are often managed via {grantRole} and {revokeRole}: this function's purpose is to provide a mechanism for accounts to lose their privileges if they are compromised (such as when a trusted device is misplaced). If the calling account had been granted `role`, emits a {RoleRevoked} event. Requirements: - the caller must be `account`."
            },
            "revokeRole(bytes32,address)": {
                "details": "Revokes `role` from `account`. If `account` had been granted `role`, emits a {RoleRevoked} event. Requirements: - the caller must have ``role``'s admin role."
            },
            "tokenPriceCeiling()": {
                "returns": {
                    "_0": "The ceiling price multiplied by 1e18"
                }
            }
        },
        "version": 1
    },
    "userdoc": {
        "kind": "user",
        "methods": {
            "allocateSeigniorage()": {
                "notice": "Calculates how many new Ant Tokens must be minted to bring the price down to the target price: - If the price is lower than the price celing (target price * 1.05) it does nothing - Fetches the price variation percentage and multiplies the current total supply minus the Treasury allocated tokens by the percentage to obtain the new extra supply to mint - From the new supply a 2% is removed for the Contribution Pool - The Treasury itself gets an amount calculated from the minimum of the new supply and the circulating bonds minus the Treasury current accumulated Seigniorage - Finally the Boardroom gets the rest of the new supply"
            },
            "buyAntBonds(uint256,uint256)": {
                "notice": "Buys Ant Bonds with Ant Tokens Ant Tokens are burned and Ant Bonds are minted to the sender's account in a ratio of 1:(targetPrice/externalPrice)"
            },
            "redeemAntBonds(uint256,uint256)": {
                "notice": "Redeems Ant Bonds for Ant Tokens Ant Bonds are burned and Ant Tokens are transferred to the sender's account in a ratio of 1:1"
            },
            "tokenPriceCeiling()": {
                "notice": "Calculates the ceiling for the token price. This is a 5% more on the actual externally evaluated price of the token"
            }
        },
        "version": 1
    },
    "storageLayout": {
        "storage": [
            {
                "astId": 9893,
                "contract": "contracts/governance/Treasury.sol:Treasury",
                "label": "_status",
                "offset": 0,
                "slot": "0",
                "type": "t_mapping(t_uint256,t_mapping(t_address,t_bool))"
            },
            {
                "astId": 22,
                "contract": "contracts/governance/Treasury.sol:Treasury",
                "label": "_roles",
                "offset": 0,
                "slot": "1",
                "type": "t_mapping(t_bytes32,t_struct(RoleData)18_storage)"
            },
            {
                "astId": 5142,
                "contract": "contracts/governance/Treasury.sol:Treasury",
                "label": "_admin",
                "offset": 0,
                "slot": "2",
                "type": "t_address"
            },
            {
                "astId": 5279,
                "contract": "contracts/governance/Treasury.sol:Treasury",
                "label": "_operator",
                "offset": 0,
                "slot": "3",
                "type": "t_address"
            },
            {
                "astId": 10065,
                "contract": "contracts/governance/Treasury.sol:Treasury",
                "label": "startTime",
                "offset": 0,
                "slot": "4",
                "type": "t_uint256"
            },
            {
                "astId": 9974,
                "contract": "contracts/governance/Treasury.sol:Treasury",
                "label": "_period",
                "offset": 0,
                "slot": "5",
                "type": "t_uint256"
            },
            {
                "astId": 9976,
                "contract": "contracts/governance/Treasury.sol:Treasury",
                "label": "_epoch",
                "offset": 0,
                "slot": "6",
                "type": "t_uint256"
            },
            {
                "astId": 7888,
                "contract": "contracts/governance/Treasury.sol:Treasury",
                "label": "migrated",
                "offset": 0,
                "slot": "7",
                "type": "t_bool"
            },
            {
                "astId": 7891,
                "contract": "contracts/governance/Treasury.sol:Treasury",
                "label": "initialized",
                "offset": 1,
                "slot": "7",
                "type": "t_bool"
            },
            {
                "astId": 7893,
                "contract": "contracts/governance/Treasury.sol:Treasury",
                "label": "fund",
                "offset": 2,
                "slot": "7",
                "type": "t_address"
            },
            {
                "astId": 7895,
                "contract": "contracts/governance/Treasury.sol:Treasury",
                "label": "antToken",
                "offset": 0,
                "slot": "8",
                "type": "t_address"
            },
            {
                "astId": 7897,
                "contract": "contracts/governance/Treasury.sol:Treasury",
                "label": "antBond",
                "offset": 0,
                "slot": "9",
                "type": "t_address"
            },
            {
                "astId": 7899,
                "contract": "contracts/governance/Treasury.sol:Treasury",
                "label": "antShare",
                "offset": 0,
                "slot": "10",
                "type": "t_address"
            },
            {
                "astId": 7901,
                "contract": "contracts/governance/Treasury.sol:Treasury",
                "label": "boardroom",
                "offset": 0,
                "slot": "11",
                "type": "t_address"
            },
            {
                "astId": 7903,
                "contract": "contracts/governance/Treasury.sol:Treasury",
                "label": "oracle",
                "offset": 0,
                "slot": "12",
                "type": "t_contract(IOracle)7648"
            },
            {
                "astId": 7906,
                "contract": "contracts/governance/Treasury.sol:Treasury",
                "label": "accumulatedSeigniorage",
                "offset": 0,
                "slot": "13",
                "type": "t_uint256"
            },
            {
                "astId": 7909,
                "contract": "contracts/governance/Treasury.sol:Treasury",
                "label": "fundAllocationRate",
                "offset": 0,
                "slot": "14",
                "type": "t_uint256"
            }
        ],
        "types": {
            "t_address": {
                "encoding": "inplace",
                "label": "address",
                "numberOfBytes": "20"
            },
            "t_array(t_bytes32)dyn_storage": {
                "base": "t_bytes32",
                "encoding": "dynamic_array",
                "label": "bytes32[]",
                "numberOfBytes": "32"
            },
            "t_bool": {
                "encoding": "inplace",
                "label": "bool",
                "numberOfBytes": "1"
            },
            "t_bytes32": {
                "encoding": "inplace",
                "label": "bytes32",
                "numberOfBytes": "32"
            },
            "t_contract(IOracle)7648": {
                "encoding": "inplace",
                "label": "contract IOracle",
                "numberOfBytes": "20"
            },
            "t_mapping(t_address,t_bool)": {
                "encoding": "mapping",
                "key": "t_address",
                "label": "mapping(address => bool)",
                "numberOfBytes": "32",
                "value": "t_bool"
            },
            "t_mapping(t_bytes32,t_struct(RoleData)18_storage)": {
                "encoding": "mapping",
                "key": "t_bytes32",
                "label": "mapping(bytes32 => struct AccessControl.RoleData)",
                "numberOfBytes": "32",
                "value": "t_struct(RoleData)18_storage"
            },
            "t_mapping(t_bytes32,t_uint256)": {
                "encoding": "mapping",
                "key": "t_bytes32",
                "label": "mapping(bytes32 => uint256)",
                "numberOfBytes": "32",
                "value": "t_uint256"
            },
            "t_mapping(t_uint256,t_mapping(t_address,t_bool))": {
                "encoding": "mapping",
                "key": "t_uint256",
                "label": "mapping(uint256 => mapping(address => bool))",
                "numberOfBytes": "32",
                "value": "t_mapping(t_address,t_bool)"
            },
            "t_struct(AddressSet)3146_storage": {
                "encoding": "inplace",
                "label": "struct EnumerableSet.AddressSet",
                "members": [
                    {
                        "astId": 3145,
                        "contract": "contracts/governance/Treasury.sol:Treasury",
                        "label": "_inner",
                        "offset": 0,
                        "slot": "0",
                        "type": "t_struct(Set)2881_storage"
                    }
                ],
                "numberOfBytes": "64"
            },
            "t_struct(RoleData)18_storage": {
                "encoding": "inplace",
                "label": "struct AccessControl.RoleData",
                "members": [
                    {
                        "astId": 15,
                        "contract": "contracts/governance/Treasury.sol:Treasury",
                        "label": "members",
                        "offset": 0,
                        "slot": "0",
                        "type": "t_struct(AddressSet)3146_storage"
                    },
                    {
                        "astId": 17,
                        "contract": "contracts/governance/Treasury.sol:Treasury",
                        "label": "adminRole",
                        "offset": 0,
                        "slot": "2",
                        "type": "t_bytes32"
                    }
                ],
                "numberOfBytes": "96"
            },
            "t_struct(Set)2881_storage": {
                "encoding": "inplace",
                "label": "struct EnumerableSet.Set",
                "members": [
                    {
                        "astId": 2876,
                        "contract": "contracts/governance/Treasury.sol:Treasury",
                        "label": "_values",
                        "offset": 0,
                        "slot": "0",
                        "type": "t_array(t_bytes32)dyn_storage"
                    },
                    {
                        "astId": 2880,
                        "contract": "contracts/governance/Treasury.sol:Treasury",
                        "label": "_indexes",
                        "offset": 0,
                        "slot": "1",
                        "type": "t_mapping(t_bytes32,t_uint256)"
                    }
                ],
                "numberOfBytes": "64"
            },
            "t_uint256": {
                "encoding": "inplace",
                "label": "uint256",
                "numberOfBytes": "32"
            }
        }
    }
}