{
  "address": "0x9105d47480a7CC08b65E8097ADdD3737CE58AB1E",
  "abi": [
    {
      "inputs": [],
      "stateMutability": "nonpayable",
      "type": "constructor"
    },
    {
      "anonymous": false,
      "inputs": [
        {
          "indexed": true,
          "internalType": "address",
          "name": "owner",
          "type": "address"
        },
        {
          "indexed": true,
          "internalType": "address",
          "name": "spender",
          "type": "address"
        },
        {
          "indexed": false,
          "internalType": "uint256",
          "name": "value",
          "type": "uint256"
        }
      ],
      "name": "Approval",
      "type": "event"
    },
    {
      "anonymous": false,
      "inputs": [
        {
          "indexed": true,
          "internalType": "bytes32",
          "name": "role",
          "type": "bytes32"
        },
        {
          "indexed": true,
          "internalType": "bytes32",
          "name": "previousAdminRole",
          "type": "bytes32"
        },
        {
          "indexed": true,
          "internalType": "bytes32",
          "name": "newAdminRole",
          "type": "bytes32"
        }
      ],
      "name": "RoleAdminChanged",
      "type": "event"
    },
    {
      "anonymous": false,
      "inputs": [
        {
          "indexed": true,
          "internalType": "bytes32",
          "name": "role",
          "type": "bytes32"
        },
        {
          "indexed": true,
          "internalType": "address",
          "name": "account",
          "type": "address"
        },
        {
          "indexed": true,
          "internalType": "address",
          "name": "sender",
          "type": "address"
        }
      ],
      "name": "RoleGranted",
      "type": "event"
    },
    {
      "anonymous": false,
      "inputs": [
        {
          "indexed": true,
          "internalType": "bytes32",
          "name": "role",
          "type": "bytes32"
        },
        {
          "indexed": true,
          "internalType": "address",
          "name": "account",
          "type": "address"
        },
        {
          "indexed": true,
          "internalType": "address",
          "name": "sender",
          "type": "address"
        }
      ],
      "name": "RoleRevoked",
      "type": "event"
    },
    {
      "anonymous": false,
      "inputs": [
        {
          "indexed": true,
          "internalType": "address",
          "name": "from",
          "type": "address"
        },
        {
          "indexed": true,
          "internalType": "address",
          "name": "to",
          "type": "address"
        },
        {
          "indexed": false,
          "internalType": "uint256",
          "name": "value",
          "type": "uint256"
        }
      ],
      "name": "Transfer",
      "type": "event"
    },
    {
      "inputs": [],
      "name": "ADMIN_ROLE",
      "outputs": [
        {
          "internalType": "bytes32",
          "name": "",
          "type": "bytes32"
        }
      ],
      "stateMutability": "view",
      "type": "function"
    },
    {
      "inputs": [],
      "name": "DEFAULT_ADMIN_ROLE",
      "outputs": [
        {
          "internalType": "bytes32",
          "name": "",
          "type": "bytes32"
        }
      ],
      "stateMutability": "view",
      "type": "function"
    },
    {
      "inputs": [],
      "name": "OPERATOR_ROLE",
      "outputs": [
        {
          "internalType": "bytes32",
          "name": "",
          "type": "bytes32"
        }
      ],
      "stateMutability": "view",
      "type": "function"
    },
    {
      "inputs": [],
      "name": "adminAccessRole",
      "outputs": [
        {
          "internalType": "bytes32",
          "name": "",
          "type": "bytes32"
        }
      ],
      "stateMutability": "view",
      "type": "function"
    },
    {
      "inputs": [
        {
          "internalType": "address",
          "name": "owner",
          "type": "address"
        },
        {
          "internalType": "address",
          "name": "spender",
          "type": "address"
        }
      ],
      "name": "allowance",
      "outputs": [
        {
          "internalType": "uint256",
          "name": "",
          "type": "uint256"
        }
      ],
      "stateMutability": "view",
      "type": "function"
    },
    {
      "inputs": [
        {
          "internalType": "address",
          "name": "spender",
          "type": "address"
        },
        {
          "internalType": "uint256",
          "name": "amount",
          "type": "uint256"
        }
      ],
      "name": "approve",
      "outputs": [
        {
          "internalType": "bool",
          "name": "",
          "type": "bool"
        }
      ],
      "stateMutability": "nonpayable",
      "type": "function"
    },
    {
      "inputs": [
        {
          "internalType": "address",
          "name": "account",
          "type": "address"
        }
      ],
      "name": "balanceOf",
      "outputs": [
        {
          "internalType": "uint256",
          "name": "",
          "type": "uint256"
        }
      ],
      "stateMutability": "view",
      "type": "function"
    },
    {
      "inputs": [
        {
          "internalType": "uint256",
          "name": "amount",
          "type": "uint256"
        }
      ],
      "name": "burn",
      "outputs": [],
      "stateMutability": "nonpayable",
      "type": "function"
    },
    {
      "inputs": [
        {
          "internalType": "address",
          "name": "account",
          "type": "address"
        },
        {
          "internalType": "uint256",
          "name": "amount",
          "type": "uint256"
        }
      ],
      "name": "burnFrom",
      "outputs": [],
      "stateMutability": "nonpayable",
      "type": "function"
    },
    {
      "inputs": [],
      "name": "decimals",
      "outputs": [
        {
          "internalType": "uint8",
          "name": "",
          "type": "uint8"
        }
      ],
      "stateMutability": "view",
      "type": "function"
    },
    {
      "inputs": [
        {
          "internalType": "address",
          "name": "spender",
          "type": "address"
        },
        {
          "internalType": "uint256",
          "name": "subtractedValue",
          "type": "uint256"
        }
      ],
      "name": "decreaseAllowance",
      "outputs": [
        {
          "internalType": "bool",
          "name": "",
          "type": "bool"
        }
      ],
      "stateMutability": "nonpayable",
      "type": "function"
    },
    {
      "inputs": [
        {
          "internalType": "bytes32",
          "name": "role",
          "type": "bytes32"
        }
      ],
      "name": "getRoleAdmin",
      "outputs": [
        {
          "internalType": "bytes32",
          "name": "",
          "type": "bytes32"
        }
      ],
      "stateMutability": "view",
      "type": "function"
    },
    {
      "inputs": [
        {
          "internalType": "bytes32",
          "name": "role",
          "type": "bytes32"
        },
        {
          "internalType": "uint256",
          "name": "index",
          "type": "uint256"
        }
      ],
      "name": "getRoleMember",
      "outputs": [
        {
          "internalType": "address",
          "name": "",
          "type": "address"
        }
      ],
      "stateMutability": "view",
      "type": "function"
    },
    {
      "inputs": [
        {
          "internalType": "bytes32",
          "name": "role",
          "type": "bytes32"
        }
      ],
      "name": "getRoleMemberCount",
      "outputs": [
        {
          "internalType": "uint256",
          "name": "",
          "type": "uint256"
        }
      ],
      "stateMutability": "view",
      "type": "function"
    },
    {
      "inputs": [
        {
          "internalType": "bytes32",
          "name": "role",
          "type": "bytes32"
        },
        {
          "internalType": "address",
          "name": "account",
          "type": "address"
        }
      ],
      "name": "grantRole",
      "outputs": [],
      "stateMutability": "nonpayable",
      "type": "function"
    },
    {
      "inputs": [
        {
          "internalType": "bytes32",
          "name": "role",
          "type": "bytes32"
        },
        {
          "internalType": "address",
          "name": "account",
          "type": "address"
        }
      ],
      "name": "hasRole",
      "outputs": [
        {
          "internalType": "bool",
          "name": "",
          "type": "bool"
        }
      ],
      "stateMutability": "view",
      "type": "function"
    },
    {
      "inputs": [
        {
          "internalType": "address",
          "name": "spender",
          "type": "address"
        },
        {
          "internalType": "uint256",
          "name": "addedValue",
          "type": "uint256"
        }
      ],
      "name": "increaseAllowance",
      "outputs": [
        {
          "internalType": "bool",
          "name": "",
          "type": "bool"
        }
      ],
      "stateMutability": "nonpayable",
      "type": "function"
    },
    {
      "inputs": [
        {
          "internalType": "address",
          "name": "account",
          "type": "address"
        }
      ],
      "name": "isAdmin",
      "outputs": [
        {
          "internalType": "bool",
          "name": "",
          "type": "bool"
        }
      ],
      "stateMutability": "view",
      "type": "function"
    },
    {
      "inputs": [
        {
          "internalType": "address",
          "name": "account",
          "type": "address"
        }
      ],
      "name": "isOperator",
      "outputs": [
        {
          "internalType": "bool",
          "name": "",
          "type": "bool"
        }
      ],
      "stateMutability": "view",
      "type": "function"
    },
    {
      "inputs": [
        {
          "internalType": "address",
          "name": "recipient_",
          "type": "address"
        },
        {
          "internalType": "uint256",
          "name": "amount_",
          "type": "uint256"
        }
      ],
      "name": "mint",
      "outputs": [],
      "stateMutability": "nonpayable",
      "type": "function"
    },
    {
      "inputs": [],
      "name": "name",
      "outputs": [
        {
          "internalType": "string",
          "name": "",
          "type": "string"
        }
      ],
      "stateMutability": "view",
      "type": "function"
    },
    {
      "inputs": [
        {
          "internalType": "bytes32",
          "name": "role",
          "type": "bytes32"
        },
        {
          "internalType": "address",
          "name": "account",
          "type": "address"
        }
      ],
      "name": "renounceRole",
      "outputs": [],
      "stateMutability": "nonpayable",
      "type": "function"
    },
    {
      "inputs": [
        {
          "internalType": "bytes32",
          "name": "role",
          "type": "bytes32"
        },
        {
          "internalType": "address",
          "name": "account",
          "type": "address"
        }
      ],
      "name": "revokeRole",
      "outputs": [],
      "stateMutability": "nonpayable",
      "type": "function"
    },
    {
      "inputs": [],
      "name": "symbol",
      "outputs": [
        {
          "internalType": "string",
          "name": "",
          "type": "string"
        }
      ],
      "stateMutability": "view",
      "type": "function"
    },
    {
      "inputs": [],
      "name": "totalSupply",
      "outputs": [
        {
          "internalType": "uint256",
          "name": "",
          "type": "uint256"
        }
      ],
      "stateMutability": "view",
      "type": "function"
    },
    {
      "inputs": [
        {
          "internalType": "address",
          "name": "recipient",
          "type": "address"
        },
        {
          "internalType": "uint256",
          "name": "amount",
          "type": "uint256"
        }
      ],
      "name": "transfer",
      "outputs": [
        {
          "internalType": "bool",
          "name": "",
          "type": "bool"
        }
      ],
      "stateMutability": "nonpayable",
      "type": "function"
    },
    {
      "inputs": [
        {
          "internalType": "address",
          "name": "newAdmin",
          "type": "address"
        }
      ],
      "name": "transferAdmin",
      "outputs": [],
      "stateMutability": "nonpayable",
      "type": "function"
    },
    {
      "inputs": [
        {
          "internalType": "address",
          "name": "sender",
          "type": "address"
        },
        {
          "internalType": "address",
          "name": "recipient",
          "type": "address"
        },
        {
          "internalType": "uint256",
          "name": "amount",
          "type": "uint256"
        }
      ],
      "name": "transferFrom",
      "outputs": [
        {
          "internalType": "bool",
          "name": "",
          "type": "bool"
        }
      ],
      "stateMutability": "nonpayable",
      "type": "function"
    },
    {
      "inputs": [
        {
          "internalType": "address",
          "name": "newOperator",
          "type": "address"
        }
      ],
      "name": "transferOperator",
      "outputs": [],
      "stateMutability": "nonpayable",
      "type": "function"
    }
  ],
  "transactionHash": "0x18c05f60bbc05c804442b9cad47e3695bd47c5050bef9034ab5329a7e0544501",
  "args": [],
  "solcInputHash": "0076c8813888b7e0fbbcdc51edc3fbf9",
  "bytecode": "0x60a06040523480156200001157600080fd5b5060405180604001604052806008815260200167416e74536861726560c01b81525060405180604001604052806004815260200163414e545360e01b81525060008051602062001ea7833981519152620000706200018c60201b60201c565b83518490849062000089906003906020850190620002f4565b5080516200009f906004906020840190620002f4565b50506005805460ff1916601217905550608091909152600780546001600160a01b039092166001600160a01b0319909216919091179055620000f160008051602062001ea78339815191528062000190565b6200011560008051602062001ea78339815191526200010f6200018c565b620001e2565b6200013f60008051602062001e8783398151915260008051602062001ea783398151915262000190565b620001496200018c565b600880546001600160a01b0319166001600160a01b039283161790819055620001849160008051602062001e878339815191529116620001e2565b5050620003a0565b3390565b600082815260066020526040808220600201549051839285917fbd79b86ffe0ab8e8776151514217cd7cacd52c909f66475c3af44e129f0b00ff9190a460009182526006602052604090912060020155565b620001ee8282620001f2565b5050565b60008281526006602090815260409091206200021991839062000f0a6200026d821b17901c565b15620001ee57620002296200018c565b6001600160a01b0316816001600160a01b0316837f2f8788117e7eff1d82e926ec794901d17c78024a50270940304540a733656f0d60405160405180910390a45050565b600062000284836001600160a01b0384166200028d565b90505b92915050565b60006200029b8383620002dc565b620002d35750815460018181018455600084815260208082209093018490558454848252828601909352604090209190915562000287565b50600062000287565b60009081526001919091016020526040902054151590565b828054600181600116156101000203166002900490600052602060002090601f0160209004810192826200032c576000855562000377565b82601f106200034757805160ff191683800117855562000377565b8280016001018555821562000377579182015b82811115620003775782518255916020019190600101906200035a565b506200038592915062000389565b5090565b5b808211156200038557600081556001016200038a565b608051611ab3620003d4600039806106f352806107b852806107e25280610b665280610c125280610c405250611ab36000f3fe608060405234801561001057600080fd5b50600436106101cf5760003560e01c80636d70f7ae1161010457806395d89b41116100a2578063ca15c87311610071578063ca15c873146105b8578063d547741f146105d5578063dd62ed3e14610601578063f5b541a61461062f576101cf565b806395d89b4114610550578063a217fddf14610558578063a457c2d714610560578063a9059cbb1461058c576101cf565b806375b238fc116100de57806375b238fc146104b157806379cc6790146104b95780639010d07c146104e557806391d1485414610524576101cf565b80636d70f7ae1461043f57806370a082311461046557806375829def1461048b576101cf565b806329605e771161017157806336568abe1161014b57806336568abe1461039e57806339509351146103ca57806340c10f19146103f657806342966c6814610422576101cf565b806329605e771461032c5780632f2ff15d14610354578063313ce56714610380576101cf565b80632140dcf1116101ad5780632140dcf1146102ab57806323b872dd146102b3578063248a9ca3146102e957806324d7806c14610306576101cf565b806306fdde03146101d4578063095ea7b31461025157806318160ddd14610291575b600080fd5b6101dc610637565b6040805160208082528351818301528351919283929083019185019080838360005b838110156102165781810151838201526020016101fe565b50505050905090810190601f1680156102435780820380516001836020036101000a031916815260200191505b509250505060405180910390f35b61027d6004803603604081101561026757600080fd5b506001600160a01b0381351690602001356106cd565b604080519115158252519081900360200190f35b6102996106eb565b60408051918252519081900360200190f35b6102996106f1565b61027d600480360360608110156102c957600080fd5b506001600160a01b03813581169160208101359091169060400135610715565b610299600480360360208110156102ff57600080fd5b503561079c565b61027d6004803603602081101561031c57600080fd5b50356001600160a01b03166107b1565b6103526004803603602081101561034257600080fd5b50356001600160a01b03166107dd565b005b6103526004803603604081101561036a57600080fd5b50803590602001356001600160a01b031661091a565b610388610981565b6040805160ff9092168252519081900360200190f35b610352600480360360408110156103b457600080fd5b50803590602001356001600160a01b031661098a565b61027d600480360360408110156103e057600080fd5b506001600160a01b0381351690602001356109eb565b6103526004803603604081101561040c57600080fd5b506001600160a01b038135169060200135610a39565b6103526004803603602081101561043857600080fd5b5035610aaa565b61027d6004803603602081101561045557600080fd5b50356001600160a01b0316610b1a565b6102996004803603602081101561047b57600080fd5b50356001600160a01b0316610b46565b610352600480360360208110156104a157600080fd5b50356001600160a01b0316610b61565b610299610c9d565b610352600480360360408110156104cf57600080fd5b506001600160a01b038135169060200135610cc1565b610508600480360360408110156104fb57600080fd5b5080359060200135610d32565b604080516001600160a01b039092168252519081900360200190f35b61027d6004803603604081101561053a57600080fd5b50803590602001356001600160a01b0316610d51565b6101dc610d69565b610299610dca565b61027d6004803603604081101561057657600080fd5b506001600160a01b038135169060200135610dcf565b61027d600480360360408110156105a257600080fd5b506001600160a01b038135169060200135610e37565b610299600480360360208110156105ce57600080fd5b5035610e4b565b610352600480360360408110156105eb57600080fd5b50803590602001356001600160a01b0316610e62565b6102996004803603604081101561061757600080fd5b506001600160a01b0381358116916020013516610ebb565b610299610ee6565b60038054604080516020601f60026000196101006001881615020190951694909404938401819004810282018101909252828152606093909290918301828280156106c35780601f10610698576101008083540402835291602001916106c3565b820191906000526020600020905b8154815290600101906020018083116106a657829003601f168201915b5050505050905090565b60006106e16106da610f1f565b8484610f23565b5060015b92915050565b60025490565b7f000000000000000000000000000000000000000000000000000000000000000081565b600061072284848461100f565b6107928461072e610f1f565b61078d85604051806060016040528060288152602001611963602891396001600160a01b038a1660009081526001602052604081209061076c610f1f565b6001600160a01b03168152602081019190915260400160002054919061116a565b610f23565b5060019392505050565b60009081526006602052604090206002015490565b60006106e57f000000000000000000000000000000000000000000000000000000000000000083610d51565b61080e7f0000000000000000000000000000000000000000000000000000000000000000610809610f1f565b610d51565b6108495760405162461bcd60e51b81526004018080602001828103825260348152602001806118d96034913960400191505060405180910390fd5b6001600160a01b03811661088e5760405162461bcd60e51b815260040180806020018281038252603a8152602001806119f5603a913960400191505060405180910390fd5b6008546108c5907f97667070c54ef182b0f5858b034beac1b6f3089aa2d3188bb1e8929f4fa9b929906001600160a01b0316610e62565b6008805473ffffffffffffffffffffffffffffffffffffffff19166001600160a01b0383161790556109177f97667070c54ef182b0f5858b034beac1b6f3089aa2d3188bb1e8929f4fa9b9298261091a565b50565b60008281526006602052604090206002015461093890610809610f1f565b6109735760405162461bcd60e51b815260040180806020018281038252602f8152602001806117f8602f913960400191505060405180910390fd5b61097d8282611201565b5050565b60055460ff1690565b610992610f1f565b6001600160a01b0316816001600160a01b0316146109e15760405162461bcd60e51b815260040180806020018281038252602f815260200180611a78602f913960400191505060405180910390fd5b61097d828261126a565b60006106e16109f8610f1f565b8461078d8560016000610a09610f1f565b6001600160a01b03908116825260208083019390935260409182016000908120918c1681529252902054906112d3565b610a657f97667070c54ef182b0f5858b034beac1b6f3089aa2d3188bb1e8929f4fa9b929610809610f1f565b610aa05760405162461bcd60e51b815260040180806020018281038252603181526020018061186b6031913960400191505060405180910390fd5b61097d828261132d565b610ad67f97667070c54ef182b0f5858b034beac1b6f3089aa2d3188bb1e8929f4fa9b929610809610f1f565b610b115760405162461bcd60e51b815260040180806020018281038252603181526020018061186b6031913960400191505060405180910390fd5b6109178161141d565b60006106e57f97667070c54ef182b0f5858b034beac1b6f3089aa2d3188bb1e8929f4fa9b92983610d51565b6001600160a01b031660009081526020819052604090205490565b610b8d7f0000000000000000000000000000000000000000000000000000000000000000610809610f1f565b610bc85760405162461bcd60e51b81526004018080602001828103825260348152602001806118d96034913960400191505060405180910390fd5b6001600160a01b038116610c0d5760405162461bcd60e51b815260040180806020018281038252603d81526020018061189c603d913960400191505060405180910390fd5b610c377f00000000000000000000000000000000000000000000000000000000000000008261091a565b600754610c6e907f0000000000000000000000000000000000000000000000000000000000000000906001600160a01b0316610e62565b6007805473ffffffffffffffffffffffffffffffffffffffff19166001600160a01b0392909216919091179055565b7fa49807205ce4d355092ef5a8a18f56e8913cf4a201fbe287825b095693c2177581565b610ced7f97667070c54ef182b0f5858b034beac1b6f3089aa2d3188bb1e8929f4fa9b929610809610f1f565b610d285760405162461bcd60e51b815260040180806020018281038252603181526020018061186b6031913960400191505060405180910390fd5b61097d828261142e565b6000828152600660205260408120610d4a9083611488565b9392505050565b6000828152600660205260408120610d4a9083611494565b60048054604080516020601f60026000196101006001881615020190951694909404938401819004810282018101909252828152606093909290918301828280156106c35780601f10610698576101008083540402835291602001916106c3565b600081565b60006106e1610ddc610f1f565b8461078d85604051806060016040528060258152602001611a536025913960016000610e06610f1f565b6001600160a01b03908116825260208083019390935260409182016000908120918d1681529252902054919061116a565b60006106e1610e44610f1f565b848461100f565b60008181526006602052604081206106e5906114a9565b600082815260066020526040902060020154610e8090610809610f1f565b6109e15760405162461bcd60e51b81526004018080602001828103825260308152602001806119336030913960400191505060405180910390fd5b6001600160a01b03918216600090815260016020908152604080832093909416825291909152205490565b7f97667070c54ef182b0f5858b034beac1b6f3089aa2d3188bb1e8929f4fa9b92981565b6000610d4a836001600160a01b0384166114b4565b3390565b6001600160a01b038316610f685760405162461bcd60e51b8152600401808060200182810382526024815260200180611a2f6024913960400191505060405180910390fd5b6001600160a01b038216610fad5760405162461bcd60e51b81526004018080602001828103825260228152602001806118496022913960400191505060405180910390fd5b6001600160a01b03808416600081815260016020908152604080832094871680845294825291829020859055815185815291517f8c5be1e5ebec7d5bd14f71427d1e84f3dd0314c0f7b2291e5b200ac8c7c3b9259281900390910190a3505050565b6001600160a01b0383166110545760405162461bcd60e51b81526004018080602001828103825260258152602001806119d06025913960400191505060405180910390fd5b6001600160a01b0382166110995760405162461bcd60e51b81526004018080602001828103825260238152602001806117d56023913960400191505060405180910390fd5b6110a4838383611483565b6110e18160405180606001604052806026815260200161190d602691396001600160a01b038616600090815260208190526040902054919061116a565b6001600160a01b03808516600090815260208190526040808220939093559084168152205461111090826112d3565b6001600160a01b038084166000818152602081815260409182902094909455805185815290519193928716927fddf252ad1be2c89b69c2b068fc378daa952ba7f163c4a11628f55a4df523b3ef92918290030190a3505050565b600081848411156111f95760405162461bcd60e51b81526004018080602001828103825283818151815260200191508051906020019080838360005b838110156111be5781810151838201526020016111a6565b50505050905090810190601f1680156111eb5780820380516001836020036101000a031916815260200191505b509250505060405180910390fd5b505050900390565b60008281526006602052604090206112199082610f0a565b1561097d57611226610f1f565b6001600160a01b0316816001600160a01b0316837f2f8788117e7eff1d82e926ec794901d17c78024a50270940304540a733656f0d60405160405180910390a45050565b600082815260066020526040902061128290826114fe565b1561097d5761128f610f1f565b6001600160a01b0316816001600160a01b0316837ff6391f5c32d9c69d2a47ea670b442974b53935d1edc7fd64eb21e047a839171b60405160405180910390a45050565b600082820183811015610d4a576040805162461bcd60e51b815260206004820152601b60248201527f536166654d6174683a206164646974696f6e206f766572666c6f770000000000604482015290519081900360640190fd5b6001600160a01b038216611388576040805162461bcd60e51b815260206004820152601f60248201527f45524332303a206d696e7420746f20746865207a65726f206164647265737300604482015290519081900360640190fd5b61139460008383611483565b6002546113a190826112d3565b6002556001600160a01b0382166000908152602081905260409020546113c790826112d3565b6001600160a01b0383166000818152602081815260408083209490945583518581529351929391927fddf252ad1be2c89b69c2b068fc378daa952ba7f163c4a11628f55a4df523b3ef9281900390910190a35050565b610917611428610f1f565b82611513565b60006114658260405180606001604052806024815260200161198b6024913961145e86611459610f1f565b610ebb565b919061116a565b905061147983611473610f1f565b83610f23565b6114838383611513565b505050565b6000610d4a838361160f565b6000610d4a836001600160a01b038416611673565b60006106e58261168b565b60006114c08383611673565b6114f6575081546001818101845560008481526020808220909301849055845484825282860190935260409020919091556106e5565b5060006106e5565b6000610d4a836001600160a01b03841661168f565b6001600160a01b0382166115585760405162461bcd60e51b81526004018080602001828103825260218152602001806119af6021913960400191505060405180910390fd5b61156482600083611483565b6115a181604051806060016040528060228152602001611827602291396001600160a01b038516600090815260208190526040902054919061116a565b6001600160a01b0383166000908152602081905260409020556002546115c79082611755565b6002556040805182815290516000916001600160a01b038516917fddf252ad1be2c89b69c2b068fc378daa952ba7f163c4a11628f55a4df523b3ef9181900360200190a35050565b815460009082106116515760405162461bcd60e51b81526004018080602001828103825260228152602001806117b36022913960400191505060405180910390fd5b82600001828154811061166057fe5b9060005260206000200154905092915050565b60009081526001919091016020526040902054151590565b5490565b6000818152600183016020526040812054801561174b57835460001980830191908101906000908790839081106116c257fe5b90600052602060002001549050808760000184815481106116df57fe5b60009182526020808320909101929092558281526001898101909252604090209084019055865487908061170f57fe5b600190038181906000526020600020016000905590558660010160008781526020019081526020016000206000905560019450505050506106e5565b60009150506106e5565b6000828211156117ac576040805162461bcd60e51b815260206004820152601e60248201527f536166654d6174683a207375627472616374696f6e206f766572666c6f770000604482015290519081900360640190fd5b5090039056fe456e756d657261626c655365743a20696e646578206f7574206f6620626f756e647345524332303a207472616e7366657220746f20746865207a65726f2061646472657373416363657373436f6e74726f6c3a2073656e646572206d75737420626520616e2061646d696e20746f206772616e7445524332303a206275726e20616d6f756e7420657863656564732062616c616e636545524332303a20617070726f766520746f20746865207a65726f20616464726573734f70657261746f72416363657373436f6e74726f6c3a2073656e646572207265717569726573207065726d697373696f6e41646d696e416363657373436f6e74726f6c48656c7065723a207a65726f206164647265737320676976656e20666f72206e6577206f70657261746f7241646d696e416363657373436f6e74726f6c48656c7065723a2073656e646572207265717569726573207065726d697373696f6e45524332303a207472616e7366657220616d6f756e7420657863656564732062616c616e6365416363657373436f6e74726f6c3a2073656e646572206d75737420626520616e2061646d696e20746f207265766f6b6545524332303a207472616e7366657220616d6f756e74206578636565647320616c6c6f77616e636545524332303a206275726e20616d6f756e74206578636565647320616c6c6f77616e636545524332303a206275726e2066726f6d20746865207a65726f206164647265737345524332303a207472616e736665722066726f6d20746865207a65726f20616464726573734f70657261746f72416363657373436f6e74726f6c3a207a65726f206164647265737320676976656e20666f72206e6577206f70657261746f7245524332303a20617070726f76652066726f6d20746865207a65726f206164647265737345524332303a2064656372656173656420616c6c6f77616e63652062656c6f77207a65726f416363657373436f6e74726f6c3a2063616e206f6e6c792072656e6f756e636520726f6c657320666f722073656c66a164736f6c6343000706000a97667070c54ef182b0f5858b034beac1b6f3089aa2d3188bb1e8929f4fa9b929a49807205ce4d355092ef5a8a18f56e8913cf4a201fbe287825b095693c21775",
  "devdoc": {
    "kind": "dev",
    "methods": {
      "allowance(address,address)": {
        "details": "See {IERC20-allowance}."
      },
      "approve(address,uint256)": {
        "details": "See {IERC20-approve}. Requirements: - `spender` cannot be the zero address."
      },
      "balanceOf(address)": {
        "details": "See {IERC20-balanceOf}."
      },
      "burn(uint256)": {
        "details": "Destroys `amount` tokens from the caller. See {ERC20-_burn}."
      },
      "burnFrom(address,uint256)": {
        "details": "Destroys `amount` tokens from `account`, deducting from the caller's allowance. See {ERC20-_burn} and {ERC20-allowance}. Requirements: - the caller must have allowance for ``accounts``'s tokens of at least `amount`."
      },
      "decimals()": {
        "details": "Returns the number of decimals used to get its user representation. For example, if `decimals` equals `2`, a balance of `505` tokens should be displayed to a user as `5,05` (`505 / 10 ** 2`). Tokens usually opt for a value of 18, imitating the relationship between Ether and Wei. This is the value {ERC20} uses, unless {_setupDecimals} is called. NOTE: This information is only used for _display_ purposes: it in no way affects any of the arithmetic of the contract, including {IERC20-balanceOf} and {IERC20-transfer}."
      },
      "decreaseAllowance(address,uint256)": {
        "details": "Atomically decreases the allowance granted to `spender` by the caller. This is an alternative to {approve} that can be used as a mitigation for problems described in {IERC20-approve}. Emits an {Approval} event indicating the updated allowance. Requirements: - `spender` cannot be the zero address. - `spender` must have allowance for the caller of at least `subtractedValue`."
      },
      "getRoleAdmin(bytes32)": {
        "details": "Returns the admin role that controls `role`. See {grantRole} and {revokeRole}. To change a role's admin, use {_setRoleAdmin}."
      },
      "getRoleMember(bytes32,uint256)": {
        "details": "Returns one of the accounts that have `role`. `index` must be a value between 0 and {getRoleMemberCount}, non-inclusive. Role bearers are not sorted in any particular way, and their ordering may change at any point. WARNING: When using {getRoleMember} and {getRoleMemberCount}, make sure you perform all queries on the same block. See the following https://forum.openzeppelin.com/t/iterating-over-elements-on-enumerableset-in-openzeppelin-contracts/2296[forum post] for more information."
      },
      "getRoleMemberCount(bytes32)": {
        "details": "Returns the number of accounts that have `role`. Can be used together with {getRoleMember} to enumerate all bearers of a role."
      },
      "grantRole(bytes32,address)": {
        "details": "Grants `role` to `account`. If `account` had not been already granted `role`, emits a {RoleGranted} event. Requirements: - the caller must have ``role``'s admin role."
      },
      "hasRole(bytes32,address)": {
        "details": "Returns `true` if `account` has been granted `role`."
      },
      "increaseAllowance(address,uint256)": {
        "details": "Atomically increases the allowance granted to `spender` by the caller. This is an alternative to {approve} that can be used as a mitigation for problems described in {IERC20-approve}. Emits an {Approval} event indicating the updated allowance. Requirements: - `spender` cannot be the zero address."
      },
      "name()": {
        "details": "Returns the name of the token."
      },
      "renounceRole(bytes32,address)": {
        "details": "Revokes `role` from the calling account. Roles are often managed via {grantRole} and {revokeRole}: this function's purpose is to provide a mechanism for accounts to lose their privileges if they are compromised (such as when a trusted device is misplaced). If the calling account had been granted `role`, emits a {RoleRevoked} event. Requirements: - the caller must be `account`."
      },
      "revokeRole(bytes32,address)": {
        "details": "Revokes `role` from `account`. If `account` had been granted `role`, emits a {RoleRevoked} event. Requirements: - the caller must have ``role``'s admin role."
      },
      "symbol()": {
        "details": "Returns the symbol of the token, usually a shorter version of the name."
      },
      "totalSupply()": {
        "details": "See {IERC20-totalSupply}."
      },
      "transfer(address,uint256)": {
        "details": "See {IERC20-transfer}. Requirements: - `recipient` cannot be the zero address. - the caller must have a balance of at least `amount`."
      },
      "transferFrom(address,address,uint256)": {
        "details": "See {IERC20-transferFrom}. Emits an {Approval} event indicating the updated allowance. This is not required by the EIP. See the note at the beginning of {ERC20}. Requirements: - `sender` and `recipient` cannot be the zero address. - `sender` must have a balance of at least `amount`. - the caller must have allowance for ``sender``'s tokens of at least `amount`."
      }
    },
    "version": 1
  },
  "userdoc": {
    "kind": "user",
    "methods": {},
    "version": 1
  },
  "storageLayout": {
    "storage": [
      {
        "astId": 1523,
        "contract": "contracts/tokens/AntShare.sol:AntShare",
        "label": "_balances",
        "offset": 0,
        "slot": "0",
        "type": "t_mapping(t_address,t_uint256)"
      },
      {
        "astId": 1529,
        "contract": "contracts/tokens/AntShare.sol:AntShare",
        "label": "_allowances",
        "offset": 0,
        "slot": "1",
        "type": "t_mapping(t_address,t_mapping(t_address,t_uint256))"
      },
      {
        "astId": 1531,
        "contract": "contracts/tokens/AntShare.sol:AntShare",
        "label": "_totalSupply",
        "offset": 0,
        "slot": "2",
        "type": "t_uint256"
      },
      {
        "astId": 1533,
        "contract": "contracts/tokens/AntShare.sol:AntShare",
        "label": "_name",
        "offset": 0,
        "slot": "3",
        "type": "t_string_storage"
      },
      {
        "astId": 1535,
        "contract": "contracts/tokens/AntShare.sol:AntShare",
        "label": "_symbol",
        "offset": 0,
        "slot": "4",
        "type": "t_string_storage"
      },
      {
        "astId": 1537,
        "contract": "contracts/tokens/AntShare.sol:AntShare",
        "label": "_decimals",
        "offset": 0,
        "slot": "5",
        "type": "t_uint8"
      },
      {
        "astId": 22,
        "contract": "contracts/tokens/AntShare.sol:AntShare",
        "label": "_roles",
        "offset": 0,
        "slot": "6",
        "type": "t_mapping(t_bytes32,t_struct(RoleData)18_storage)"
      },
      {
        "astId": 5142,
        "contract": "contracts/tokens/AntShare.sol:AntShare",
        "label": "_admin",
        "offset": 0,
        "slot": "7",
        "type": "t_address"
      },
      {
        "astId": 5279,
        "contract": "contracts/tokens/AntShare.sol:AntShare",
        "label": "_operator",
        "offset": 0,
        "slot": "8",
        "type": "t_address"
      }
    ],
    "types": {
      "t_address": {
        "encoding": "inplace",
        "label": "address",
        "numberOfBytes": "20"
      },
      "t_array(t_bytes32)dyn_storage": {
        "base": "t_bytes32",
        "encoding": "dynamic_array",
        "label": "bytes32[]",
        "numberOfBytes": "32"
      },
      "t_bytes32": {
        "encoding": "inplace",
        "label": "bytes32",
        "numberOfBytes": "32"
      },
      "t_mapping(t_address,t_mapping(t_address,t_uint256))": {
        "encoding": "mapping",
        "key": "t_address",
        "label": "mapping(address => mapping(address => uint256))",
        "numberOfBytes": "32",
        "value": "t_mapping(t_address,t_uint256)"
      },
      "t_mapping(t_address,t_uint256)": {
        "encoding": "mapping",
        "key": "t_address",
        "label": "mapping(address => uint256)",
        "numberOfBytes": "32",
        "value": "t_uint256"
      },
      "t_mapping(t_bytes32,t_struct(RoleData)18_storage)": {
        "encoding": "mapping",
        "key": "t_bytes32",
        "label": "mapping(bytes32 => struct AccessControl.RoleData)",
        "numberOfBytes": "32",
        "value": "t_struct(RoleData)18_storage"
      },
      "t_mapping(t_bytes32,t_uint256)": {
        "encoding": "mapping",
        "key": "t_bytes32",
        "label": "mapping(bytes32 => uint256)",
        "numberOfBytes": "32",
        "value": "t_uint256"
      },
      "t_string_storage": {
        "encoding": "bytes",
        "label": "string",
        "numberOfBytes": "32"
      },
      "t_struct(AddressSet)3146_storage": {
        "encoding": "inplace",
        "label": "struct EnumerableSet.AddressSet",
        "members": [
          {
            "astId": 3145,
            "contract": "contracts/tokens/AntShare.sol:AntShare",
            "label": "_inner",
            "offset": 0,
            "slot": "0",
            "type": "t_struct(Set)2881_storage"
          }
        ],
        "numberOfBytes": "64"
      },
      "t_struct(RoleData)18_storage": {
        "encoding": "inplace",
        "label": "struct AccessControl.RoleData",
        "members": [
          {
            "astId": 15,
            "contract": "contracts/tokens/AntShare.sol:AntShare",
            "label": "members",
            "offset": 0,
            "slot": "0",
            "type": "t_struct(AddressSet)3146_storage"
          },
          {
            "astId": 17,
            "contract": "contracts/tokens/AntShare.sol:AntShare",
            "label": "adminRole",
            "offset": 0,
            "slot": "2",
            "type": "t_bytes32"
          }
        ],
        "numberOfBytes": "96"
      },
      "t_struct(Set)2881_storage": {
        "encoding": "inplace",
        "label": "struct EnumerableSet.Set",
        "members": [
          {
            "astId": 2876,
            "contract": "contracts/tokens/AntShare.sol:AntShare",
            "label": "_values",
            "offset": 0,
            "slot": "0",
            "type": "t_array(t_bytes32)dyn_storage"
          },
          {
            "astId": 2880,
            "contract": "contracts/tokens/AntShare.sol:AntShare",
            "label": "_indexes",
            "offset": 0,
            "slot": "1",
            "type": "t_mapping(t_bytes32,t_uint256)"
          }
        ],
        "numberOfBytes": "64"
      },
      "t_uint256": {
        "encoding": "inplace",
        "label": "uint256",
        "numberOfBytes": "32"
      },
      "t_uint8": {
        "encoding": "inplace",
        "label": "uint8",
        "numberOfBytes": "1"
      }
    }
  }
}