{
  "address": "0x9857f937E11b4F9341d5e525e0756028159325e3",
  "abi": [
    {
      "anonymous": false,
      "inputs": [
        {
          "indexed": true,
          "internalType": "address",
          "name": "from",
          "type": "address"
        },
        {
          "indexed": true,
          "internalType": "uint256",
          "name": "at",
          "type": "uint256"
        },
        {
          "indexed": false,
          "internalType": "string",
          "name": "reason",
          "type": "string"
        }
      ],
      "name": "Deposit",
      "type": "event"
    },
    {
      "anonymous": false,
      "inputs": [
        {
          "indexed": true,
          "internalType": "bytes32",
          "name": "role",
          "type": "bytes32"
        },
        {
          "indexed": true,
          "internalType": "bytes32",
          "name": "previousAdminRole",
          "type": "bytes32"
        },
        {
          "indexed": true,
          "internalType": "bytes32",
          "name": "newAdminRole",
          "type": "bytes32"
        }
      ],
      "name": "RoleAdminChanged",
      "type": "event"
    },
    {
      "anonymous": false,
      "inputs": [
        {
          "indexed": true,
          "internalType": "bytes32",
          "name": "role",
          "type": "bytes32"
        },
        {
          "indexed": true,
          "internalType": "address",
          "name": "account",
          "type": "address"
        },
        {
          "indexed": true,
          "internalType": "address",
          "name": "sender",
          "type": "address"
        }
      ],
      "name": "RoleGranted",
      "type": "event"
    },
    {
      "anonymous": false,
      "inputs": [
        {
          "indexed": true,
          "internalType": "bytes32",
          "name": "role",
          "type": "bytes32"
        },
        {
          "indexed": true,
          "internalType": "address",
          "name": "account",
          "type": "address"
        },
        {
          "indexed": true,
          "internalType": "address",
          "name": "sender",
          "type": "address"
        }
      ],
      "name": "RoleRevoked",
      "type": "event"
    },
    {
      "anonymous": false,
      "inputs": [
        {
          "indexed": true,
          "internalType": "address",
          "name": "from",
          "type": "address"
        },
        {
          "indexed": true,
          "internalType": "address",
          "name": "to",
          "type": "address"
        },
        {
          "indexed": true,
          "internalType": "uint256",
          "name": "at",
          "type": "uint256"
        },
        {
          "indexed": false,
          "internalType": "string",
          "name": "reason",
          "type": "string"
        }
      ],
      "name": "Withdrawal",
      "type": "event"
    },
    {
      "inputs": [],
      "name": "ADMIN_ROLE",
      "outputs": [
        {
          "internalType": "bytes32",
          "name": "",
          "type": "bytes32"
        }
      ],
      "stateMutability": "view",
      "type": "function"
    },
    {
      "inputs": [],
      "name": "DEFAULT_ADMIN_ROLE",
      "outputs": [
        {
          "internalType": "bytes32",
          "name": "",
          "type": "bytes32"
        }
      ],
      "stateMutability": "view",
      "type": "function"
    },
    {
      "inputs": [],
      "name": "OPERATOR_ROLE",
      "outputs": [
        {
          "internalType": "bytes32",
          "name": "",
          "type": "bytes32"
        }
      ],
      "stateMutability": "view",
      "type": "function"
    },
    {
      "inputs": [],
      "name": "adminAccessRole",
      "outputs": [
        {
          "internalType": "bytes32",
          "name": "",
          "type": "bytes32"
        }
      ],
      "stateMutability": "view",
      "type": "function"
    },
    {
      "inputs": [
        {
          "internalType": "address",
          "name": "token",
          "type": "address"
        },
        {
          "internalType": "uint256",
          "name": "amount",
          "type": "uint256"
        },
        {
          "internalType": "string",
          "name": "reason",
          "type": "string"
        }
      ],
      "name": "deposit",
      "outputs": [],
      "stateMutability": "nonpayable",
      "type": "function"
    },
    {
      "inputs": [
        {
          "internalType": "bytes32",
          "name": "role",
          "type": "bytes32"
        }
      ],
      "name": "getRoleAdmin",
      "outputs": [
        {
          "internalType": "bytes32",
          "name": "",
          "type": "bytes32"
        }
      ],
      "stateMutability": "view",
      "type": "function"
    },
    {
      "inputs": [
        {
          "internalType": "bytes32",
          "name": "role",
          "type": "bytes32"
        },
        {
          "internalType": "uint256",
          "name": "index",
          "type": "uint256"
        }
      ],
      "name": "getRoleMember",
      "outputs": [
        {
          "internalType": "address",
          "name": "",
          "type": "address"
        }
      ],
      "stateMutability": "view",
      "type": "function"
    },
    {
      "inputs": [
        {
          "internalType": "bytes32",
          "name": "role",
          "type": "bytes32"
        }
      ],
      "name": "getRoleMemberCount",
      "outputs": [
        {
          "internalType": "uint256",
          "name": "",
          "type": "uint256"
        }
      ],
      "stateMutability": "view",
      "type": "function"
    },
    {
      "inputs": [
        {
          "internalType": "bytes32",
          "name": "role",
          "type": "bytes32"
        },
        {
          "internalType": "address",
          "name": "account",
          "type": "address"
        }
      ],
      "name": "grantRole",
      "outputs": [],
      "stateMutability": "nonpayable",
      "type": "function"
    },
    {
      "inputs": [
        {
          "internalType": "bytes32",
          "name": "role",
          "type": "bytes32"
        },
        {
          "internalType": "address",
          "name": "account",
          "type": "address"
        }
      ],
      "name": "hasRole",
      "outputs": [
        {
          "internalType": "bool",
          "name": "",
          "type": "bool"
        }
      ],
      "stateMutability": "view",
      "type": "function"
    },
    {
      "inputs": [
        {
          "internalType": "address",
          "name": "account",
          "type": "address"
        }
      ],
      "name": "isAdmin",
      "outputs": [
        {
          "internalType": "bool",
          "name": "",
          "type": "bool"
        }
      ],
      "stateMutability": "view",
      "type": "function"
    },
    {
      "inputs": [
        {
          "internalType": "address",
          "name": "account",
          "type": "address"
        }
      ],
      "name": "isOperator",
      "outputs": [
        {
          "internalType": "bool",
          "name": "",
          "type": "bool"
        }
      ],
      "stateMutability": "view",
      "type": "function"
    },
    {
      "inputs": [
        {
          "internalType": "bytes32",
          "name": "role",
          "type": "bytes32"
        },
        {
          "internalType": "address",
          "name": "account",
          "type": "address"
        }
      ],
      "name": "renounceRole",
      "outputs": [],
      "stateMutability": "nonpayable",
      "type": "function"
    },
    {
      "inputs": [
        {
          "internalType": "bytes32",
          "name": "role",
          "type": "bytes32"
        },
        {
          "internalType": "address",
          "name": "account",
          "type": "address"
        }
      ],
      "name": "revokeRole",
      "outputs": [],
      "stateMutability": "nonpayable",
      "type": "function"
    },
    {
      "inputs": [
        {
          "internalType": "address",
          "name": "newAdmin",
          "type": "address"
        }
      ],
      "name": "transferAdmin",
      "outputs": [],
      "stateMutability": "nonpayable",
      "type": "function"
    },
    {
      "inputs": [
        {
          "internalType": "address",
          "name": "newOperator",
          "type": "address"
        }
      ],
      "name": "transferOperator",
      "outputs": [],
      "stateMutability": "nonpayable",
      "type": "function"
    },
    {
      "inputs": [
        {
          "internalType": "address",
          "name": "token",
          "type": "address"
        },
        {
          "internalType": "uint256",
          "name": "amount",
          "type": "uint256"
        },
        {
          "internalType": "address",
          "name": "to",
          "type": "address"
        },
        {
          "internalType": "string",
          "name": "reason",
          "type": "string"
        }
      ],
      "name": "withdraw",
      "outputs": [],
      "stateMutability": "nonpayable",
      "type": "function"
    }
  ],
  "transactionHash": "0x88aae46bdae1769fd5396b766470b6d35b5ef51b4e45262d3742e2034da0fab7",
  "args": [],
  "solcInputHash": "3c9013a5498b4895dff36c095323ff93",
  "bytecode": "0x60a06040523480156200001157600080fd5b506000805160206200168a8339815191526200002c62000105565b608091909152600180546001600160a01b0319166001600160a01b039092169190911790556200006c6000805160206200168a8339815191528062000109565b620000906000805160206200168a8339815191526200008a62000105565b6200015b565b620000ba6000805160206200166a8339815191526000805160206200168a83398151915262000109565b620000c462000105565b600280546001600160a01b0319166001600160a01b039283161790819055620000ff916000805160206200166a83398151915291166200015b565b6200026b565b3390565b600082815260208190526040808220600201549051839285917fbd79b86ffe0ab8e8776151514217cd7cacd52c909f66475c3af44e129f0b00ff9190a460009182526020829052604090912060020155565b6200016782826200016b565b5050565b6000828152602081815260409091206200019091839062000b78620001e4821b17901c565b156200016757620001a062000105565b6001600160a01b0316816001600160a01b0316837f2f8788117e7eff1d82e926ec794901d17c78024a50270940304540a733656f0d60405160405180910390a45050565b6000620001fb836001600160a01b03841662000204565b90505b92915050565b600062000212838362000253565b6200024a57508154600181810184556000848152602080822090930184905584548482528286019093526040902091909155620001fe565b506000620001fe565b60009081526001919091016020526040902054151590565b6080516113cb6200029f600039806104ab52806104e95280610519528061074a52806107f6528061082452506113cb6000f3fe608060405234801561001057600080fd5b506004361061011b5760003560e01c806375b238fc116100b2578063a217fddf11610081578063ca15c87311610066578063ca15c87314610458578063d547741f14610475578063f5b541a6146104a15761011b565b8063a217fddf14610395578063bfe07da61461039d5761011b565b806375b238fc1461025d5780639010d07c1461026557806391d14854146102a457806395c66ddb146102d05761011b565b80632f2ff15d116100ee5780632f2ff15d146101b957806336568abe146101e55780636d70f7ae1461021157806375829def146102375761011b565b80632140dcf114610120578063248a9ca31461013a57806324d7806c1461015757806329605e7714610191575b600080fd5b6101286104a9565b60408051918252519081900360200190f35b6101286004803603602081101561015057600080fd5b50356104cd565b61017d6004803603602081101561016d57600080fd5b50356001600160a01b03166104e2565b604080519115158252519081900360200190f35b6101b7600480360360208110156101a757600080fd5b50356001600160a01b0316610514565b005b6101b7600480360360408110156101cf57600080fd5b50803590602001356001600160a01b0316610651565b6101b7600480360360408110156101fb57600080fd5b50803590602001356001600160a01b03166106b8565b61017d6004803603602081101561022757600080fd5b50356001600160a01b0316610719565b6101b76004803603602081101561024d57600080fd5b50356001600160a01b0316610745565b610128610881565b6102886004803603604081101561027b57600080fd5b50803590602001356108a5565b604080516001600160a01b039092168252519081900360200190f35b61017d600480360360408110156102ba57600080fd5b50803590602001356001600160a01b03166108c4565b6101b7600480360360808110156102e657600080fd5b6001600160a01b03823581169260208101359260408201359092169181019060808101606082013564010000000081111561032057600080fd5b82018360208201111561033257600080fd5b8035906020019184600183028401116401000000008311171561035457600080fd5b91908080601f0160208091040260200160405190810160405280939291908181526020018383808284376000920191909152509295506108dc945050505050565b610128610a12565b6101b7600480360360608110156103b357600080fd5b6001600160a01b03823516916020810135918101906060810160408201356401000000008111156103e357600080fd5b8201836020820111156103f557600080fd5b8035906020019184600183028401116401000000008311171561041757600080fd5b91908080601f016020809104026020016040519081016040528093929190818152602001838380828437600092019190915250929550610a17945050505050565b6101286004803603602081101561046e57600080fd5b5035610ae4565b6101b76004803603604081101561048b57600080fd5b50803590602001356001600160a01b0316610afb565b610128610b54565b7f000000000000000000000000000000000000000000000000000000000000000081565b60009081526020819052604090206002015490565b600061050e7f0000000000000000000000000000000000000000000000000000000000000000836108c4565b92915050565b6105457f0000000000000000000000000000000000000000000000000000000000000000610540610b8d565b6108c4565b6105805760405162461bcd60e51b81526004018080602001828103825260348152602001806112a26034913960400191505060405180910390fd5b6001600160a01b0381166105c55760405162461bcd60e51b815260040180806020018281038252603a81526020018061132c603a913960400191505060405180910390fd5b6002546105fc907f97667070c54ef182b0f5858b034beac1b6f3089aa2d3188bb1e8929f4fa9b929906001600160a01b0316610afb565b6002805473ffffffffffffffffffffffffffffffffffffffff19166001600160a01b03831617905561064e7f97667070c54ef182b0f5858b034beac1b6f3089aa2d3188bb1e8929f4fa9b92982610651565b50565b60008281526020819052604090206002015461066f90610540610b8d565b6106aa5760405162461bcd60e51b815260040180806020018281038252602f815260200180611205602f913960400191505060405180910390fd5b6106b48282610b91565b5050565b6106c0610b8d565b6001600160a01b0316816001600160a01b03161461070f5760405162461bcd60e51b815260040180806020018281038252602f815260200180611390602f913960400191505060405180910390fd5b6106b48282610bfa565b600061050e7f97667070c54ef182b0f5858b034beac1b6f3089aa2d3188bb1e8929f4fa9b929836108c4565b6107717f0000000000000000000000000000000000000000000000000000000000000000610540610b8d565b6107ac5760405162461bcd60e51b81526004018080602001828103825260348152602001806112a26034913960400191505060405180910390fd5b6001600160a01b0381166107f15760405162461bcd60e51b815260040180806020018281038252603d815260200180611265603d913960400191505060405180910390fd5b61081b7f000000000000000000000000000000000000000000000000000000000000000082610651565b600154610852907f0000000000000000000000000000000000000000000000000000000000000000906001600160a01b0316610afb565b6001805473ffffffffffffffffffffffffffffffffffffffff19166001600160a01b0392909216919091179055565b7fa49807205ce4d355092ef5a8a18f56e8913cf4a201fbe287825b095693c2177581565b60008281526020819052604081206108bd9083610c63565b9392505050565b60008281526020819052604081206108bd9083610c6f565b6109087f97667070c54ef182b0f5858b034beac1b6f3089aa2d3188bb1e8929f4fa9b929610540610b8d565b6109435760405162461bcd60e51b81526004018080602001828103825260318152602001806112346031913960400191505060405180910390fd5b6109576001600160a01b0385168385610c84565b42826001600160a01b031661096a610b8d565b6001600160a01b03167f2b0d35cc55a37536a00cf056f44b5f4b453659ddd18bc131a978463523ad3a1f846040518080602001828103825283818151815260200191508051906020019080838360005b838110156109d25781810151838201526020016109ba565b50505050905090810190601f1680156109ff5780820380516001836020036101000a031916815260200191505b509250505060405180910390a450505050565b600081565b610a34610a22610b8d565b6001600160a01b038516903085610cf0565b42610a3d610b8d565b6001600160a01b03167f643e927b32d5bfd08eccd2fcbd97057ad413850f857a2359639114e8e8dd3d7b836040518080602001828103825283818151815260200191508051906020019080838360005b83811015610aa5578181015183820152602001610a8d565b50505050905090810190601f168015610ad25780820380516001836020036101000a031916815260200191505b509250505060405180910390a3505050565b600081815260208190526040812061050e90610d65565b600082815260208190526040902060020154610b1990610540610b8d565b61070f5760405162461bcd60e51b81526004018080602001828103825260308152602001806112fc6030913960400191505060405180910390fd5b7f97667070c54ef182b0f5858b034beac1b6f3089aa2d3188bb1e8929f4fa9b92981565b60006108bd836001600160a01b038416610d70565b3390565b6000828152602081905260409020610ba99082610b78565b156106b457610bb6610b8d565b6001600160a01b0316816001600160a01b0316837f2f8788117e7eff1d82e926ec794901d17c78024a50270940304540a733656f0d60405160405180910390a45050565b6000828152602081905260409020610c129082610dba565b156106b457610c1f610b8d565b6001600160a01b0316816001600160a01b0316837ff6391f5c32d9c69d2a47ea670b442974b53935d1edc7fd64eb21e047a839171b60405160405180910390a45050565b60006108bd8383610dcf565b60006108bd836001600160a01b038416610e33565b604080516001600160a01b038416602482015260448082018490528251808303909101815260649091019091526020810180517bffffffffffffffffffffffffffffffffffffffffffffffffffffffff1663a9059cbb60e01b179052610ceb908490610e4b565b505050565b604080516001600160a01b0380861660248301528416604482015260648082018490528251808303909101815260849091019091526020810180517bffffffffffffffffffffffffffffffffffffffffffffffffffffffff166323b872dd60e01b179052610d5f908590610e4b565b50505050565b600061050e82610efc565b6000610d7c8383610e33565b610db25750815460018181018455600084815260208082209093018490558454848252828601909352604090209190915561050e565b50600061050e565b60006108bd836001600160a01b038416610f00565b81546000908210610e115760405162461bcd60e51b81526004018080602001828103825260228152602001806111e36022913960400191505060405180910390fd5b826000018281548110610e2057fe5b9060005260206000200154905092915050565b60009081526001919091016020526040902054151590565b6000610ea0826040518060400160405280602081526020017f5361666545524332303a206c6f772d6c6576656c2063616c6c206661696c6564815250856001600160a01b0316610fc69092919063ffffffff16565b805190915015610ceb57808060200190516020811015610ebf57600080fd5b5051610ceb5760405162461bcd60e51b815260040180806020018281038252602a815260200180611366602a913960400191505060405180910390fd5b5490565b60008181526001830160205260408120548015610fbc5783546000198083019190810190600090879083908110610f3357fe5b9060005260206000200154905080876000018481548110610f5057fe5b600091825260208083209091019290925582815260018981019092526040902090840190558654879080610f8057fe5b6001900381819060005260206000200160009055905586600101600087815260200190815260200160002060009055600194505050505061050e565b600091505061050e565b6060610fd58484600085610fdd565b949350505050565b60608247101561101e5760405162461bcd60e51b81526004018080602001828103825260268152602001806112d66026913960400191505060405180910390fd5b61102785611138565b611078576040805162461bcd60e51b815260206004820152601d60248201527f416464726573733a2063616c6c20746f206e6f6e2d636f6e7472616374000000604482015290519081900360640190fd5b600080866001600160a01b031685876040518082805190602001908083835b602083106110b65780518252601f199092019160209182019101611097565b6001836020036101000a03801982511681845116808217855250505050505090500191505060006040518083038185875af1925050503d8060008114611118576040519150601f19603f3d011682016040523d82523d6000602084013e61111d565b606091505b509150915061112d82828661113e565b979650505050505050565b3b151590565b6060831561114d5750816108bd565b82511561115d5782518084602001fd5b8160405162461bcd60e51b81526004018080602001828103825283818151815260200191508051906020019080838360005b838110156111a757818101518382015260200161118f565b50505050905090810190601f1680156111d45780820380516001836020036101000a031916815260200191505b509250505060405180910390fdfe456e756d657261626c655365743a20696e646578206f7574206f6620626f756e6473416363657373436f6e74726f6c3a2073656e646572206d75737420626520616e2061646d696e20746f206772616e744f70657261746f72416363657373436f6e74726f6c3a2073656e646572207265717569726573207065726d697373696f6e41646d696e416363657373436f6e74726f6c48656c7065723a207a65726f206164647265737320676976656e20666f72206e6577206f70657261746f7241646d696e416363657373436f6e74726f6c48656c7065723a2073656e646572207265717569726573207065726d697373696f6e416464726573733a20696e73756666696369656e742062616c616e636520666f722063616c6c416363657373436f6e74726f6c3a2073656e646572206d75737420626520616e2061646d696e20746f207265766f6b654f70657261746f72416363657373436f6e74726f6c3a207a65726f206164647265737320676976656e20666f72206e6577206f70657261746f725361666545524332303a204552433230206f7065726174696f6e20646964206e6f742073756363656564416363657373436f6e74726f6c3a2063616e206f6e6c792072656e6f756e636520726f6c657320666f722073656c66a164736f6c6343000706000a97667070c54ef182b0f5858b034beac1b6f3089aa2d3188bb1e8929f4fa9b929a49807205ce4d355092ef5a8a18f56e8913cf4a201fbe287825b095693c21775",
  "devdoc": {
    "kind": "dev",
    "methods": {
      "getRoleAdmin(bytes32)": {
        "details": "Returns the admin role that controls `role`. See {grantRole} and {revokeRole}. To change a role's admin, use {_setRoleAdmin}."
      },
      "getRoleMember(bytes32,uint256)": {
        "details": "Returns one of the accounts that have `role`. `index` must be a value between 0 and {getRoleMemberCount}, non-inclusive. Role bearers are not sorted in any particular way, and their ordering may change at any point. WARNING: When using {getRoleMember} and {getRoleMemberCount}, make sure you perform all queries on the same block. See the following https://forum.openzeppelin.com/t/iterating-over-elements-on-enumerableset-in-openzeppelin-contracts/2296[forum post] for more information."
      },
      "getRoleMemberCount(bytes32)": {
        "details": "Returns the number of accounts that have `role`. Can be used together with {getRoleMember} to enumerate all bearers of a role."
      },
      "grantRole(bytes32,address)": {
        "details": "Grants `role` to `account`. If `account` had not been already granted `role`, emits a {RoleGranted} event. Requirements: - the caller must have ``role``'s admin role."
      },
      "hasRole(bytes32,address)": {
        "details": "Returns `true` if `account` has been granted `role`."
      },
      "renounceRole(bytes32,address)": {
        "details": "Revokes `role` from the calling account. Roles are often managed via {grantRole} and {revokeRole}: this function's purpose is to provide a mechanism for accounts to lose their privileges if they are compromised (such as when a trusted device is misplaced). If the calling account had been granted `role`, emits a {RoleRevoked} event. Requirements: - the caller must be `account`."
      },
      "revokeRole(bytes32,address)": {
        "details": "Revokes `role` from `account`. If `account` had been granted `role`, emits a {RoleRevoked} event. Requirements: - the caller must have ``role``'s admin role."
      }
    },
    "version": 1
  },
  "userdoc": {
    "kind": "user",
    "methods": {},
    "notice": "Simple ERC fund to use as a contribution pool",
    "version": 1
  },
  "storageLayout": {
    "storage": [
      {
        "astId": 22,
        "contract": "contracts/governance/ContributionPool.sol:ContributionPool",
        "label": "_roles",
        "offset": 0,
        "slot": "0",
        "type": "t_mapping(t_bytes32,t_struct(RoleData)18_storage)"
      },
      {
        "astId": 5152,
        "contract": "contracts/governance/ContributionPool.sol:ContributionPool",
        "label": "_admin",
        "offset": 0,
        "slot": "1",
        "type": "t_address"
      },
      {
        "astId": 5289,
        "contract": "contracts/governance/ContributionPool.sol:ContributionPool",
        "label": "_operator",
        "offset": 0,
        "slot": "2",
        "type": "t_address"
      }
    ],
    "types": {
      "t_address": {
        "encoding": "inplace",
        "label": "address",
        "numberOfBytes": "20"
      },
      "t_array(t_bytes32)dyn_storage": {
        "base": "t_bytes32",
        "encoding": "dynamic_array",
        "label": "bytes32[]",
        "numberOfBytes": "32"
      },
      "t_bytes32": {
        "encoding": "inplace",
        "label": "bytes32",
        "numberOfBytes": "32"
      },
      "t_mapping(t_bytes32,t_struct(RoleData)18_storage)": {
        "encoding": "mapping",
        "key": "t_bytes32",
        "label": "mapping(bytes32 => struct AccessControl.RoleData)",
        "numberOfBytes": "32",
        "value": "t_struct(RoleData)18_storage"
      },
      "t_mapping(t_bytes32,t_uint256)": {
        "encoding": "mapping",
        "key": "t_bytes32",
        "label": "mapping(bytes32 => uint256)",
        "numberOfBytes": "32",
        "value": "t_uint256"
      },
      "t_struct(AddressSet)3146_storage": {
        "encoding": "inplace",
        "label": "struct EnumerableSet.AddressSet",
        "members": [
          {
            "astId": 3145,
            "contract": "contracts/governance/ContributionPool.sol:ContributionPool",
            "label": "_inner",
            "offset": 0,
            "slot": "0",
            "type": "t_struct(Set)2881_storage"
          }
        ],
        "numberOfBytes": "64"
      },
      "t_struct(RoleData)18_storage": {
        "encoding": "inplace",
        "label": "struct AccessControl.RoleData",
        "members": [
          {
            "astId": 15,
            "contract": "contracts/governance/ContributionPool.sol:ContributionPool",
            "label": "members",
            "offset": 0,
            "slot": "0",
            "type": "t_struct(AddressSet)3146_storage"
          },
          {
            "astId": 17,
            "contract": "contracts/governance/ContributionPool.sol:ContributionPool",
            "label": "adminRole",
            "offset": 0,
            "slot": "2",
            "type": "t_bytes32"
          }
        ],
        "numberOfBytes": "96"
      },
      "t_struct(Set)2881_storage": {
        "encoding": "inplace",
        "label": "struct EnumerableSet.Set",
        "members": [
          {
            "astId": 2876,
            "contract": "contracts/governance/ContributionPool.sol:ContributionPool",
            "label": "_values",
            "offset": 0,
            "slot": "0",
            "type": "t_array(t_bytes32)dyn_storage"
          },
          {
            "astId": 2880,
            "contract": "contracts/governance/ContributionPool.sol:ContributionPool",
            "label": "_indexes",
            "offset": 0,
            "slot": "1",
            "type": "t_mapping(t_bytes32,t_uint256)"
          }
        ],
        "numberOfBytes": "64"
      },
      "t_uint256": {
        "encoding": "inplace",
        "label": "uint256",
        "numberOfBytes": "32"
      }
    }
  }
}