{
  "address": "0xa584333890Ee3470eB39814BE1B2A6a759bD960B",
  "abi": [
    {
      "inputs": [
        {
          "internalType": "contract IERC20",
          "name": "_token0",
          "type": "address"
        },
        {
          "internalType": "contract IERC20",
          "name": "_token1",
          "type": "address"
        },
        {
          "internalType": "contract IERC20",
          "name": "_token2",
          "type": "address"
        },
        {
          "internalType": "uint256",
          "name": "_maxAmount0",
          "type": "uint256"
        },
        {
          "internalType": "uint256",
          "name": "_maxAmount1",
          "type": "uint256"
        },
        {
          "internalType": "uint256",
          "name": "_maxAmount2",
          "type": "uint256"
        },
        {
          "internalType": "address[]",
          "name": "_admins",
          "type": "address[]"
        }
      ],
      "stateMutability": "nonpayable",
      "type": "constructor"
    },
    {
      "inputs": [
        {
          "internalType": "address",
          "name": "",
          "type": "address"
        }
      ],
      "name": "admins",
      "outputs": [
        {
          "internalType": "bool",
          "name": "",
          "type": "bool"
        }
      ],
      "stateMutability": "view",
      "type": "function"
    },
    {
      "inputs": [],
      "name": "maxAmount0",
      "outputs": [
        {
          "internalType": "uint256",
          "name": "",
          "type": "uint256"
        }
      ],
      "stateMutability": "view",
      "type": "function"
    },
    {
      "inputs": [],
      "name": "maxAmount1",
      "outputs": [
        {
          "internalType": "uint256",
          "name": "",
          "type": "uint256"
        }
      ],
      "stateMutability": "view",
      "type": "function"
    },
    {
      "inputs": [],
      "name": "maxAmount2",
      "outputs": [
        {
          "internalType": "uint256",
          "name": "",
          "type": "uint256"
        }
      ],
      "stateMutability": "view",
      "type": "function"
    },
    {
      "inputs": [],
      "name": "refill",
      "outputs": [],
      "stateMutability": "nonpayable",
      "type": "function"
    },
    {
      "inputs": [],
      "name": "token0",
      "outputs": [
        {
          "internalType": "contract IERC20",
          "name": "",
          "type": "address"
        }
      ],
      "stateMutability": "view",
      "type": "function"
    },
    {
      "inputs": [],
      "name": "token1",
      "outputs": [
        {
          "internalType": "contract IERC20",
          "name": "",
          "type": "address"
        }
      ],
      "stateMutability": "view",
      "type": "function"
    },
    {
      "inputs": [],
      "name": "token2",
      "outputs": [
        {
          "internalType": "contract IERC20",
          "name": "",
          "type": "address"
        }
      ],
      "stateMutability": "view",
      "type": "function"
    }
  ],
  "transactionHash": "0x01e57f65f7b162dfd9982b6bb0ccbfc75f458aa1a71fd1232b6f884939adf0e6",
  "args": [
    "0x927B180f4d80De2B03335bBD9850A7b7933c5fA9",
    "0x57d2bb68a28687acF5Fe3c70007Bd308b91B32fC",
    "0xeE927d1DD5C54487ffaCa846e3683cdF211A9950",
    "100000000000000000000",
    "100000000000000000000",
    "66666666666666666",
    [
      "0xF9D5169aA864C1Ddda2Aba931Edf722f98B2D159",
      "0x8a612956aBAF09C37e4372d7890835294080eb30",
      "0xF9D5169aA864C1Ddda2Aba931Edf722f98B2D159",
      "0x47Ce08590BdB1162EaDE736EfaAbf2aa2d5C8C92"
    ]
  ],
  "solcInputHash": "693c2dc3f75478bbc282e8f7dd207751",
  "bytecode": "0x608060405234801561001057600080fd5b50604051610984380380610984833981810160405260e081101561003357600080fd5b815160208301516040808501516060860151608087015160a088015160c0890180519551979996989497939692959194830192918464010000000082111561007a57600080fd5b90830190602082018581111561008f57600080fd5b82518660208202830111640100000000821117156100ac57600080fd5b82525081516020918201928201910280838360005b838110156100d95781810151838201526020016100c1565b50505050919091016040525050600080546001600160a01b03808c166001600160a01b0319928316178355600180548c831690841617905560028054918b16919092161790556003879055600486905560058590559150505b81518110156101875760016006600084848151811061014d57fe5b6020908102919091018101516001600160a01b03168252810191909152604001600020805460ff1916911515919091179055600101610132565b50505050505050506107e68061019e6000396000f3fe608060405234801561001057600080fd5b50600436106100885760003560e01c8063538e07591161005b578063538e07591461010d57806372193c5b14610117578063d0abd1ad1461011f578063d21220a71461012757610088565b80630dfe16811461008d57806325be124e146100b1578063429b62e5146100b957806350a8c639146100f3575b600080fd5b61009561012f565b604080516001600160a01b039092168252519081900360200190f35b61009561013e565b6100df600480360360208110156100cf57600080fd5b50356001600160a01b031661014d565b604080519115158252519081900360200190f35b6100fb610162565b60408051918252519081900360200190f35b610115610168565b005b6100fb6103d2565b6100fb6103d8565b6100956103de565b6000546001600160a01b031681565b6002546001600160a01b031681565b60066020526000908152604090205460ff1681565b60045481565b6001600660006101766103ed565b6001600160a01b0316815260208101919091526040016000205460ff161561019c575060145b600080546001600160a01b03166370a082316101b66103ed565b6040518263ffffffff1660e01b815260040180826001600160a01b0316815260200191505060206040518083038186803b1580156101f357600080fd5b505afa158015610207573d6000803e3d6000fd5b505050506040513d602081101561021d57600080fd5b50516003549091508202808210156102575761025761023a6103ed565b61024483856103f1565b6000546001600160a01b0316919061044e565b6001546001600160a01b03166370a082316102706103ed565b6040518263ffffffff1660e01b815260040180826001600160a01b0316815260200191505060206040518083038186803b1580156102ad57600080fd5b505afa1580156102c1573d6000803e3d6000fd5b505050506040513d60208110156102d757600080fd5b5051600454909250830280831015610311576103116102f46103ed565b6102fe83866103f1565b6001546001600160a01b0316919061044e565b6002546001600160a01b03166370a0823161032a6103ed565b6040518263ffffffff1660e01b815260040180826001600160a01b0316815260200191505060206040518083038186803b15801561036757600080fd5b505afa15801561037b573d6000803e3d6000fd5b505050506040513d602081101561039157600080fd5b50516005549093508402808410156103cb576103cb6103ae6103ed565b6103b883876103f1565b6002546001600160a01b0316919061044e565b5050505050565b60055481565b60035481565b6001546001600160a01b031681565b3390565b600082821115610448576040805162461bcd60e51b815260206004820152601e60248201527f536166654d6174683a207375627472616374696f6e206f766572666c6f770000604482015290519081900360640190fd5b50900390565b604080516001600160a01b038416602482015260448082018490528251808303909101815260649091019091526020810180517bffffffffffffffffffffffffffffffffffffffffffffffffffffffff1663a9059cbb60e01b1790526104b59084906104ba565b505050565b600061050f826040518060400160405280602081526020017f5361666545524332303a206c6f772d6c6576656c2063616c6c206661696c6564815250856001600160a01b031661056b9092919063ffffffff16565b8051909150156104b55780806020019051602081101561052e57600080fd5b50516104b55760405162461bcd60e51b815260040180806020018281038252602a8152602001806107b0602a913960400191505060405180910390fd5b606061057a8484600085610584565b90505b9392505050565b6060824710156105c55760405162461bcd60e51b815260040180806020018281038252602681526020018061078a6026913960400191505060405180910390fd5b6105ce856106df565b61061f576040805162461bcd60e51b815260206004820152601d60248201527f416464726573733a2063616c6c20746f206e6f6e2d636f6e7472616374000000604482015290519081900360640190fd5b600080866001600160a01b031685876040518082805190602001908083835b6020831061065d5780518252601f19909201916020918201910161063e565b6001836020036101000a03801982511681845116808217855250505050505090500191505060006040518083038185875af1925050503d80600081146106bf576040519150601f19603f3d011682016040523d82523d6000602084013e6106c4565b606091505b50915091506106d48282866106e5565b979650505050505050565b3b151590565b606083156106f457508161057d565b8251156107045782518084602001fd5b8160405162461bcd60e51b81526004018080602001828103825283818151815260200191508051906020019080838360005b8381101561074e578181015183820152602001610736565b50505050905090810190601f16801561077b5780820380516001836020036101000a031916815260200191505b509250505060405180910390fdfe416464726573733a20696e73756666696369656e742062616c616e636520666f722063616c6c5361666545524332303a204552433230206f7065726174696f6e20646964206e6f742073756363656564a164736f6c6343000706000a",
  "devdoc": {
    "kind": "dev",
    "methods": {},
    "version": 1
  },
  "userdoc": {
    "kind": "user",
    "methods": {},
    "notice": "Contract to provide with token funds to the caller",
    "version": 1
  },
  "storageLayout": {
    "storage": [
      {
        "astId": 9676,
        "contract": "contracts/test/TokenFaucet.sol:TokenFaucet",
        "label": "token0",
        "offset": 0,
        "slot": "0",
        "type": "t_contract(IERC20)2146"
      },
      {
        "astId": 9678,
        "contract": "contracts/test/TokenFaucet.sol:TokenFaucet",
        "label": "token1",
        "offset": 0,
        "slot": "1",
        "type": "t_contract(IERC20)2146"
      },
      {
        "astId": 9680,
        "contract": "contracts/test/TokenFaucet.sol:TokenFaucet",
        "label": "token2",
        "offset": 0,
        "slot": "2",
        "type": "t_contract(IERC20)2146"
      },
      {
        "astId": 9682,
        "contract": "contracts/test/TokenFaucet.sol:TokenFaucet",
        "label": "maxAmount0",
        "offset": 0,
        "slot": "3",
        "type": "t_uint256"
      },
      {
        "astId": 9684,
        "contract": "contracts/test/TokenFaucet.sol:TokenFaucet",
        "label": "maxAmount1",
        "offset": 0,
        "slot": "4",
        "type": "t_uint256"
      },
      {
        "astId": 9686,
        "contract": "contracts/test/TokenFaucet.sol:TokenFaucet",
        "label": "maxAmount2",
        "offset": 0,
        "slot": "5",
        "type": "t_uint256"
      },
      {
        "astId": 9690,
        "contract": "contracts/test/TokenFaucet.sol:TokenFaucet",
        "label": "admins",
        "offset": 0,
        "slot": "6",
        "type": "t_mapping(t_address,t_bool)"
      }
    ],
    "types": {
      "t_address": {
        "encoding": "inplace",
        "label": "address",
        "numberOfBytes": "20"
      },
      "t_bool": {
        "encoding": "inplace",
        "label": "bool",
        "numberOfBytes": "1"
      },
      "t_contract(IERC20)2146": {
        "encoding": "inplace",
        "label": "contract IERC20",
        "numberOfBytes": "20"
      },
      "t_mapping(t_address,t_bool)": {
        "encoding": "mapping",
        "key": "t_address",
        "label": "mapping(address => bool)",
        "numberOfBytes": "32",
        "value": "t_bool"
      },
      "t_uint256": {
        "encoding": "inplace",
        "label": "uint256",
        "numberOfBytes": "32"
      }
    }
  }
}