{
  "address": "0x9247c834d641E141dEdcf0e415ef268cB0755Ab1",
  "abi": [
    {
      "inputs": [
        {
          "internalType": "contract IUniswapV3Staker",
          "name": "poolStaker_",
          "type": "address"
        },
        {
          "internalType": "contract IUniswapV3Pool",
          "name": "pool_",
          "type": "address"
        },
        {
          "internalType": "contract IERC20Minimal",
          "name": "rewardToken_",
          "type": "address"
        },
        {
          "internalType": "address",
          "name": "refundee_",
          "type": "address"
        }
      ],
      "stateMutability": "nonpayable",
      "type": "constructor"
    },
    {
      "anonymous": false,
      "inputs": [
        {
          "indexed": true,
          "internalType": "bytes32",
          "name": "role",
          "type": "bytes32"
        },
        {
          "indexed": true,
          "internalType": "bytes32",
          "name": "previousAdminRole",
          "type": "bytes32"
        },
        {
          "indexed": true,
          "internalType": "bytes32",
          "name": "newAdminRole",
          "type": "bytes32"
        }
      ],
      "name": "RoleAdminChanged",
      "type": "event"
    },
    {
      "anonymous": false,
      "inputs": [
        {
          "indexed": true,
          "internalType": "bytes32",
          "name": "role",
          "type": "bytes32"
        },
        {
          "indexed": true,
          "internalType": "address",
          "name": "account",
          "type": "address"
        },
        {
          "indexed": true,
          "internalType": "address",
          "name": "sender",
          "type": "address"
        }
      ],
      "name": "RoleGranted",
      "type": "event"
    },
    {
      "anonymous": false,
      "inputs": [
        {
          "indexed": true,
          "internalType": "bytes32",
          "name": "role",
          "type": "bytes32"
        },
        {
          "indexed": true,
          "internalType": "address",
          "name": "account",
          "type": "address"
        },
        {
          "indexed": true,
          "internalType": "address",
          "name": "sender",
          "type": "address"
        }
      ],
      "name": "RoleRevoked",
      "type": "event"
    },
    {
      "inputs": [],
      "name": "ADMIN_ROLE",
      "outputs": [
        {
          "internalType": "bytes32",
          "name": "",
          "type": "bytes32"
        }
      ],
      "stateMutability": "view",
      "type": "function"
    },
    {
      "inputs": [],
      "name": "DEFAULT_ADMIN_ROLE",
      "outputs": [
        {
          "internalType": "bytes32",
          "name": "",
          "type": "bytes32"
        }
      ],
      "stateMutability": "view",
      "type": "function"
    },
    {
      "inputs": [],
      "name": "OPERATOR_ROLE",
      "outputs": [
        {
          "internalType": "bytes32",
          "name": "",
          "type": "bytes32"
        }
      ],
      "stateMutability": "view",
      "type": "function"
    },
    {
      "inputs": [],
      "name": "adminAccessRole",
      "outputs": [
        {
          "internalType": "bytes32",
          "name": "",
          "type": "bytes32"
        }
      ],
      "stateMutability": "view",
      "type": "function"
    },
    {
      "inputs": [
        {
          "internalType": "uint256",
          "name": "rewardAmount_",
          "type": "uint256"
        },
        {
          "internalType": "uint256",
          "name": "startTime_",
          "type": "uint256"
        },
        {
          "internalType": "uint256",
          "name": "endTime_",
          "type": "uint256"
        }
      ],
      "name": "createIncentive",
      "outputs": [],
      "stateMutability": "nonpayable",
      "type": "function"
    },
    {
      "inputs": [],
      "name": "endTime",
      "outputs": [
        {
          "internalType": "uint256",
          "name": "",
          "type": "uint256"
        }
      ],
      "stateMutability": "view",
      "type": "function"
    },
    {
      "inputs": [
        {
          "internalType": "address",
          "name": "to",
          "type": "address"
        },
        {
          "internalType": "uint256",
          "name": "tokenId",
          "type": "uint256"
        }
      ],
      "name": "exit",
      "outputs": [
        {
          "internalType": "uint256",
          "name": "reward",
          "type": "uint256"
        }
      ],
      "stateMutability": "nonpayable",
      "type": "function"
    },
    {
      "inputs": [
        {
          "internalType": "uint256",
          "name": "tokenId",
          "type": "uint256"
        }
      ],
      "name": "getRewardInfo",
      "outputs": [
        {
          "internalType": "uint256",
          "name": "reward",
          "type": "uint256"
        }
      ],
      "stateMutability": "nonpayable",
      "type": "function"
    },
    {
      "inputs": [],
      "name": "getRewardRate",
      "outputs": [
        {
          "internalType": "uint256",
          "name": "",
          "type": "uint256"
        }
      ],
      "stateMutability": "view",
      "type": "function"
    },
    {
      "inputs": [
        {
          "internalType": "bytes32",
          "name": "role",
          "type": "bytes32"
        }
      ],
      "name": "getRoleAdmin",
      "outputs": [
        {
          "internalType": "bytes32",
          "name": "",
          "type": "bytes32"
        }
      ],
      "stateMutability": "view",
      "type": "function"
    },
    {
      "inputs": [
        {
          "internalType": "bytes32",
          "name": "role",
          "type": "bytes32"
        },
        {
          "internalType": "uint256",
          "name": "index",
          "type": "uint256"
        }
      ],
      "name": "getRoleMember",
      "outputs": [
        {
          "internalType": "address",
          "name": "",
          "type": "address"
        }
      ],
      "stateMutability": "view",
      "type": "function"
    },
    {
      "inputs": [
        {
          "internalType": "bytes32",
          "name": "role",
          "type": "bytes32"
        }
      ],
      "name": "getRoleMemberCount",
      "outputs": [
        {
          "internalType": "uint256",
          "name": "",
          "type": "uint256"
        }
      ],
      "stateMutability": "view",
      "type": "function"
    },
    {
      "inputs": [
        {
          "internalType": "bytes32",
          "name": "role",
          "type": "bytes32"
        },
        {
          "internalType": "address",
          "name": "account",
          "type": "address"
        }
      ],
      "name": "grantRole",
      "outputs": [],
      "stateMutability": "nonpayable",
      "type": "function"
    },
    {
      "inputs": [
        {
          "internalType": "bytes32",
          "name": "role",
          "type": "bytes32"
        },
        {
          "internalType": "address",
          "name": "account",
          "type": "address"
        }
      ],
      "name": "hasRole",
      "outputs": [
        {
          "internalType": "bool",
          "name": "",
          "type": "bool"
        }
      ],
      "stateMutability": "view",
      "type": "function"
    },
    {
      "inputs": [
        {
          "internalType": "address",
          "name": "account",
          "type": "address"
        }
      ],
      "name": "isAdmin",
      "outputs": [
        {
          "internalType": "bool",
          "name": "",
          "type": "bool"
        }
      ],
      "stateMutability": "view",
      "type": "function"
    },
    {
      "inputs": [
        {
          "internalType": "address",
          "name": "account",
          "type": "address"
        }
      ],
      "name": "isOperator",
      "outputs": [
        {
          "internalType": "bool",
          "name": "",
          "type": "bool"
        }
      ],
      "stateMutability": "view",
      "type": "function"
    },
    {
      "inputs": [],
      "name": "pool",
      "outputs": [
        {
          "internalType": "contract IUniswapV3Pool",
          "name": "",
          "type": "address"
        }
      ],
      "stateMutability": "view",
      "type": "function"
    },
    {
      "inputs": [],
      "name": "poolStaker",
      "outputs": [
        {
          "internalType": "contract IUniswapV3Staker",
          "name": "",
          "type": "address"
        }
      ],
      "stateMutability": "view",
      "type": "function"
    },
    {
      "inputs": [],
      "name": "refundee",
      "outputs": [
        {
          "internalType": "address",
          "name": "",
          "type": "address"
        }
      ],
      "stateMutability": "view",
      "type": "function"
    },
    {
      "inputs": [
        {
          "internalType": "bytes32",
          "name": "role",
          "type": "bytes32"
        },
        {
          "internalType": "address",
          "name": "account",
          "type": "address"
        }
      ],
      "name": "renounceRole",
      "outputs": [],
      "stateMutability": "nonpayable",
      "type": "function"
    },
    {
      "inputs": [
        {
          "internalType": "bytes32",
          "name": "role",
          "type": "bytes32"
        },
        {
          "internalType": "address",
          "name": "account",
          "type": "address"
        }
      ],
      "name": "revokeRole",
      "outputs": [],
      "stateMutability": "nonpayable",
      "type": "function"
    },
    {
      "inputs": [],
      "name": "rewardAmount",
      "outputs": [
        {
          "internalType": "uint256",
          "name": "",
          "type": "uint256"
        }
      ],
      "stateMutability": "view",
      "type": "function"
    },
    {
      "inputs": [],
      "name": "rewardToken",
      "outputs": [
        {
          "internalType": "contract IERC20Minimal",
          "name": "",
          "type": "address"
        }
      ],
      "stateMutability": "view",
      "type": "function"
    },
    {
      "inputs": [
        {
          "internalType": "uint256",
          "name": "tokenId",
          "type": "uint256"
        }
      ],
      "name": "stakeToken",
      "outputs": [],
      "stateMutability": "nonpayable",
      "type": "function"
    },
    {
      "inputs": [],
      "name": "startTime",
      "outputs": [
        {
          "internalType": "uint256",
          "name": "",
          "type": "uint256"
        }
      ],
      "stateMutability": "view",
      "type": "function"
    },
    {
      "inputs": [
        {
          "internalType": "address",
          "name": "newAdmin",
          "type": "address"
        }
      ],
      "name": "transferAdmin",
      "outputs": [],
      "stateMutability": "nonpayable",
      "type": "function"
    },
    {
      "inputs": [
        {
          "internalType": "address",
          "name": "newOperator",
          "type": "address"
        }
      ],
      "name": "transferOperator",
      "outputs": [],
      "stateMutability": "nonpayable",
      "type": "function"
    },
    {
      "inputs": [
        {
          "internalType": "uint256",
          "name": "tokenId",
          "type": "uint256"
        }
      ],
      "name": "unstakeToken",
      "outputs": [],
      "stateMutability": "nonpayable",
      "type": "function"
    }
  ],
  "transactionHash": "0xdef0862cf8e2a69486471f99eb04b63434cd2054cdf8b2b1244c39171a92935f",
  "args": [
    "0x1f98407aaB862CdDeF78Ed252D6f557aA5b0f00d",
    "0x478DA2d8B4786bfCA33a3D0Fd7B9fE6D35D3e9A3",
    "0x95Cdc9577C2cf59a87c6050cFcafFDa9eB55c4c1",
    "0xF9D5169aA864C1Ddda2Aba931Edf722f98B2D159"
  ],
  "solcInputHash": "0076c8813888b7e0fbbcdc51edc3fbf9",
  "bytecode": "0x60a06040523480156200001157600080fd5b50604051620019c0380380620019c0833981810160405260808110156200003757600080fd5b508051602082015160408301516060909301519192909183838383600080516020620019a08339815191526200006c62000198565b608091909152600180546001600160a01b0319166001600160a01b03909216919091179055620000ac600080516020620019a0833981519152806200019c565b620000d0600080516020620019a0833981519152620000ca62000198565b620001ee565b620000fa60008051602062001980833981519152600080516020620019a08339815191526200019c565b6200010462000198565b600280546001600160a01b0319166001600160a01b0392831617908190556200013f91600080516020620019808339815191529116620001ee565b600380546001600160a01b039586166001600160a01b031991821617909155600480549486169482169490941790935560058054928516928416929092179091556006805491909316911617905550620002fe92505050565b3390565b600082815260208190526040808220600201549051839285917fbd79b86ffe0ab8e8776151514217cd7cacd52c909f66475c3af44e129f0b00ff9190a460009182526020829052604090912060020155565b620001fa8282620001fe565b5050565b6000828152602081815260409091206200022391839062000f8f62000277821b17901c565b15620001fa576200023362000198565b6001600160a01b0316816001600160a01b0316837f2f8788117e7eff1d82e926ec794901d17c78024a50270940304540a733656f0d60405160405180910390a45050565b60006200028e836001600160a01b03841662000297565b90505b92915050565b6000620002a58383620002e6565b620002dd5750815460018181018455600084815260208082209093018490558454848252828601909352604090209190915562000291565b50600062000291565b60009081526001919091016020526040902054151590565b60805161164e62000332600039806104cf52806105a452806105d452806109f75280610aa35280610ad1525061164e6000f3fe608060405234801561001057600080fd5b50600436106101c45760003560e01c806378e97925116100f9578063ca15c87311610097578063ef693bed11610071578063ef693bed1461047a578063f5b541a6146104a6578063f7b2a7be146104ae578063f7c618c1146104b6576101c4565b8063ca15c87314610414578063cda6b84714610431578063d547741f1461044e576101c4565b806391d14854116100d357806391d14854146103d05780639ba4d80a146103fc5780639d22520314610404578063a217fddf1461040c576101c4565b806378e979251461039d5780637e1a3786146103a55780639010d07c146103ad576101c4565b80632f2ff15d116101665780635797ffd1116101405780635797ffd1146103205780636d70f7ae1461034957806375829def1461036f57806375b238fc14610395576101c4565b80632f2ff15d146102c05780633197cbb6146102ec57806336568abe146102f4576101c4565b8063248a9ca3116101a2578063248a9ca31461022457806324d7806c1461024157806329605e771461027b5780632cfb6688146102a3576101c4565b806316f0115b146101c95780632140dcf1146101ed578063243d382714610207575b600080fd5b6101d16104be565b604080516001600160a01b039092168252519081900360200190f35b6101f56104cd565b60408051918252519081900360200190f35b6101f56004803603602081101561021d57600080fd5b50356104f1565b6101f56004803603602081101561023a57600080fd5b5035610588565b6102676004803603602081101561025757600080fd5b50356001600160a01b031661059d565b604080519115158252519081900360200190f35b6102a16004803603602081101561029157600080fd5b50356001600160a01b03166105cf565b005b6102a1600480360360208110156102b957600080fd5b503561070c565b6102a1600480360360408110156102d657600080fd5b50803590602001356001600160a01b03166107e6565b6101f561084d565b6102a16004803603604081101561030a57600080fd5b50803590602001356001600160a01b0316610853565b6102a16004803603606081101561033657600080fd5b50803590602081013590604001356108b4565b6102676004803603602081101561035f57600080fd5b50356001600160a01b03166109c6565b6102a16004803603602081101561038557600080fd5b50356001600160a01b03166109f2565b6101f5610b2e565b6101f5610b52565b6101f5610b58565b6101d1600480360360408110156103c357600080fd5b5080359060200135610b8c565b610267600480360360408110156103e657600080fd5b50803590602001356001600160a01b0316610bab565b6101d1610bc3565b6101d1610bd2565b6101f5610be1565b6101f56004803603602081101561042a57600080fd5b5035610be6565b6102a16004803603602081101561044757600080fd5b5035610bfd565b6102a16004803603604081101561046457600080fd5b50803590602001356001600160a01b0316610ca1565b6101f56004803603604081101561049057600080fd5b506001600160a01b038135169060200135610cfa565b6101f5610f56565b6101f5610f7a565b6101d1610f80565b6004546001600160a01b031681565b7f000000000000000000000000000000000000000000000000000000000000000081565b6000806104fc610fa4565b600354604051636ca98c3760e11b81529192506001600160a01b03169063d953186e9061052f9084908790600401611426565b6040805180830381600087803b15801561054857600080fd5b505af115801561055c573d6000803e3d6000fd5b505050506040513d601f19601f8201168201806040525081019061058091906113af565b509392505050565b60009081526020819052604090206002015490565b60006105c97f000000000000000000000000000000000000000000000000000000000000000083610bab565b92915050565b6106007f00000000000000000000000000000000000000000000000000000000000000006105fb610fe2565b610bab565b61063b5760405162461bcd60e51b81526004018080602001828103825260348152602001806115546034913960400191505060405180910390fd5b6001600160a01b0381166106805760405162461bcd60e51b815260040180806020018281038252603a8152602001806115d9603a913960400191505060405180910390fd5b6002546106b7907f97667070c54ef182b0f5858b034beac1b6f3089aa2d3188bb1e8929f4fa9b929906001600160a01b0316610ca1565b6002805473ffffffffffffffffffffffffffffffffffffffff19166001600160a01b0383161790556107097f97667070c54ef182b0f5858b034beac1b6f3089aa2d3188bb1e8929f4fa9b929826107e6565b50565b6107387f97667070c54ef182b0f5858b034beac1b6f3089aa2d3188bb1e8929f4fa9b9296105fb610fe2565b6107735760405162461bcd60e51b81526004018080602001828103825260318152602001806114e66031913960400191505060405180910390fd5b600061077d610fa4565b600354604051637aa4d5a160e11b81529192506001600160a01b03169063f549ab42906107b09084908690600401611426565b600060405180830381600087803b1580156107ca57600080fd5b505af11580156107de573d6000803e3d6000fd5b505050505050565b600082815260208190526040902060020154610804906105fb610fe2565b61083f5760405162461bcd60e51b815260040180806020018281038252602f8152602001806114b7602f913960400191505060405180910390fd5b6108498282610fe6565b5050565b60085481565b61085b610fe2565b6001600160a01b0316816001600160a01b0316146108aa5760405162461bcd60e51b815260040180806020018281038252602f815260200180611613602f913960400191505060405180910390fd5b610849828261104f565b60078290556008819055600983905560006108cd610fa4565b60055460035460095460405163095ea7b360e01b81529394506001600160a01b039283169363095ea7b393610907931691906004016113e9565b602060405180830381600087803b15801561092157600080fd5b505af1158015610935573d6000803e3d6000fd5b505050506040513d601f19601f820116820180604052508101906109599190611377565b50600354600954604051635cc5e3d960e01b81526001600160a01b0390921691635cc5e3d99161098e91859190600401611426565b600060405180830381600087803b1580156109a857600080fd5b505af11580156109bc573d6000803e3d6000fd5b5050505050505050565b60006105c97f97667070c54ef182b0f5858b034beac1b6f3089aa2d3188bb1e8929f4fa9b92983610bab565b610a1e7f00000000000000000000000000000000000000000000000000000000000000006105fb610fe2565b610a595760405162461bcd60e51b81526004018080602001828103825260348152602001806115546034913960400191505060405180910390fd5b6001600160a01b038116610a9e5760405162461bcd60e51b815260040180806020018281038252603d815260200180611517603d913960400191505060405180910390fd5b610ac87f0000000000000000000000000000000000000000000000000000000000000000826107e6565b600154610aff907f0000000000000000000000000000000000000000000000000000000000000000906001600160a01b0316610ca1565b6001805473ffffffffffffffffffffffffffffffffffffffff19166001600160a01b0392909216919091179055565b7fa49807205ce4d355092ef5a8a18f56e8913cf4a201fbe287825b095693c2177581565b60075481565b6000610b8760075460085403610b81670de0b6b3a76400006009546110b890919063ffffffff16565b90611111565b905090565b6000828152602081905260408120610ba49083611178565b9392505050565b6000828152602081905260408120610ba49083611184565b6006546001600160a01b031681565b6003546001600160a01b031681565b600081565b60008181526020819052604081206105c990611199565b610c297f97667070c54ef182b0f5858b034beac1b6f3089aa2d3188bb1e8929f4fa9b9296105fb610fe2565b610c645760405162461bcd60e51b81526004018080602001828103825260318152602001806114e66031913960400191505060405180910390fd5b6000610c6e610fa4565b60035460405163f2d2909b60e01b81529192506001600160a01b03169063f2d2909b906107b09084908690600401611426565b600082815260208190526040902060020154610cbf906105fb610fe2565b6108aa5760405162461bcd60e51b81526004018080602001828103825260308152602001806115886030913960400191505060405180910390fd5b6000610d287f97667070c54ef182b0f5858b034beac1b6f3089aa2d3188bb1e8929f4fa9b9296105fb610fe2565b610d635760405162461bcd60e51b81526004018080602001828103825260318152602001806114e66031913960400191505060405180910390fd5b6000610d6d610fa4565b600354604051636ca98c3760e11b81529192506000916001600160a01b039091169063d953186e90610da59085908890600401611426565b6040805180830381600087803b158015610dbe57600080fd5b505af1158015610dd2573d6000803e3d6000fd5b505050506040513d601f19601f82011682018060405250810190610df691906113af565b50600354604051637aa4d5a160e11b81529192506001600160a01b03169063f549ab4290610e2a9085908890600401611426565b600060405180830381600087803b158015610e4457600080fd5b505af1158015610e58573d6000803e3d6000fd5b50506003548451604051632f2d783d60e01b81526001600160a01b039092169350632f2d783d9250610e909189908690600401611402565b602060405180830381600087803b158015610eaa57600080fd5b505af1158015610ebe573d6000803e3d6000fd5b505050506040513d601f19601f82011682018060405250810190610ee29190611397565b6003549093506001600160a01b0316633c423f0b85610eff610fe2565b6040518363ffffffff1660e01b8152600401610f1c92919061146e565b600060405180830381600087803b158015610f3657600080fd5b505af1158015610f4a573d6000803e3d6000fd5b50505050505092915050565b7f97667070c54ef182b0f5858b034beac1b6f3089aa2d3188bb1e8929f4fa9b92981565b60095481565b6005546001600160a01b031681565b6000610ba4836001600160a01b0384166111a4565b610fac611349565b6005546001600160a01b039081168252600454811660208301526007546040830152600854606083015260065416608082015290565b3390565b6000828152602081905260409020610ffe9082610f8f565b156108495761100b610fe2565b6001600160a01b0316816001600160a01b0316837f2f8788117e7eff1d82e926ec794901d17c78024a50270940304540a733656f0d60405160405180910390a45050565b600082815260208190526040902061106790826111ee565b1561084957611074610fe2565b6001600160a01b0316816001600160a01b0316837ff6391f5c32d9c69d2a47ea670b442974b53935d1edc7fd64eb21e047a839171b60405160405180910390a45050565b6000826110c7575060006105c9565b828202828482816110d457fe5b0414610ba45760405162461bcd60e51b81526004018080602001828103825260218152602001806115b86021913960400191505060405180910390fd5b6000808211611167576040805162461bcd60e51b815260206004820152601a60248201527f536166654d6174683a206469766973696f6e206279207a65726f000000000000604482015290519081900360640190fd5b81838161117057fe5b049392505050565b6000610ba48383611203565b6000610ba4836001600160a01b038416611267565b60006105c98261127f565b60006111b08383611267565b6111e6575081546001818101845560008481526020808220909301849055845484825282860190935260409020919091556105c9565b5060006105c9565b6000610ba4836001600160a01b038416611283565b815460009082106112455760405162461bcd60e51b81526004018080602001828103825260228152602001806114956022913960400191505060405180910390fd5b82600001828154811061125457fe5b9060005260206000200154905092915050565b60009081526001919091016020526040902054151590565b5490565b6000818152600183016020526040812054801561133f57835460001980830191908101906000908790839081106112b657fe5b90600052602060002001549050808760000184815481106112d357fe5b60009182526020808320909101929092558281526001898101909252604090209084019055865487908061130357fe5b600190038181906000526020600020016000905590558660010160008781526020019081526020016000206000905560019450505050506105c9565b60009150506105c9565b6040805160a08101825260008082526020820181905291810182905260608101829052608081019190915290565b600060208284031215611388578081fd5b81518015158114610ba4578182fd5b6000602082840312156113a8578081fd5b5051919050565b600080604083850312156113c1578081fd5b8251915060208301516001600160a01b03811681146113de578182fd5b809150509250929050565b6001600160a01b03929092168252602082015260400190565b6001600160a01b039384168152919092166020820152604081019190915260600190565b82516001600160a01b0390811682526020808501518216908301526040808501519083015260608085015190830152608093840151169281019290925260a082015260c00190565b9182526001600160a01b031660208201526060604082018190526000908201526080019056fe456e756d657261626c655365743a20696e646578206f7574206f6620626f756e6473416363657373436f6e74726f6c3a2073656e646572206d75737420626520616e2061646d696e20746f206772616e744f70657261746f72416363657373436f6e74726f6c3a2073656e646572207265717569726573207065726d697373696f6e41646d696e416363657373436f6e74726f6c48656c7065723a207a65726f206164647265737320676976656e20666f72206e6577206f70657261746f7241646d696e416363657373436f6e74726f6c48656c7065723a2073656e646572207265717569726573207065726d697373696f6e416363657373436f6e74726f6c3a2073656e646572206d75737420626520616e2061646d696e20746f207265766f6b65536166654d6174683a206d756c7469706c69636174696f6e206f766572666c6f774f70657261746f72416363657373436f6e74726f6c3a207a65726f206164647265737320676976656e20666f72206e6577206f70657261746f72416363657373436f6e74726f6c3a2063616e206f6e6c792072656e6f756e636520726f6c657320666f722073656c66a164736f6c6343000706000a97667070c54ef182b0f5858b034beac1b6f3089aa2d3188bb1e8929f4fa9b929a49807205ce4d355092ef5a8a18f56e8913cf4a201fbe287825b095693c21775",
  "devdoc": {
    "kind": "dev",
    "methods": {
      "getRoleAdmin(bytes32)": {
        "details": "Returns the admin role that controls `role`. See {grantRole} and {revokeRole}. To change a role's admin, use {_setRoleAdmin}."
      },
      "getRoleMember(bytes32,uint256)": {
        "details": "Returns one of the accounts that have `role`. `index` must be a value between 0 and {getRoleMemberCount}, non-inclusive. Role bearers are not sorted in any particular way, and their ordering may change at any point. WARNING: When using {getRoleMember} and {getRoleMemberCount}, make sure you perform all queries on the same block. See the following https://forum.openzeppelin.com/t/iterating-over-elements-on-enumerableset-in-openzeppelin-contracts/2296[forum post] for more information."
      },
      "getRoleMemberCount(bytes32)": {
        "details": "Returns the number of accounts that have `role`. Can be used together with {getRoleMember} to enumerate all bearers of a role."
      },
      "grantRole(bytes32,address)": {
        "details": "Grants `role` to `account`. If `account` had not been already granted `role`, emits a {RoleGranted} event. Requirements: - the caller must have ``role``'s admin role."
      },
      "hasRole(bytes32,address)": {
        "details": "Returns `true` if `account` has been granted `role`."
      },
      "renounceRole(bytes32,address)": {
        "details": "Revokes `role` from the calling account. Roles are often managed via {grantRole} and {revokeRole}: this function's purpose is to provide a mechanism for accounts to lose their privileges if they are compromised (such as when a trusted device is misplaced). If the calling account had been granted `role`, emits a {RoleRevoked} event. Requirements: - the caller must be `account`."
      },
      "revokeRole(bytes32,address)": {
        "details": "Revokes `role` from `account`. If `account` had been granted `role`, emits a {RoleRevoked} event. Requirements: - the caller must have ``role``'s admin role."
      }
    },
    "version": 1
  },
  "userdoc": {
    "kind": "user",
    "methods": {},
    "version": 1
  },
  "storageLayout": {
    "storage": [
      {
        "astId": 22,
        "contract": "contracts/distribution/USDCANTPoolStakerANT.sol:USDCANTPoolStakerANT",
        "label": "_roles",
        "offset": 0,
        "slot": "0",
        "type": "t_mapping(t_bytes32,t_struct(RoleData)18_storage)"
      },
      {
        "astId": 5142,
        "contract": "contracts/distribution/USDCANTPoolStakerANT.sol:USDCANTPoolStakerANT",
        "label": "_admin",
        "offset": 0,
        "slot": "1",
        "type": "t_address"
      },
      {
        "astId": 5279,
        "contract": "contracts/distribution/USDCANTPoolStakerANT.sol:USDCANTPoolStakerANT",
        "label": "_operator",
        "offset": 0,
        "slot": "2",
        "type": "t_address"
      },
      {
        "astId": 6430,
        "contract": "contracts/distribution/USDCANTPoolStakerANT.sol:USDCANTPoolStakerANT",
        "label": "poolStaker",
        "offset": 0,
        "slot": "3",
        "type": "t_contract(IUniswapV3Staker)5118"
      },
      {
        "astId": 6432,
        "contract": "contracts/distribution/USDCANTPoolStakerANT.sol:USDCANTPoolStakerANT",
        "label": "pool",
        "offset": 0,
        "slot": "4",
        "type": "t_contract(IUniswapV3Pool)3539"
      },
      {
        "astId": 6434,
        "contract": "contracts/distribution/USDCANTPoolStakerANT.sol:USDCANTPoolStakerANT",
        "label": "rewardToken",
        "offset": 0,
        "slot": "5",
        "type": "t_contract(IERC20Minimal)3434"
      },
      {
        "astId": 6436,
        "contract": "contracts/distribution/USDCANTPoolStakerANT.sol:USDCANTPoolStakerANT",
        "label": "refundee",
        "offset": 0,
        "slot": "6",
        "type": "t_address"
      },
      {
        "astId": 6438,
        "contract": "contracts/distribution/USDCANTPoolStakerANT.sol:USDCANTPoolStakerANT",
        "label": "startTime",
        "offset": 0,
        "slot": "7",
        "type": "t_uint256"
      },
      {
        "astId": 6440,
        "contract": "contracts/distribution/USDCANTPoolStakerANT.sol:USDCANTPoolStakerANT",
        "label": "endTime",
        "offset": 0,
        "slot": "8",
        "type": "t_uint256"
      },
      {
        "astId": 6442,
        "contract": "contracts/distribution/USDCANTPoolStakerANT.sol:USDCANTPoolStakerANT",
        "label": "rewardAmount",
        "offset": 0,
        "slot": "9",
        "type": "t_uint256"
      },
      {
        "astId": 6446,
        "contract": "contracts/distribution/USDCANTPoolStakerANT.sol:USDCANTPoolStakerANT",
        "label": "owners",
        "offset": 0,
        "slot": "10",
        "type": "t_mapping(t_uint256,t_address)"
      }
    ],
    "types": {
      "t_address": {
        "encoding": "inplace",
        "label": "address",
        "numberOfBytes": "20"
      },
      "t_array(t_bytes32)dyn_storage": {
        "base": "t_bytes32",
        "encoding": "dynamic_array",
        "label": "bytes32[]",
        "numberOfBytes": "32"
      },
      "t_bytes32": {
        "encoding": "inplace",
        "label": "bytes32",
        "numberOfBytes": "32"
      },
      "t_contract(IERC20Minimal)3434": {
        "encoding": "inplace",
        "label": "contract IERC20Minimal",
        "numberOfBytes": "20"
      },
      "t_contract(IUniswapV3Pool)3539": {
        "encoding": "inplace",
        "label": "contract IUniswapV3Pool",
        "numberOfBytes": "20"
      },
      "t_contract(IUniswapV3Staker)5118": {
        "encoding": "inplace",
        "label": "contract IUniswapV3Staker",
        "numberOfBytes": "20"
      },
      "t_mapping(t_bytes32,t_struct(RoleData)18_storage)": {
        "encoding": "mapping",
        "key": "t_bytes32",
        "label": "mapping(bytes32 => struct AccessControl.RoleData)",
        "numberOfBytes": "32",
        "value": "t_struct(RoleData)18_storage"
      },
      "t_mapping(t_bytes32,t_uint256)": {
        "encoding": "mapping",
        "key": "t_bytes32",
        "label": "mapping(bytes32 => uint256)",
        "numberOfBytes": "32",
        "value": "t_uint256"
      },
      "t_mapping(t_uint256,t_address)": {
        "encoding": "mapping",
        "key": "t_uint256",
        "label": "mapping(uint256 => address)",
        "numberOfBytes": "32",
        "value": "t_address"
      },
      "t_struct(AddressSet)3146_storage": {
        "encoding": "inplace",
        "label": "struct EnumerableSet.AddressSet",
        "members": [
          {
            "astId": 3145,
            "contract": "contracts/distribution/USDCANTPoolStakerANT.sol:USDCANTPoolStakerANT",
            "label": "_inner",
            "offset": 0,
            "slot": "0",
            "type": "t_struct(Set)2881_storage"
          }
        ],
        "numberOfBytes": "64"
      },
      "t_struct(RoleData)18_storage": {
        "encoding": "inplace",
        "label": "struct AccessControl.RoleData",
        "members": [
          {
            "astId": 15,
            "contract": "contracts/distribution/USDCANTPoolStakerANT.sol:USDCANTPoolStakerANT",
            "label": "members",
            "offset": 0,
            "slot": "0",
            "type": "t_struct(AddressSet)3146_storage"
          },
          {
            "astId": 17,
            "contract": "contracts/distribution/USDCANTPoolStakerANT.sol:USDCANTPoolStakerANT",
            "label": "adminRole",
            "offset": 0,
            "slot": "2",
            "type": "t_bytes32"
          }
        ],
        "numberOfBytes": "96"
      },
      "t_struct(Set)2881_storage": {
        "encoding": "inplace",
        "label": "struct EnumerableSet.Set",
        "members": [
          {
            "astId": 2876,
            "contract": "contracts/distribution/USDCANTPoolStakerANT.sol:USDCANTPoolStakerANT",
            "label": "_values",
            "offset": 0,
            "slot": "0",
            "type": "t_array(t_bytes32)dyn_storage"
          },
          {
            "astId": 2880,
            "contract": "contracts/distribution/USDCANTPoolStakerANT.sol:USDCANTPoolStakerANT",
            "label": "_indexes",
            "offset": 0,
            "slot": "1",
            "type": "t_mapping(t_bytes32,t_uint256)"
          }
        ],
        "numberOfBytes": "64"
      },
      "t_uint256": {
        "encoding": "inplace",
        "label": "uint256",
        "numberOfBytes": "32"
      }
    }
  }
}